:020000040800F2
:1000000000C00020C1340008C50C0008C70C00085F
:10001000C90C0008CB0C0008CD0C00080000000043
:10002000000000000000000000000000CF0C0008ED
:10003000D10C000800000000D30C0008D50C00080B
:100040000935000809350008093500080935000898
:100050000935000809350008093500080935000888
:10006000093500080935000809350008DD0C0008CD
:10007000ED0C0008FD0C0008093500080D0D000806
:100080000935000809350008093500080935000858
:100090000935000809350008093500080935000848
:1000A0000935000809350008093500080935000838
:1000B0000935000809350008093500080935000828
:1000C0000935000809350008093500080935000818
:1000D0000935000809350008093500080935000808
:1000E00009350008093500080935000809350008F8
:1000F00009350008093500080935000809350008E8
:1001000009350008093500080935000809350008D7
:1001100009350008093500080935000809350008C7
:100120001D0D000809350008093500082D0D0008CF
:1001300000000000000000000000000000000000BF
:1001400000000000000000000000000000000000AF
:10015000000000000000000000000000000000009F
:10016000000000000000000000000000000000008F
:10017000000000000000000000000000000000007F
:10018000000000000000000000000000000000006F
:10019000000000000000000000000000000000005F
:1001A000000000000000000000000000000000004F
:1001B000000000000000000000000000000000003F
:1001C000000000000000000000000000000000002F
:1001D000000000000000000000000000000000001F
:0401E0005FF8E0F1F3
:1001E40010B5054C237833B9044B13B10448AFF36D
:1001F40000800123237010BD700000200000000067
:10020400EC45000808B5034B1BB103490348AFF3A1
:10021400008008BD0000000074000020EC450008C8
:1002240072B6FEE700B591B02822002106A803F0BB
:1002340095F90023019302930393049305930122F8
:1002440006924FF4803307930A9202220D920E9382
:100254004FF4E0130F9306A801F088FB80B90F2335
:10026400019302210291002303934FF480620492CC
:10027400059301A801F0BAFD20B911B05DF804FBA3
:10028400FFF7CEFFFFF7CCFF08B501F021FBFFF726
:10029400C9FF00F01FF800F063F800F083FA00F0E3
:1002A400F3FA00F045FB00F099FB00F0EBFB00F0E3
:1002B4003DFC02F0DFFA02F079FB02F0C9FF02F024
:1002C400C3FC02F0C5FF02F07DFB5F21002002F0B9
:1002D400DDFEF2E730B589B0002404940594069459
:1002E40007941C4B9A6942F020029A619A6902F0C1
:1002F40020020092009A9A6942F004029A619A6973
:1003040002F004020192019A9A6942F010029A6181
:100314009A6902F010020292029A9A6942F0080263
:100324009A619B6903F008030393039BF0230493EE
:100334000225069504A9084801F042FE10230493FF
:10034400059406950DEB0301044801F039FE09B04C
:1003540030BD00BF00100240000801400010014001
:1003640000B583B0224B5A6942F001025A615A69BE
:1003740002F001020092009A5A6942F002025A61A4
:100384005B6903F002030193019B002205210B200A
:1003940002F016FA0B2002F04BFA002205210C2081
:1003A40002F00EFA0C2002F043FA002205210D207F
:1003B40002F006FA0D2002F03BFA002205210F207C
:1003C40002F0FEF90F2002F033FA00220521382052
:1003D40002F0F6F9382002F02BFA002206213B2025
:1003E40002F0EEF93B2002F023FA03B05DF804FBBF
:1003F4000010024010B586B0044603687C4A93425C
:1004040012D0B3F1804F34D07A4A934257D07A4A0B
:1004140093427BD0794A934200F09D80784A93427C
:1004240000F0BE8006B010BD764B9A6942F40062BB
:100434009A619B6903F400630093009B7248734BB9
:10044400036010234360002383608022C2604FF462
:10045400007202614FF4006242618361C36101F082
:10046400EDFE18B9684B63625C62DBE7FFF7D8FE08
:10047400F8E703F50433DA6942F00102DA61DB6973
:1004840003F001030193019B6148624B0360102355
:100494004360002383608022C2604FF400720261D3
:1004A4004FF4006242618361C36101F0C7FE18B971
:1004B400574B63625C62B5E7FFF7B2FEF8E7514B56
:1004C400DA6942F00202DA61DB6903F002030293A3
:1004D400029B5148514B0360102343600023836007
:1004E4008022C2604FF4007202614FF400624261E4
:1004F4008361C36101F0A2FE28B9474B23635C62A8
:1005040023625C628EE7FFF78BFEF6E73D4BDA6908
:1005140042F00402DA61DB6903F004030393039BF2
:100524003F48404B036010234360002383608022D4
:10053400C2604FF4007202614FF400624261836151
:10054400C36101F07BFE18B9354B63625C6269E7F5
:10055400FFF766FEF8E72B4BDA6942F00802DA612E
:10056400DB6903F008030493049B2F482F4B0360BB
:1005740010234360002383608022C2604FF4007222
:1005840002614FF4006242618361C36101F056FE6F
:1005940018B9254B63625C6244E7FFF741FEF8E754
:1005A400184B9A6942F400529A619B6903F4005310
:1005B4000593059B1E481F4B0360102343600023D3
:1005C40083608022C2604FF4007202614FF40062C3
:1005D40042618361C36101F031FE28B9144BE362C7
:1005E4005C6223625C621DE7FFF71AFEF6E700BF58
:1005F400002C01400004004000080040000C0040B2
:1006040000340140001002408C0000201C00024015
:10061400D0000020580002401401002030000240A5
:1006240058010020080002409C01002058040240A8
:10063400E00100200804024000B58BB000230693BB
:1006440007930893099303684C4A934211D0B3F17A
:10065400804F23D04A4A93423FD04A4A93424FD0D4
:10066400494A934260D0494A934271D00BB05DF835
:1006740004FB474B9A6942F004029A619B6903F0B8
:1006840004030093009B4FF48073069302230793A3
:10069400099306A93F4801F093FCE7E703F5043307
:1006A4009A6942F004029A619B6903F0040301937E
:1006B400019B4FF40043069302230793099306A971
:1006C400344801F07DFC344A536823F4407343F00A
:1006D400E06343F480735360C8E72D4B9A6942F09A
:1006E40008029A619B6903F008030293029B0223A8
:1006F40006930793099306A9284801F061FCB5E71E
:10070400234B9A6942F008029A619B6903F008033B
:100714000393039B4023069302230793099306A99B
:100724001E4801F04DFCA1E7194B9A6942F00402FE
:100734009A619B6903F004030493049B01230693C9
:1007440002230793099306A9124801F039FC8DE7A7
:100754000F4B9A6942F010029A619B6903F01003EF
:100764000593059B4FF48073069302230793099323
:1007740006A90B4801F024FC78E700BF002C0140D7
:100784000004004000080040000C00400034014018
:10079400001002400008014000000140000C01402C
:1007A4000010014010B596B00024129413941494D0
:1007B40015941094119409940A940B940C940D9428
:1007C4000E940F942022214601A802F0C7FE2C4863
:1007D4002C4B0360446084605923C360046144610A
:1007E400846100F0EDFC002837D14FF4805312935C
:1007F40012A9234800F0E8FD002831D1204800F078
:100804000BFD00282FD100231093119310A91C482D
:1008140000F0F6FF50BB6023099300220A920B926A
:100824000C920D920E920F9209A9154800F058FDF2
:10083400F8B90023019302930393049305934FF4AF
:1008440000520692089301A90D4801F017F898B9CF
:100854000B48FFF7F1FE16B010BDFFF7E1FCC4E74B
:10086400FFF7DEFCCAE7FFF7DBFCCCE7FFF7D8FCB9
:10087400D1E7FFF7D5FCDCE7FFF7D2FCE8E700BFE0
:1008840024020020002C014000B58FB000230A93FD
:100894000B930C930D930893099301930293039381
:1008A400049305930693079320484FF08042026017
:1008B400436083605922C2600361836100F080FC5D
:1008C40020BB4FF480530A930AA9184800F07CFD1A
:1008D400F8B9164800F0A0FCF0B900230893099376
:1008E40008A9124800F08CFFC8B9602301930022C4
:1008F40002920392059201A90C4800F0F1FC88B918
:100904000A48FFF799FE0FB05DF804FBFFF788FC77
:10091400D7E7FFF785FCDCE7FFF782FCDDE7FFF7AD
:100924007FFCE2E7FFF77CFCEAE700BF6C020020F3
:1009340000B58FB000230A930B930C930D93089387
:1009440009930193029303930493059306930793E6
:100954002048214A0260436083605922C2600361D7
:10096400836100F02DFC28BB4FF480530A930AA93D
:10097400184800F029FD00BB164800F04DFCF8B9FA
:1009840000230893099308A9124800F039FFD0B94D
:100994006023019300230293039305930C2201A97E
:1009A4000C4800F09DFC88B90A48FFF745FE0FB0DB
:1009B4005DF804FBFFF734FCD6E7FFF731FCDBE717
:1009C400FFF72EFCDCE7FFF72BFCE1E7FFF728FC41
:1009D400EAE700BFB40200200004004000B58FB075
:1009E40000230A930B930C930D930893099301939B
:1009F4000293039304930593069307931F48204A95
:100A04000260436083605922C2600361836100F025
:100A1400D7FB20BB4FF480530A930AA9174800F070
:100A2400D3FCF8B9154800F0F7FBF0B9002308939C
:100A3400099308A9114800F0E3FEC8B960230193A3
:100A4400002202920392059201A90C4800F048FC8E
:100A540088B90A48FFF7F0FD0FB05DF804FBFFF713
:100A6400DFFBD7E7FFF7DCFBDCE7FFF7D9FBDDE7CC
:100A7400FFF7D6FBE2E7FFF7D3FBEAE7FC0200202F
:100A84000008004000B58FB000230A930B930C9329
:100A94000D9308930993019302930393049305938D
:100AA400069307931F48204A0260436083605922DB
:100AB400C2600361836100F083FB20BB4FF4805369
:100AC4000A930AA9174800F07FFCF8B9154800F00A
:100AD400A3FBF0B900230893099308A9114800F077
:100AE4008FFEC8B9602301930022029203920592FB
:100AF40001A90C4800F0F4FB88B90A48FFF79CFDF3
:100B04000FB05DF804FBFFF78BFBD7E7FFF788FB1B
:100B1400DCE7FFF785FBDDE7FFF782FBE2E7FFF7A2
:100B24007FFBEAE744030020000C004010B596B0B8
:100B34000024129413941494159410941194099409
:100B44000A940B940C940D940E940F942022214635
:100B540001A802F003FD2C482C4B03604460846020
:100B64005923C36004614461846100F029FB0028B7
:100B740038D14FF48053129312A9234800F024FC77
:100B8400002832D1204800F047FB002830D1002350
:100B94001093119310A91C4800F032FE58BB602337
:100BA400099300230A930B930C930D930E930F93C5
:100BB400082209A9144800F093FBF8B90023019313
:100BC40002930393049305934FF4005206920893FF
:100BD40001A90D4800F052FE98B90B48FFF72CFD0F
:100BE40016B010BDFFF71CFBC3E7FFF719FBC9E7FD
:100BF400FFF716FBCBE7FFF713FBD0E7FFF710FB7C
:100C0400DCE7FFF70DFBE8E78C030020003401402C
:100C14000120704708B502F077FC162303604FF0FB
:100C2400FF3008BD08B54FF0FF31FFF7F3FFFEE7D3
:100C340070B50C461646002506E0AFF30080214649
:100C440001F8010B01350C46B542F6DB304670BDA8
:100C540070B50C461646002504E014F8010BAFF3FA
:100C640000800135B542F8DB304670BD08B5034657
:100C74000B4A126842B10A4A106803446A46934216
:100C840006D8074A136008BD054A06491160F2E711
:100C940002F03AFC0C2303604FF0FF30F3E700BF8F
:100CA400D403002070A100204FF0FF3070474FF4B0
:100CB40000534B60002070470120704700207047AC
:100CC400FEE7FEE7FEE7FEE7FEE770477047704782
:100CD40008B500F00FFE08BD08B5024801F0E8FBB6
:100CE40008BD00BF5801002008B5024801F0E0FB30
:100CF40008BD00BF8C00002008B5024801F0D8FBF5
:100D040008BD00BF1401002008B5024801F0D0FB63
:100D140008BD00BFD000002008B5024801F0C8FBA0
:100D240008BD00BFE001002008B5024801F0C0FB87
:100D340008BD00BF9C01002082B00E4B9A6942F0AE
:100D440001029A619A6902F001020092009ADA693A
:100D540042F08052DA61DB6903F080530193019B16
:100D6400054A536823F0E06343F00073536002B014
:100D7400704700BF001002400000014030B589B048
:100D84000446214BDA6942F01002DA61DB6903F0B0
:100D940010030193019B02A903A801F0F3F8069B39
:100DA400CBB901F0DFF803461848A0FB03239B0CE2
:100DB400013B1748174A026040F2E732C2604360C1
:100DC400002303618360836100F0FAF9054630B1C2
:100DD400284609B030BD01F0C5F84300E4E70C48EB
:100DE40000F0DEF805460028F2D1362001F020FD9F
:100DF4000F2C01D90125EBE700222146362001F012
:100E0400DFFC054B1C60E3E70010024083DE1B435C
:100E1400D8030020001000400400002030B4036A0E
:100E240023F001030362036A4268846924F07304B3
:100E34000D682C4323F0020C8B6843EA0C03104D1D
:100E4400A84203D005F50065A84205D123F00803A4
:100E5400CD682B4323F00403094DA84203D005F5C4
:100E64000065A84205D122F440724D692A438D6978
:100E74002A43426084614A684263036230BC70471B
:100E8400002C014030B4036A23F480730362036AC4
:100E94004268C46924F0730C0C6844EA0C0523F41A
:100EA40000738C6843EA0423114CA04203D004F578
:100EB4000064A04206D123F40063CC6843EA04230F
:100EC40023F480630A4CA04203D004F50064A042DA
:100ED40007D122F440524C6942EA04128C6942EA76
:100EE40004124260C5614A68C263036230BC704741
:100EF400002C014030B4036A23F480530362036A74
:100F04004468C26922F4E6420D6842EA052223F4E9
:100F140000538D6843EA0533094DA84203D005F513
:100F24000065A84204D124F480444D6944EA851440
:100F34004460C2614A680264036230BC704700BF07
:100F4400002C014010B4036A046A24F00104046212
:100F5400846924F0F00C4CEA021223F00A030B43D8
:100F64008261036210BC704710B4046A24F0100458
:100F740004628469036A24F4704C4CEA023223F05C
:100F8400A00343EA01138261036210BC70478368C3
:100F940023F070030B4343F00703836070470000A2
:100FA40090F83D30DBB2012B2FD1022380F83D3085
:100FB4000268D36843F00103D3600368154A93427F
:100FC40018D002F50062934214D0B3F1804F11D0CF
:100FD400A2F5983293420DD002F58062934209D073
:100FE40002F58062934205D01A6842F001021A6049
:100FF400002070479A6802F00702062A07D01A6890
:1010040042F001021A60002070470120704700205E
:10101400704700BF002C0140704710B5446A636AF2
:1010240083420ED0A36A834214D0E36A83421AD067
:10103400236B834220D0204602F060F900232377FB
:1010440010BD012323778369002BF4D1012384F895
:101054003E30F0E7022323778369002BEBD1012391
:1010640084F83F30E7E7042323778369002BE2D138
:10107400012384F84030DEE7082323778369002BBB
:10108400D9D1012384F84130D5E7704710B5446ABB
:10109400636A83420BD0A36A834210D0E36A83421B
:1010A40010D0236B834204D10823237701E001236A
:1010B40023772046FFF7E9FF0023237710BD02239F
:1010C4002377F6E704232377F3E7704710B5446AE0
:1010D400636A83420CD0A36A834213D0E36A8342D7
:1010E40016D0236B834219D0012384F83D3003E0EA
:1010F4000123237784F83E302046FFF7E6FF0023E0
:10110400237710BD02232377012384F83F30F3E7CC
:1011140004232377012384F84030EDE70823237761
:10112400012384F84130E7E70368244A904212D04F
:1011340002F5006290420ED0B0F1804F0BD0A2F5C0
:101144009832904207D002F58062904203D002F5B3
:101154008062904203D123F070034A681343174A14
:10116400904212D002F5006290420ED0B0F1804F4E
:101174000BD0A2F59832904207D002F580629042DB
:1011840003D002F58062904203D123F44073CA680D
:10119400134323F080034A69134303608B68C362DB
:1011A4000B688362054B984203D003F500639842B1
:1011B40001D10B690363012343617047002C014093
:1011C40040B310B5044690F83D30F3B1022384F8DF
:1011D4003D30214651F8040BFFF7A6FF012384F8A4
:1011E400463084F83E3084F83F3084F8403084F848
:1011F400413084F8423084F8433084F8443084F831
:10120400453084F83D30002010BD80F83C30FFF7B5
:10121400F1F8DBE70120704740B310B5044690F8BD
:101224003D30F3B1022384F83D30214651F8040BDC
:10123400FFF77AFF012384F8463084F83E3084F8BF
:101244003F3084F8403084F8413084F8423084F8E8
:10125400433084F8443084F8453084F83D3000202D
:1012640010BD80F83C30FFF7D7FEDBE70120704764
:1012740030B4036A23F010030362036A446882698A
:1012840022F4E6420D6842EA052223F020038D6829
:1012940043EA0513114DA84203D005F50065A842A1
:1012A40006D123F08003CD6843EA051323F04003FD
:1012B4000A4DA84203D005F50065A84207D124F4DD
:1012C40040644D6944EA85048D6944EA85044460B8
:1012D40082614A688263036230BC7047002C01401B
:1012E40038B590F83C30012B60D004460D460123FC
:1012F40080F83C300C2A1AD8DFE802F007191919D3
:101304001D1919193119191944000068FFF786FDD0
:101314002268936943F0080393612268936923F078
:10132400040393612268936929690B439361002044
:1013340084F83C0038BD0068FFF79AFF226893697F
:1013440043F4006393612268936923F48063936197
:1013540022689369296943EA01239361E7E70068F6
:10136400FFF790FD2268D36943F00803D361226834
:10137400D36923F00403D3612268D36929690B4339
:10138400D361D4E70068FFF7B5FD2268D36943F45D
:101394000063D3612268D36923F48063D361226834
:1013A400D369296943EA0123D361C0E70220C1E775
:1013B40010B4846824F47F4C42EA03220A4342EACC
:1013C4000C02826010BC704790F83C30012B66D050
:1013D40010B50446012380F83C30022380F83D30E8
:1013E4000268936823F47F4323F0770393600B68C8
:1013F400602B40D022D8402B47D00BD9502B0ED194
:10140400CA6849680068FFF79DFD50212068FFF70E
:10141400BEFD04E0202B0CD008D9302B09D00123C9
:1014240084F83D30002084F83C0010BD0BB1102B33
:10143400F5D119462068FFF7AAFDF0E7702B0ED00E
:10144400B3F5005FEBD1CB684A6889680068FFF7A1
:10145400AFFF2268936843F480439360DFE7CB686F
:101464004A6889680068FFF7A3FF2268936843F01D
:1014740077039360D3E7CA6849680068FFF774FD8F
:1014840060212068FFF783FDC9E7CA6849680068DE
:10149400FFF758FD40212068FFF779FDBFE70220E0
:1014A400704701F01F01012303FA01FC036A23EAD8
:1014B4000C030362036A02FA01F10B4303627047EF
:1014C40070B5044616460D4600292DD190F83E000D
:1014D400C0B2022814BF00200120002840F004817B
:1014E400002D3DD194F83E20D2B2012A14BF00222F
:1014F4000122002A00F0FA80002E4DD0002D4FD199
:10150400022284F83E200C2D71D8DFE815F0590032
:101514007000700070009E00700070007000B500D4
:10152400700070007000CC00042909D008290FD085
:1015340090F84100C0B2022814BF00200120CCE77B
:1015440090F83F00C0B2022814BF00200120C4E775
:1015540090F84000C0B2022814BF00200120BCE76C
:10156400042D09D0082D0FD094F84120D2B2012ABD
:1015740014BF00220122BCE794F83F20D2B2012A12
:1015840014BF00220122B4E794F84020D2B2012A09
:1015940014BF00220122ACE7002BAFD00120A6E04B
:1015A400042D05D0082D07D0022284F84120AAE793
:1015B400022284F83F20A6E7022284F84020A2E712
:1015C400626A50499162626A4F49D162626A4F49C4
:1015D4001163226834323146606A00F07BFE0028D1
:1015E40040F086802268D36843F40073D3600122FC
:1015F40029462068FFF755FF2368454A934203D0E4
:1016040002F50062934203D15A6C42F400425A64D8
:1016140023683F4A93425CD002F50062934258D05B
:10162400B3F1804F55D0A2F59832934251D002F5D0
:10163400806293424DD002F58062934249D01A6889
:1016440042F001021A60002051E0A26A2D49916221
:10165400A26A2D49D162A26A2C49116322683832E8
:101664003146A06A00F036FE002843D12268D368D0
:1016740043F48063D360BAE7E26A22499162E26A82
:101684002149D162E26A2149116322683C32314620
:10169400E06A00F01FFE00282ED12268D36843F4CC
:1016A4000063D360A3E7226B16499162226B16494B
:1016B400D162226B15491163226840323146206B96
:1016C40000F008FED0B92268D36843F48053D36095
:1016D4008DE79A6802F00702062A11D01A6842F0D0
:1016E40001021A60002002E0022000E0012070BD27
:1016F4000120FCE70120FAE70120F8E70120F6E7E2
:101704000020F4E71F10000891100008D110000811
:10171400002C014038B504460D460C2910D8DFE8EA
:1017240001F0070F0F0F320F0F0F3B0F0F0F440085
:101734000268D36823F40073D360406A00F004FEA7
:10174400002229462068FFF7ACFE23682B4A934207
:1017540034D002F50062934230D02368196A41F212
:101764001112114208D1196A40F24442114203D1C4
:101774001A6822F001021A60002D2ED1012384F888
:101784003E30002038BD0268D36823F48063D36000
:10179400806A00F0D9FDD3E70268D36823F40063BC
:1017A400D360C06A00F0D0FDCAE70268D36823F4AE
:1017B4008053D360006B00F0C7FDC1E7196A41F2A2
:1017C40011121142C9D1196A40F244421142C4D1E2
:1017D4005A6C22F400425A64BFE7042D05D0082D48
:1017E40007D0012384F84130CBE7012384F83F304C
:1017F400C7E7012384F84030C3E700BF002C014051
:1018040090F83C30012B34D010B4012380F83C30E4
:10181400022380F83D3003685A689C6822F0700CFB
:101824000A6842EA0C025A600368134A934212D0CF
:1018340002F5006293420ED0B3F1804F0BD0A2F5B3
:101844009832934207D002F58062934203D002F5A6
:101854008062934204D124F080044A6814439C605B
:10186400012380F83D30002380F83C30184610BC3A
:1018740070470220704700BF002C014090F83C30B4
:10188400012B22D0012380F83C30CB6823F4407331
:101894008A68134323F480634A68134323F4006380
:1018A4000A68134323F480530A69134323F400534F
:1018B4004A69134323F48043CA6913430268536497
:1018C400002380F83C30184670470220704700001F
:1018D40008B5074A136843F010031360032000F0AF
:1018E4005DFF0F20FFF74AFAFFF726FA002008BD34
:1018F40000200240034A1168034B1B780B44136019
:10190400704700BF2004002000000020014B18682D
:10191400704700BF2004002038B50446FFF7F6FFE7
:101924000546B4F1FF3F02D0044B1B781C44FFF77B
:10193400EDFF401BA042FAD338BD00BF00000020D9
:1019440082B0084B1B68084AA2FB03235B0A00FB16
:1019540003F3019300BF019B5A1E0192002BF9D19E
:1019640002B0704708000020D34D6210002800F038
:10197400F18170B582B00446036813F0010F2CD0D6
:10198400994B5B6803F00C03042B1DD0964B5B68EA
:1019940003F00C03082B12D06368B3F5803F41D0E9
:1019A400002B55D103F1804303F504331A6822F464
:1019B40080321A601A6822F480221A6037E08A4B57
:1019C4005B6813F4803FE7D0874B1B6813F4003F38
:1019D40003D06368002B00F0BF81236813F0020F6B
:1019E40075D0814B5B6813F00C0F5FD07E4B5B6846
:1019F40003F00C03082B54D02369002B00F08A80D9
:101A04007A4B01221A60FFF781FF0546764B1B686B
:101A140013F0020F75D1FFF779FF401B0228F5D9A7
:101A240003209EE1704A136843F4803313606368B3
:101A340043B3FFF76BFF05466B4B1B6813F4003F82
:101A4400CBD1FFF763FF401B6428F5D9032088E15D
:101A5400B3F5A02F09D0644B1A6822F480321A60BF
:101A64001A6822F480221A60E1E703F18043A3F5A7
:101A74003C331A6842F480221A601A6842F48032B5
:101A84001A60D4E7FFF742FF0546574B1B6813F46F
:101A9400003FA2D0FFF73AFF401B6428F5D903208A
:101AA4005FE1514B5B6813F4803FA5D14E4B1B683B
:101AB40013F0020F03D02369012B40F04F814A4AEF
:101AC400136823F0F803616943EAC10313602368D0
:101AD40013F0080F33D0A369002B5CD0434B0122D1
:101AE400C3F88024FFF712FF05463F4B5B6A13F0EF
:101AF400020F21D1FFF70AFF401B0228F5D903206A
:101B04002FE1394A136823F0F803616943EAC103FA
:101B14001360DCE7354B00221A60FFF7F7FE054639
:101B2400314B1B6813F0020FD1D0FFF7EFFE401BBF
:101B34000228F5D9032014E10120FFF701FF2368EF
:101B440013F0040F00F09680274BDB6913F0805FDD
:101B540034D1254BDA6942F08052DA61DB6903F053
:101B640080530193019B0125214B1B6813F4807F53
:101B740026D0E368012B3DD0002B53D103F18043E1
:101B840003F504331A6A22F001021A621A6A22F077
:101B940004021A6233E0154B0022C3F88024FFF7D5
:101BA400B5FE0546104B5B6A13F0020FC7D0FFF772
:101BB400ADFE401B0228F5D90320D2E00025D3E76F
:101BC4000B4A136843F480731360FFF79FFE0646C5
:101BD400074B1B6813F4807FCBD1FFF797FE801B64
:101BE4006428F5D90320BCE0001002400000424202
:101BF400007000405F4A136A43F001031362E36814
:101C040033B3FFF783FE06465A4B1B6A13F0020FE9
:101C14002FD1FFF77BFE801B41F288339842F3D922
:101C240003209EE0052B09D0524B1A6A22F00102D0
:101C34001A621A6A22F004021A62E0E74D4B1A6A29
:101C440042F004021A621A6A42F001021A62D6E7EA
:101C5400FFF75CFE0646474B1B6A13F0020F08D0E1
:101C6400FFF754FE801B41F288339842F3D90320D6
:101C740077E0E5B9E369002B72D03E4A526802F07E
:101C84000C02082A56D0022B17D03B4B00221A66AE
:101C9400FFF73CFE0446374B1B6813F0007F47D028
:101CA400FFF734FE001B0228F5D9032059E0314A1E
:101CB400D36923F08053D361DCE72F4B00221A66EB
:101CC400FFF724FE05462B4B1B6813F0007F06D05C
:101CD400FFF71CFE401B0228F5D9032041E0236ACC
:101CE400B3F5803F1AD023494B6823F47413226A56
:101CF400606A024313434B601F4B01221A66FFF7CD
:101D040005FE04461B4B1B6813F0007F0ED1FFF742
:101D1400FDFD001B0228F5D9032022E0154A536873
:101D240023F40033A1680B435360DCE7002018E080
:101D3400002016E0012B16D00E4B5B6803F48031B3
:101D4400226A914211D103F47013626A93420ED154
:101D5400002006E001207047012002E0012000E09D
:101D6400002002B070BD0120FBE70120F9E701204B
:101D7400F7E700BF001002400000424286B0174B54
:101D84000FCB0DF1180C0CE90F0040F20123ADF854
:101D94000430134B5B6803F00C02082A02D011488C
:101DA40006B07047C3F3834218326A4412F8100C29
:101DB40013F4803F0DD00A4B5B68C3F340431833E0
:101DC4006B4413F8143C074A02FB00F0B0FBF3F039
:101DD400E6E7054B03FB00F0E2E700BF044600081A
:101DE4000010024000127A0000093D00002800F0B3
:101DF400A08070B50D460446524B1B6803F00703E0
:101E04008B420BD24F4A136823F007030B43136032
:101E1400136803F007038B4240F08D80236813F0AE
:101E2400020F17D013F0040F04D0474A536843F449
:101E3400E0635360236813F0080F04D0424A5368E8
:101E440043F460535360404A536823F0F003A1689D
:101E54000B435360236813F0010F31D06368012BE7
:101E640020D0022B25D0384A126812F0020F64D019
:101E740035494A6822F0030213434B60FFF746FDDD
:101E84000646314B5B6803F00C036268B3EB820FC8
:101E940016D0FFF73BFD801B41F288339842F0D9FE
:101EA400032045E0284A126812F4003FE0D10120E3
:101EB4003EE0254A126812F0007FD9D1012037E0B4
:101EC400204B1B6803F00703AB420AD91D4A136871
:101ED40023F007032B431360136803F00703AB429B
:101EE4002DD1236813F0040F06D0174A536823F446
:101EF400E063E1680B435360236813F0080F07D0D5
:101F0400114A536823F46053216943EAC1035360BF
:101F1400FFF734FF0C4B5B68C3F303130B4AD35C2A
:101F2400D8400B4B18600B4B1868FEF727FF0020B6
:101F340070BD012070470120FAE70120F8E7012075
:101F4400F6E700BF002002400010024018460008D7
:101F54000800002004000020014B1868704700BFEF
:101F64000800002008B5FFF7F7FF044B5B68C3F3D4
:101F74000223034AD35CD84008BD00BF00100240CE
:101F8400284600080F2303600B4B5A6802F0030233
:101F940042605A6802F0F00282605A6802F4E06219
:101FA400C2605B68DB0803F4E0630361034B1B68F6
:101FB40003F007030B60704700100240002002404A
:101FC40070B582B00024A446B0E0874DAA4210D078
:101FD40007D9864DAA420CD005F58035AA4208D00F
:101FE40013E0A5F58015AA4203D005F57025AA4291
:101FF40007D18A68002A62D0012A5BD04361082491
:1020040003E0A5F58015AA42F3D0BEF1FF0F58D81E
:102014000646BEF1FF0F56D84FEA8C0233680F25EF
:10202400954023EA050304FA02F2134333604B6834
:1020340013F0805F78D06E4B9A6942F001029A6186
:102044009B6903F001030193019B4FEA9C02951CD9
:10205400684B53F825600CF003039D000F23AB403D
:1020640026EA0306644B984233D003F58063984212
:1020740000F0988003F58063984200F0958003F5A2
:102084008063984200F0928003F58063984200F0E8
:102094008F8003F58063984219D006231AE0CC6838
:1020A400B3E7CC680434B0E7CC680834ADE7CC6857
:1020B4000C34AAE703610824A7E70024A5E7042455
:1020C400A3E7061DA5E7ACF108029200A6E70523E5
:1020D40000E00023AB4033430232464D45F8223042
:1020E4004B6813F4803F65D0444A136843EA0E03F7
:1020F40013604B6813F4003F62D0404A536843EACC
:102104000E0353604B6813F4801F5FD03B4A9368FF
:1021140043EA0E0393604B6813F4001F5CD0374A04
:10212400D36843EA0E03D3600CF1010C0A6832FA57
:102134000CF357D0012303FA0CF302EA030E33EA3B
:102144000202F1D14A68122A3FF63FAF122A3FF643
:102154005CAF01A555F822F0F71F0008A320000882
:10216400AD200008BF2000080F2000080F20000841
:102174000F2000080F2000080F2000080F2000087F
:102184000F2000080F2000080F2000080F2000086F
:102194000F2000080F2000080F200008A7200008C7
:1021A400B3200008012395E7022393E7032391E773
:1021B40004238FE7114A136823EA0E03136098E798
:1021C4000E4A536823EA0E0353609BE70B4A936855
:1021D40023EA0E0393609EE7084AD36823EA0E03BA
:1021E400D360A1E702B070BD0000221000003110DE
:1021F40000100240000001400008014000040140BA
:102204008368194201D0012070470020704730B420
:102214000124056CAC40C56B6C6004686360436862
:10222400102B05D0036899600368DA6030BC7047EE
:1022340003689A600368D960F8E7000000283AD080
:1022440010B4024600681D4B984229D81C4B034425
:102254001C49A1FB03131B099B0013641A4BD36392
:10226400022382F82130016821F47F5121F03001EA
:10227400536894682343D4682343146923435469FB
:10228400234394692343D46923430B43036000200D
:102294009063012382F8213082F8200010BC70473B
:1022A4000A4B03440749A1FB03131B099B00136456
:1022B400074BD363D4E70120704700BF07040240F3
:1022C400F8FFFDBFCDCCCCCC00000240F8FBFDBF35
:1022D4000004024038B5044690F82000012831D0AB
:1022E400012084F8200094F82100012804D0002360
:1022F40084F82030022038BD022084F82100002018
:10230400A0632568286820F0010028602046FFF7B4
:102314007EFFE36A5BB12268136843F00E03136027
:102324002268136843F0010313600020E3E7226886
:10233400136823F0040313602268136843F00A034C
:102344001360EDE70220D6E708B590F82130022BA0
:1023540003D004238363012008BD0268136823F0BB
:102364000E0313600268136823F00103136003680B
:102374004B4A93424ED9783A934224D01432934232
:1023840030D0143293422FD0143293422FD01432CF
:1023940093422FD0143293422FD0143293422FD031
:1023A40002F5627293422ED0143293422DD014322D
:1023B40093422CD01432934202D04FF4803203E083
:1023C4004FF4805200E00122364B5A60012380F81A
:1023D4002130002380F82030436B002B5ED09847D7
:1023E4000020B9E71022EFE74FF48072ECE74FF4D6
:1023F4008052E9E74FF48032E6E74FF48012E3E7D6
:102404004FF08072E0E70122DEE71022DCE74FF4B0
:102414008072D9E7244A934224D01432934225D0BF
:102424001432934224D01432934224D0143293426F
:1024340024D01432934224D01432934224D002F58F
:102444006272934223D01432934222D014329342C4
:1024540021D01432934202D04FF4803203E04FF47F
:10246400805200E00122114B5A60AFE71022FAE7D4
:102474004FF48072F7E74FF48052F4E74FF4803260
:10248400F1E74FF48012EEE74FF08072EBE70122A0
:10249400E9E71022E7E74FF48072E4E700205BE706
:1024A4008000024000040240080002400000024094
:1024B40038B5C36B1A6804682568016C04238B4023
:1024C400134200F09B8015F0040F00F097802368FE
:1024D40013F0200F03D1236823F00403236003685F
:1024E4009A4A934246D9783A934224D0143293427A
:1024F40028D01432934227D01432934227D0143276
:10250400934227D01432934227D01432934227D0D7
:1025140002F56272934226D01432934225D01432CB
:10252400934224D01432934202D04FF4802203E029
:102534004FF4804200E00422854B5A60C36A03B121
:10254400984738BD4022F7E74FF48062F4E74FF430
:102554008042F1E74FF48022EEE74FF48002EBE78C
:102564004FF08062E8E70422E6E74022E4E74FF414
:102574008062E1E7774A934224D01432934225D013
:102584001432934224D01432934224D0143293420E
:1025940024D01432934224D01432934224D002F52E
:1025A4006272934223D01432934222D01432934263
:1025B40021D01432934202D04FF4802203E04FF42E
:1025C400804200E00422644B5A60B7E74022FAE7F5
:1025D4004FF48062F7E74FF48042F4E74FF480222F
:1025E400F1E74FF48002EEE74FF08062EBE704225C
:1025F400E9E74022E7E74FF48062E4E702238B40F7
:10260400134200F0AB8015F0020F00F0A78023689E
:1026140013F0200F06D1236823F00A03236001235B
:1026240080F821300368494A93424BD9783A93425F
:1026340024D0143293422DD0143293422CD014322D
:1026440093422CD0143293422CD0143293422CD087
:10265400143293422CD002F5627293422BD014327E
:1026640093422AD01432934229D01432934202D096
:102674004FF4003203E04FF4005200E00222344BE6
:102684005A60002380F82030836A002B3FF459AF4E
:10269400984756E72022F2E74FF40072EFE74FF431
:1026A4000052ECE74FF40032E9E74FF40012E6E79A
:1026B4004FF00072E3E70222E1E72022DFE74FF464
:1026C4000072DCE7234A934224D01432934225D08B
:1026D4001432934224D01432934224D014329342BD
:1026E40024D01432934224D01432934224D002F5DD
:1026F4006272934223D01432934222D01432934212
:1027040021D01432934202D04FF4003203E04FF44C
:10271400005200E00222104B5A60B2E72022FAE78E
:102724004FF40072F7E74FF40052F4E74FF400322D
:10273400F1E74FF40012EEE74FF00072EBE70222EC
:10274400E9E72022E7E74FF40072E4E78000024063
:10275400000402400800024000000240082303FA7B
:1027640001F111423FF4EDAE15F0080F3FF4E9AE6C
:10277400236823F00E032360026CC16B012303FA68
:1027840002F24A60836380F82130002380F820300D
:10279400036B002B3FF4D5AE9847D2E6074AD368C3
:1027A40023F4E0631B041B0C000200F4E060034309
:1027B40043F0BF6343F40033D360704700ED00E09F
:1027C40000B5194BDB68C3F30223C3F1070CBCF15A
:1027D400040F28BF4FF0040C03F1040EBEF1060FE2
:1027E40018D9033B4FF0FF3E0EFA0CFC21EA0C0112
:1027F40099400EFA03F322EA0303194300280BDB82
:102804000901C9B200F1604000F5614080F800138D
:102814005DF804FB0023E5E700F00F000901C9B2ED
:10282400024B1954F4E700BF00ED00E014ED00E0A2
:10283400002807DB00F01F02400901239340024AED
:1028440042F82030704700BF00E100E0BFF34F8F33
:102854000549CA6802F4E062044B1343CB60BFF33A
:102864004F8F00BFFDE700BF00ED00E00400FA0554
:102874007047000008B500F00BF800F0DFFC034BD4
:1028840000221A6683F8642008BD00BF24040020D7
:10289400044B00221A601A611A621A631A64012234
:1028A4001A65704724040020AF2304E01C4AFF216A
:1028B40042F823100133B3F5A87FF7D9AF2126E0FE
:1028C40001EB4100C2001A4401321648192440F8B1
:1028D40022400133172B11D8114A52F821004FF42A
:1028E40000021A411042EBD001EB4100C2001A442D
:1028F40001320C482D2440F82240EAE70131B1F5B9
:10290400A87F01D80023E5E710BC70470131B1F579
:10291400A87F04D80023172BF8D810B4DCE770473D
:10292400189B0020B404002040F2511304E01D4A17
:10293400FF2142F823100133B3F5C87FF7D940F2E1
:10294400511126E001EB4100C2001A44013216483D
:10295400192440F822400133172B11D8114A52F898
:1029640021004FF400021A411042EBD001EB410068
:10297400C2001A4401320C482D2440F82240EAE7F0
:102984000131B1F5C87F01D80023E5E710BC7047D9
:102994000131B1F5C87F04D80023172BF8D810B43F
:1029A400DCE77047189B0020B404002008B500F051
:1029B400DDFD434200F0030003F0030358BF584217
:1029C40008BD000010B500239D4C84F8663094F8CF
:1029D40064C0BCF1050F21D8DFE81CF00C00210015
:1029E40057009000C90003011A019549002088503E
:1029F4000133DBB2042BF7D9FEF788FF904B18663E
:102A0400002283F8652083F8662083F8672083F822
:102A14006820012283F8692002221A6010BD884AC6
:102A240092F867301B01D358012B06D0854B1B78D5
:102A34001BB91346012283F86620824B01221A70C7
:102A44007F4B93F865309342E8D0002307E07C4A3B
:102A5400180102EB031112584A600133DBB2042B54
:102A6400F5D9FEF753FF764B186693F8672083F881
:102A74006A20012283F8652083F8672083F86820A0
:102A840083F8692002221A61C8E718466C4A92F852
:102A940067301B01D358012B03D06A4B1B78012BE1
:102AA40008D0684B02221A70654B93F86530934244
:102AB4000DD1B3E71346012283F86620F1E7604B9A
:102AC400010103EB00125B5853600130C0B20428CB
:102AD400F5D9FEF71BFF5A4B186693F8672083F865
:102AE4006B20022283F86520042183F8671083F8A1
:102AF4006810012183F869101A648FE71946504A57
:102B040092F867301B01D358012B03D04D4B1B782F
:102B1400022B08D04B4B03221A70494B93F86530B3
:102B240093420DD17AE71346012283F86620F1E738
:102B3400434B080103EB01121B5853600131C9B226
:102B44000429F5D9FEF7E2FE3D4B186693F8672099
:102B540083F86C20032283F86520022283F867201F
:102B640083F86820012183F869101A6256E71A462F
:102B7400334991F867301B01CB58012B03D0314BFB
:102B84001B78032B08D02F4B042119702C4B93F87E
:102B940065308B420DD141E70B46012183F8661065
:102BA400F1E7274B100103EB02111B584B60013274
:102BB400D2B2042AF5D9FEF7A9FE214B186693F880
:102BC400672083F86D20042283F86520032283F8AC
:102BD400672083F86820012283F8692002221A639F
:102BE4001CE7174A92F867301B01D358012B03D016
:102BF400144B1B78042B0AD0124B05221A70104B6D
:102C040093F8653093423FF409AF00230CE0134678
:102C1400012283F86620EFE7094A180102EB031149
:102C240012584A600133DBB2042BF5D9FEF76EFE6D
:102C3400034B186693F8672083F86E20EEE600BF16
:102C4400240400209C04002008B50023204A1370AB
:102C540001E00133DBB2042B09D81A011D498A585B
:102C6400012AF6D11A490A7801320A70F1E7194BA0
:102C740093F8663043B9164B1B78052B0ED8DFE862
:102C840003F0090E13181D22012383F31388FFF7A1
:102C9400DDFDF0E70F4B002283F8642008BD0D4BE7
:102CA400012283F86420F9E70A4B022283F86420A6
:102CB400F4E7084B032283F86420EFE7054B042272
:102CC40083F86420EAE7034B052283F86420E5E7F0
:102CD4009D04002024040020204B1B68012B10D0ED
:102CE4001E4B5B68012B15D01C4B9B68012B1AD023
:102CF4001A4BDB68012B1FD0184B1B69012B24D006
:102D04007047174B93F86730002BE9D1144B01221D
:102D14001A60E5E7124B93F86730012BE4D1104BAE
:102D240001221A61E0E70E4B93F86730022BDFD1E2
:102D34000B4B01221A62DBE7094B93F86730032B34
:102D4400DAD1074B01221A63D6E7054B93F86730B3
:102D5400042BD5D1024B01221A64D1E7A004002030
:102D640024040020002304E01B4A002142F823101D
:102D74000133AE2BF8D9002125E001EB4100C2005C
:102D84001A4401321548192440F822400133172B04
:102D940011D8114A52F821004FF400021A4110428E
:102DA400EBD001EB4100C2001A4401320B482D2440
:102DB40040F82240EAE70131AE2901D80023E6E7D2
:102DC40010BC70470131AE2904D80023172BF9D861
:102DD40010B4DEE7704700BF189B0020B404002045
:102DE40010B4002303E02F4A42F823000133AE2B32
:102DF400F9D940F2511303E02A4A42F8230001337F
:102E0400B3F5C87FF8D900211EE001EB410203EBC2
:102E1400C20201322448192440F822400133172BFE
:102E240011D8204A52F821004FF400021A411042EE
:102E3400EBD001EB410203EBC20201321A482D240C
:102E440040F82240EAE70131AE2901D80023E6E741
:102E540040F251111EE001EB410203EBC2020132C8
:102E64001148192440F822400133172B11D80D4A78
:102E740052F821004FF400021A411042EBD001EB4A
:102E8400410203EBC202013207482D2440F82240DC
:102E9400EAE70131B1F5C87F01D80023E5E710BCAA
:102EA400704700BF189B0020B404002038B50446C6
:102EB4000D460A460146002000F06EFA2A462146D5
:102EC400052000F069FA2A4621460A2000F064FA37
:102ED4002A4621460F2000F05FFA2A462146142094
:102EE40000F05AFA2A462146192000F055FA2A46DB
:102EF40021461E2000F050FA00211EE001EB4102A1
:102F040003EBC20201320F48192440F82240013376
:102F1400172B11D80C4A52F821004FF400021A4121
:102F24001042EBD001EB410203EBC202013205482F
:102F34002D2440F82240EAE70131AE2901D80023CC
:102F4400E6E738BDB4040020189B002038B50446D9
:102F54000D460A460146022000F01EFA2A46214682
:102F6400072000F019FA2A4621460C2000F014FA32
:102F74002A462146112000F00FFA2A46214616203F
:102F840000F00AFA2A4621461B2000F005FA2A46D8
:102F94002146202000F000FA00211EE001EB41024E
:102FA40003EBC20201320F48192440F822400133D6
:102FB400172B11D80C4A52F821004FF400021A4181
:102FC4001042EBD001EB410203EBC202013205488F
:102FD4002D2440F82240EAE70131AE2901D800232C
:102FE400E6E738BDB4040020189B002038B5044639
:102FF4000D460A460146042000F0CEF92A46214631
:10300400092000F0C9F92A4621460E2000F0C4F92F
:103014002A462146132000F0BFF92A4621461820EB
:1030240000F0BAF92A4621461D2000F0B5F92A46D7
:103034002146222000F0B0F900211EE001EB4102FC
:1030440003EBC20201320F48192440F82240013335
:10305400172B11D80C4A52F821004FF400021A41E0
:103064001042EBD001EB410203EBC20201320548EE
:103074002D2440F82240EAE70131AE2901D800238B
:10308400E6E738BDB4040020189B002070B506465E
:103094000D4600245F4B1C60FFF71EFE234601E033
:1030A4000133DBB2042B09D81A015B498A58012A7F
:1030B400F6D158490A6801320A60F1E7554B1B689A
:1030C400022B03D0032B05D000241BE0524A02211B
:1030D4001165F7E7504B01221A65F5E72846FFF71B
:1030E4007FFEFFF721FCFFF7DFFB002C42D0012C11
:1030F4004DD0022C58D0032C63D0042C6ED0052C58
:1031040079D00134052C00F3838000F0C9F900F074
:1031140091F92301404AD358012BDFD0022B04D06C
:10312400002BE2D1FFF71EFEDFE73C4B1B686BB1BF
:10313400012B15D0022BD8D129463046FFF756FF74
:10314400FFF7B2FB354B00221A60CEE72946304622
:10315400FFF7ACFEFFF7A8FB304B01221A60C4E76F
:1031640029463046FFF7F2FEFFF79EFB2B4B022267
:103174001A60BAE742F29953294A00212948FEF716
:103184009FF91E20FEF7C8FB00F062F8AFE742F299
:103194009953234A00212448FEF792F91E20FEF792
:1031A400BBFB00F055F8A4E742F299531C4A0021F6
:1031B4001E48FEF785F91E20FEF7AEFB00F048F826
:1031C40099E742F29953164A0C211948FEF778F907
:1031D4001E20FEF7A1FB00F03BF88EE742F2995364
:1031E4000F4A00211348FEF76BF91E20FEF794FBEB
:1031F40000F02EF883E742F29953094A08210E4859
:10320400FEF75EF91E20FEF787FB00F021F878E751
:1032140070BD00BF98040020240400209404002002
:10322400B4040020FC0200206C02002044030020AF
:10323400B4020020240200208C030020034B00224F
:103244001A605A609A60DA601A617047A00400201C
:1032540008B510212548FEF7D3FF012818D02021F6
:103264002248FEF7CDFF01281BD040211F48FEF75E
:10327400C7FF01281ED080211C48FEF7C1FF01288A
:1032840021D010211A48FEF7BBFF012824D008BD25
:10329400184B93F86730002BE1D1174B01221A60C9
:1032A400DDE7144B93F86730032BDED1124B012278
:1032B400DA60DAE70F4B93F86730012BDBD10E4B62
:1032C40001225A60D7E70B4B93F86730022BD8D111
:1032D400094B01229A60D4E7064B93F86730042B1C
:1032E400D5D1054B01221A61D1E700BF0008014086
:1032F4000010014024040020A004002010B504465E
:103304001F4B98420FD01F4B9C4213D01E4B9C4224
:1033140017D01E4B9C421BD01D4B9C4220D01D4BF2
:103324009C4224D010BD18461B6800215963FEF747
:10333400F1F9E8E718461B6800215963FEF7EAF93A
:10334400E4E718461B6800215963FEF7E3F9E0E758
:1033540018461B6800221A640C21FEF7DBF9DBE730
:1033640018461B6800215963FEF7D4F9D7E71846BD
:103374001B680022DA630821FEF7CCF9D2E700BF0C
:10338400FC020020240200206C020020B402002071
:10339400440300208C0300204FF0000CBCF1050F07
:1033A40044DC70B538E0CEF1030403EB4404204D53
:1033B40045F8232045F824200EF1010EF44526DBC0
:1033C400CCEBCC037344C1EBC1042344C0EBC00475
:1033D4002344ED2BE7DDEE3BE5E74FF0000EEDE790
:1033E400134C44F823200EF1010EC5F10703734575
:1033F4000DDDCCEBCC0373443344C1EBC104234453
:10340400C0EBC0042344ED2BEADDEE3BE8E70CF10E
:10341400010CBCF1050F08DCBCF1020FDDDDACF1E1
:10342400020675004FF0000EDFE770BD704700BF65
:10343400189B0020002126E001EB4100C2001A4441
:1034440001321548192440F822400133172B11D8B2
:10345400124A52F821004FF400021A411042EBD0F4
:1034640001EB4100C2001A4401320B482D2440F8FC
:103474002240EAE70131B1F5C87F01D80023E5E72E
:1034840010BC70470131B1F5C87F04D80023172B55
:10349400F8D810B4DCE77047B4040020189B00206F
:1034A400002304E0044A002142F823100133B3F559
:1034B400C87FF7D9704700BF189B00200C480D49FE
:1034C4000D4A002302E0D458C4500433C4188C427B
:1034D400F9D30A4A0A4C002301E013600432A242E1
:1034E400FBD3FFF7C5F900F015F8FCF7CDFE7047E4
:1034F4000000002070000020A04700087000002099
:103504006CA10020FEE70000014B1868704700BF63
:103514000C00002070B500260C4D0D4C641BA4104B
:10352400A64209D101F060F800260A4D0A4C641B3A
:10353400A410A64205D170BD55F8043B9847013646
:10354400EEE755F8043B98470136F2E79847000840
:1035540098470008984700089C470008034602441F
:10356400934200D1704703F8011BF9E7164B10B5DD
:103574001C68A36BB3B9182000F066F80246A06378
:1035840020B94E21114B124800F02EF81149124B6C
:10359400C0E90013114B002183600B2383810120B8
:1035A400C2E90401A46B0E4A2069636942430D49D0
:1035B40001FB0322A0FB0101431C42EB0100C4E90F
:1035C400043020F0004010BD0C00002034460008F8
:1035D4004B4600080E33CDAB34126DE6ECDE05002D
:1035E4002DF451582D7F954C1FB514461A46094B9E
:1035F40005461B68D8684CB1074BCDE901340091EE
:103604002B46064900F00EF800F0C0FC044B1C46A3
:10361400F3E700BF0C000020C9460008D6460008A6
:10362400044700080EB403B5014603AB054853F83C
:10363400042B0068019300F013F902B05DF804EB69
:1036440003B070470C000020024B0146186800F0DC
:103654006BB800BF0C00002038B50546002940D0E7
:1036640051F8043C0C1F002BB8BFE41800F0C0FE56
:103674001C4A136833B9636014602846BDE83840B7
:1036840000F0BCBEA34208D9206821188B4201BFB8
:1036940019685B6809182160EDE71A465B680BB18D
:1036A400A342FAD911685018A0420BD120680144F2
:1036B400501883421160E0D118685B6801441160BE
:1036C4005360DAE702D90C232B60D6E7206821186F
:1036D4008B4201BF19685B680918216063605460FC
:1036E400CBE738BD5CA1002070B50E4E0C463168A6
:1036F400054611B900F07AFB30602146284600F0F7
:1037040075FB431C0AD0C41C24F00304A04207D058
:10371400211A284600F06AFB013001D14FF0FF3432
:10372400204670BD60A100202DE9F041CD1C25F09C
:10373400030508350C2D38BF0C25002D074601DB89
:10374400A94205D90C2300263B603046BDE8F08130
:103754002E4E00F04DFE33681C4634BB29463846D5
:10376400FFF7C2FF431C04464DD134682646002EA1
:1037740040D123683146384604EB030800F036FB99
:1037840080453AD1216803356D1A25F003050835C3
:103794000C2D38BF0C2538462946FFF7A5FF01300C
:1037A4002BD023682B4423600EE02268521B1ED4C6
:1037B4000B2A16D96119A342256018BF59606368A2
:1037C40008BF316062514B60384604F10B0600F0CB
:1037D40015FE26F00706231DF21AB6D09B1BA35034
:1037E400B3E76268A3420CBF32605A60ECE7234639
:1037F4006468B2E734467668B9E70C2338463B6020
:1038040000F0FCFDA1E72560DEE700BF5CA100201D
:10381400936810B4013B002B936007DA9469A342C8
:1038240001DB0A2902D110BC00F0F0BA1368581C5D
:1038340010601970084610BC7047F8B506460F466C
:103844001446D518AC4201D1002007E03A46304670
:1038540014F8011BFFF7DCFF431CF3D1F8BD000093
:103864002DE9F04F0D461446984606469DB018B112
:1038740083690BB900F0A8FC894B9D421BD1756884
:103884006B6ED90705D4AB899A0502D4A86D00F0F4
:1038940039FDAB891B0701D52B69EBB929463046A5
:1038A40000F006FBC0B16B6EDC070ED54FF0FF30A5
:1038B4001DB0BDE8F08F7B4B9D4201D1B568DFE7B9
:1038C400794B9D4208BFF568DAE7AB899805EDD4DA
:1038D400A86D00F018FDE9E70023099320238DF873
:1038E400293030234FF00109CDF80C80DFF8BC817A
:1038F4008DF82A3023469A4613F8012B0AB1252A5B
:10390400F9D1BAEB040B0BD05B462246294630466C
:10391400FFF793FF013000F0AA80099A5A440992F4
:103924009AF80030002B00F0A28000234FF0FF3201
:10393400CDE905230AF1010A049307938DF8533066
:103944001A935446052214F8011B584800F042FD0E
:10395400049AD8B9D10644BF20238DF853301307F5
:1039640044BF2B238DF853309AF800302A2B15D0FE
:10397400544600204FF00A0C079A214611F8013BE7
:10398400303B092B4ED9B0B1079214E0A0EB0803E9
:1039940009FA03F31343A2460493D2E7039B191DC8
:1039A4001B680391002BBBBF5B4242F002020793EA
:1039B4000793B8BF049223782E2B0CD163782A2B5B
:1039C40035D1039B02341A1D1B680392002BB8BF28
:1039D4004FF0FF330593DFF8D8A003225046217837
:1039E40000F0F8FC40B14023A0EB0A0003FA00F019
:1039F400049B01340343049314F8011B06222D484D
:103A04008DF8281000F0E6FC00283FD02A4B1BBBA1
:103A1400039B073323F0070308330393099B3B44B9
:103A2400099367E70C4601200CFB0232A5E700234B
:103A34004FF00A0C194601340593204610F8012B67
:103A4400303A092A03D9002BC5D00591C3E70446AF
:103A540001230CFB0121F0E703AB00932A46304617
:103A6400164B04A9AFF300800746781CD6D16B6EC1
:103A7400D90705D4AB899A0502D4A86D00F043FC9C
:103A8400AB895B063FF512AF099811E703AB0093CE
:103A94002A463046094B04A900F082F8E4E700BF47
:103AA40058470008784700083847000805470008C9
:103AB4000B4700080F470008000000003F380008CB
:103AC4002DE9F047164699468A680B6907469342E2
:103AD400B8BF1346336091F843200C46DDF82080CC
:103AE4000AB1013333602368990642BF3368023355
:103AF4003360256815F0060506D104F1190AE36858
:103B040032689B1AAB4228DC94F84320131E2268C7
:103B140018BF012392062DD44946384604F14302C6
:103B2400C047013020D02368E56803F00603042B66
:103B340018BF002532684FF00006A36808BFAD1A0D
:103B4400226908BF25EAE5759342C4BF9B1AED18A4
:103B54001A34B5421AD1002008E0012352464946DE
:103B64003846C047013003D14FF0FF30BDE8F0873D
:103B74000135C4E73020E11881F843005A1C94F859
:103B840045102244023382F84310C5E7012322463C
:103B940049463846C0470130E6D00136D9E700002F
:103BA4002DE9FF470F7E9146782F80460C469A46B2
:103BB4000C9D01F1430207D8622F0AD8002F00F0B0
:103BC400D980582F00F0A48004F1420584F8427093
:103BD4003AE0A7F16303152BF6D801A151F823F0BD
:103BE4003D3C0008513C0008CD3B0008CD3B00089B
:103BF400CD3B0008CD3B0008513C0008CD3B0008FC
:103C0400CD3B0008CD3B0008CD3B00085F3D0008DC
:103C1400813C0008413D0008CD3B0008CD3B000835
:103C2400813D0008CD3B0008813C0008CD3B0008E5
:103C3400CD3B0008493D00082B681A1D1B682A600B
:103C440004F1420584F842300123A4E02068296885
:103C5400060601F104030AD50E682B60002E03DA70
:103C64002D23764284F843300A235E4819E00E6817
:103C740010F0400F2B6018BF36B2EFE72B682068B6
:103C8400191D2960010601D51E6802E04606FBD510
:103C94001E886F2F0CBF08230A235248002184F882
:103CA40043106568002DA8BF2168A560A4BF21F05A
:103CB400040121600EB9002D4DD01546B6FBF3F179
:103CC40003FB1167C75D05F8017D3746BB420E460D
:103CD400F4D9082B0BD12368DE0708D52369616862
:103CE4009942DEBF302305F8013C05F1FF35521B34
:103CF40022614B4621464046CDF800A003AAFFF7B7
:103D0400DFFE01304CD14FF0FF3004B0BDE8F08746
:103D1400344881F845702968236851F8046B296098
:103D24001D0614D5DF0744BF43F0200323601EB9EA
:103D3400236823F0200323601023AFE7236843F0B4
:103D4400200323607823284884F84530E3E75906A4
:103D540048BFB6B2E6E71546BBE72B682668181DD0
:103D64006169286035061B6801D5196002E0700698
:103D7400FBD51980002315462361BAE72B6800217F
:103D84001A1D2A601D686268284600F023FB08B1EA
:103D9400401B606063682361002384F84330A8E714
:103DA4002A46494640462369D0470130ABD02368B0
:103DB4009B0713D4E068039B9842B8BF1846A4E756
:103DC4000123324649464046D04701309BD0013555
:103DD400E36803995B1AAB42F2DCEBE7002504F1DC
:103DE4001906F5E7164700082747000838B50023E9
:103DF400054D044608462B60FCF738FF431C02D1EE
:103E04002B6803B1236038BD68A10020F8B50E46C5
:103E14001446054618B183690BB900F0D5F9214B56
:103E24009C422BD16C68A369A360A3891A072FD580
:103E340023696BB323692068F6B2C01A63693746F5
:103E4400834204DC2146284600F02AF930BBA368EB
:103E54000130013BA36023685A1C22601E70636911
:103E6400834204D0A389DB0706D50A2E04D1214658
:103E7400284600F015F988B93846F8BD0A4B9C422B
:103E840001D1AC68CFE7094B9C4208BFEC68CAE794
:103E94002146284600F00CF80028CBD04FF0FF371D
:103EA400EAE700BF58470008784700083847000889
:103EB400324B70B51D6806460C4625B1AB6913B983
:103EC400284600F081F92E4B9C420FD16C68A389DF
:103ED400B4F90C2019072CD4DD0611D4092333605E
:103EE40042F040034FF0FF30A3813EE0254B9C425B
:103EF40001D1AC68EBE7244B9C4208BFEC68E6E7D1
:103F0400580712D5616B41B104F14403994202D0C0
:103F14003046FFF7A1FB00236363A38923F0240346
:103F2400A3810023636023692360A38943F008030A
:103F3400A38123694BB9A38903F42073B3F5007FEC
:103F440003D02146304600F005FAA089B4F90C20CC
:103F540010F001030AD00023A36063695B42A361EC
:103F6400236943B910F08000BAD170BD810758BFEE
:103F74006369A360F4E70020F7E700BF0C000020AA
:103F8400584700087847000838470008062008B555
:103F940000F062FA0120FCF745FE00008A89F8B5BA
:103FA400054610070C4657D44B68002B04DC0B6CF9
:103FB400002B01DC0020F8BDE66A002EFAD00023B5
:103FC40012F480522F682B6032D0606DA3895A0797
:103FD40005D56368C01A636B0BB1236CC01A002348
:103FE4000246E66A2846216AB047431CA38906D1E3
:103FF40029681D292CD8294ACA40D60728D5002269
:1040040062602269D904226004D5421C01D12B6864
:1040140003B96065616B2F600029CBD004F14403C0
:10402400994202D02846FFF717FB00206063C2E7DD
:10403400216A01232846B047411CC7D12B68002BB5
:10404400C4D01D2B01D0162B01D12F60B2E7A38958
:1040540043F04003A381AEE70F69002FAAD0930772
:1040640018BF00230E6808BF4B69F61B0F608B60F6
:10407400002E9FDD33463A462846216AD4F828C0EC
:10408400E047002806DCA3894FF0FF3043F04003EB
:10409400A38190E70744361AEAE700BF01004020F5
:1040A40038B50B6905460C4613B90025284638BDBA
:1040B40018B183690BB900F087F8144B9C421BD1EB
:1040C4006C68B4F90C30002BEFD0626ED00704D4C6
:1040D400990502D4A06D00F015F928462146FFF792
:1040E4005DFF636E0546DA07E0D4A3899B05DDD442
:1040F400A06D00F008F9D9E7054B9C4201D1AC68EA
:10410400DFE7044B9C4208BFEC68DAE75847000835
:104114007847000838470008002310B50446C0E972
:104124000033C0E90433836081814366C2818361C3
:10413400194608225C30FFF711FA054B24626362CA
:10414400044BA362044BE362044B236310BD00BF22
:1041540095440008B7440008EF44000813450008DC
:10416400014900F0AFB800BFA5400008682270B54F
:104174004D1E55430E4605F17401FFF7D5FA04466A
:1041840040B10021C0E900160C30A06005F16802BE
:10419400FFF7E4F9204670BD014800F0B3B800BF52
:1041A40065A10020014800F0AEB800BF65A1002061
:1041B400014800F0A7B800BF66A10020014800F044
:1041C400A2B800BF66A1002010B50446FFF7F0FFB7
:1041D400A3691BB1BDE81040FFF7F0BFC4E9123377
:1041E4002365134B134A1B68A262A34208BF012331
:1041F400204608BFA36100F01FF86060204600F06D
:104204001BF8A060204600F017F800220421E060AB
:104214006068FFF781FF01220921A068FFF77CFF96
:1042240002221221E068FFF777FF0123A361D1E79F
:104234003046000865410008F8B50746FFF7ACFFB3
:104244001E4B1E68B36913B93046FFF7BDFF4836ED
:10425400D6E90134013B03D533680BB33668F7E77D
:10426400B4F90C50D5B9164B04F15800E3606566F7
:1042740000F047F8FFF796FF08222946C4E90155E4
:10428400C4E904552560A56104F15C00FFF766F9F3
:10429400C4E90D55C4E912552046F8BD6834D9E780
:1042A40004213846FFF762FF044630600028D5D168
:1042B400FFF778FF0C233B60EEE700BF30460008B1
:1042C4000100FFFF2DE9F84306468846002700F168
:1042D4004804D4E90195B9F1010905D52468002CF5
:1042E400F7D13846BDE8F883AB89012B07D9B5F976
:1042F4000E30013303D029463046C04707436835A2
:10430400E9E770477047704770B50E46B1F90E1073
:10431400144600291D4696B008DA0022B6F90C307E
:104324002A601A0610D44FF480630EE06A4600F047
:1043340015F90028F1DB019A02F47042A2F500534A
:104344005A425A412A60EEE740230020236016B007
:1043540070BD00008B8973B59D0706460C4607D5D2
:1043640004F14703236023610123636102B070BD3C
:104374006A4601ABFFF7C8FF009905463046FFF7D0
:10438400D3F948B9B4F90C309A05EFD423F00303F8
:1043940043F00203A381E3E70D4BB362A3892060DA
:1043A40043F08003A381009B20616361019B5BB1A7
:1043B4003046B4F90E1000F0E3F828B1A38923F0D5
:1043C400030343F00103A381A0890543A581CDE73D
:1043D40065410008034610B5C9B202449342184629
:1043E40001D1002003E0047801338C42F6D110BDE2
:1043F4000148FFF787BF00BF64A100200148FFF711
:1044040082BF00BF64A100201F2938B504460D46B1
:1044140004D9162303604FF0FF3038BD426C12B14B
:1044240052F821304BB9204600F030F82A460146B4
:104434002046BDE8384000F017B8012B0AD0591CBB
:1044440003D1162303600120E7E70024284642F83D
:10445400254098470020E0E7024B01461868FFF723
:10446400D3BF00BF0C00002038B50023064D04461E
:10447400084611462B60FCF7CDFB431C02D12B6888
:1044840003B1236038BD00BF68A10020FCF7C0BBA6
:1044940010B50C46B1F90E1000F094F80028ABBF2B
:1044A400636DA3891B1823F48053ACBF6365A38198
:1044B40010BD2DE9F0411F468B890546DB050C46EE
:1044C400164605D502230022B1F90E1000F068F853
:1044D400A389324623F48053A38128463B46B4F98A
:1044E4000E10BDE8F04100F017B810B50C46B1F954
:1044F4000E1000F055F8431CA38915BF606523F422
:10450400805343F48053A38118BFA38110BDB1F934
:104514000E1000F013B8000038B5044608461146E2
:104524000022054D2A601A46FCF792FB431C02D177
:104534002B6803B1236038BD68A1002038B500237F
:10454400054D044608462B60FCF7AEFB431C02D124
:104554002B6803B1236038BD68A1002038B500235F
:10456400064D0446084611462B60FCF7A0FB431C8D
:1045740002D12B6803B1236038BD00BF68A10020BD
:1045840038B50023054D044608462B60FCF794FB20
:10459400431C02D12B6803B1236038BD68A10020FD
:1045A40038B50446084611460022054D2A601A46CD
:1045B400FCF784FB431C02D12B6803B1236038BD94
:1045C40068A1002038B50446084611460022054D6E
:1045D4002A601A46FCF72CFB431C02D12B6803B15A
:1045E400236038BD68A10020F8B500BFF8BC08BC42
:1045F4009E467047F8B500BFF8BC08BC9E4670479D
:1046040002030405060708090A0B0C0D0E0F10100F
:10461400000000000000000000000000010203048C
:10462400060708090000000001020304100000202E
:104634005245454E54206D616C6C6F6320737563F5
:10464400636565646564002F6D6E742F776F726B9C
:1046540073706163652F776F726B73706163652F1D
:104664004743432D31302D706970656C696E652F39
:104674006A656E6B696E732D4743432D31302D701F
:104684006970656C696E652D3333385F3230323151
:10469400313031385F313633343531363230332FBF
:1046A4007372632F6E65776C69622F6E65776C69C0
:1046B400622F6C6962632F7374646C69622F726118
:1046C4006E642E63002C2066756E6374696F6E3A97
:1046D4002000617373657274696F6E2022257322E2
:1046E400206661696C65643A2066696C65202225E0
:1046F40073222C206C696E65202564257325730A4A
:1047040000232D302B2000686C4C006566674546FD
:104714004700303132333435363738394142434437
:1047240045460030313233343536373839616263C7
:104734006465660000000000000000000000000046
:104744000000000000000000000000000000000065
:104754000000000000000000000000000000000055
:104764000000000000000000000000000000000045
:104774000000000000000000000000000000000035
:104784000000000000000000000000000000000025
:044794000000000021
:04479800090200080A
:04479C00E50100082B
:1047A00001000000100000000024F40010000020B0
:1047B0000000000058470008784700083847000804
:1047C00000000000000000000000000000000000E9
:1047D00000000000000000000000000000000000D9
:1047E00000000000000000000000000000000000C9
:1047F00000000000000000000000000000000000B9
:1048000000000000000000000000000000000000A8
:04000005080034C1FA
:00000001FF
