:020000040800F2
:1000000000C0002011340008251100082711000845
:10001000291100082B1100082D1100080000000014
:100020000000000000000000000000002F11000888
:1000300031110008000000003311000835110008DC
:10004000593400085934000859340008593400085C
:10005000593400085934000859340008593400084C
:100060005934000859340008593400083D1100087B
:100070004D1100085D110008593400086D11000889
:10008000593400085934000859340008593400081C
:10009000593400085934000859340008593400080C
:1000A00059340008593400085934000859340008FC
:1000B00059340008593400085934000859340008EC
:1000C00059340008593400085934000859340008DC
:1000D00059340008593400085934000859340008CC
:1000E00059340008593400085934000859340008BC
:1000F00059340008593400085934000859340008AC
:10010000593400085934000859340008593400089B
:10011000593400085934000859340008593400088B
:100120007D11000859340008593400088D11000869
:1001300000000000000000000000000000000000BF
:1001400000000000000000000000000000000000AF
:10015000000000000000000000000000000000009F
:10016000000000000000000000000000000000008F
:10017000000000000000000000000000000000007F
:10018000000000000000000000000000000000006F
:10019000000000000000000000000000000000005F
:1001A000000000000000000000000000000000004F
:1001B000000000000000000000000000000000003F
:1001C000000000000000000000000000000000002F
:1001D000000000000000000000000000000000001F
:0401E0005FF8E0F1F3
:1001E40010B5054C237833B9044B13B10448AFF36D
:1001F40000800123237010BD3C0400200000000097
:100204006036000808B5034B1BB103490348AFF33C
:10021400008008BD00000000400400206036000893
:1002240010B504461F4B98420FD01F4B9C4213D06D
:100234001E4B9C4217D01E4B9C421BD01D4B9C4214
:1002440020D01D4B9C4224D010BD18461B680021B1
:10025400596302F0FDFFE8E718461B680021596363
:1002640002F0F6FFE4E718461B680021596302F028
:10027400EFFFE0E718461B6800221A640C2102F025
:10028400E7FFDBE718461B680021596302F0E0FF33
:10029400D7E718461B680022DA63082102F0D8FF6A
:1002A400D2E700BF48A4002070A30020B8A3002018
:1002B40000A4002090A40020D8A400204FF0000C3B
:1002C400BCF1050F44DC70B538E0CEF1030403EB58
:1002D4004404204D45F8232045F824200EF1010E56
:1002E400F44526DBCCEBCC037344C1EBC1042344BB
:1002F400C0EBC0042344ED2BE7DDEE3BE5E74FF014
:10030400000EEDE7134C44F823200EF1010EC5F165
:10031400070373450DDDCCEBCC0373443344C1EBCD
:10032400C1042344C0EBC0042344ED2BEADDEE3BBF
:10033400E8E70CF1010CBCF1050F08DCBCF1020F7D
:10034400DDDDACF1020675004FF0000EDFE770BD95
:10035400704700BFBC9A0020002126E001EB410059
:10036400C2001A4401321548192440F822400133CE
:10037400172B11D8124A52F821004FF400021A41E7
:100384001042EBD001EB4100C2001A4401320B4889
:100394002D2440F82240EAE70131B1F5C87F01D8A5
:1003A4000023E5E710BC70470131B1F5C87F04D8DC
:1003B4000023172BF8D810B4DCE77047580400204A
:1003C400BC9A0020002304E0044A002142F82310D0
:1003D4000133B3F5C87FF7D9704700BFBC9A00203A
:1003E40008B500F00BF800F0DFFC034B00221A669E
:1003F40083F8642008BD00BF00A10020044B002244
:100404001A601A611A621A631A6401221A65704723
:1004140000A10020AF2304E01C4AFF2142F823106E
:100424000133B3F5A87FF7D9AF2126E001EB4100F2
:10043400C2001A4401321648192440F822400133FC
:10044400172B11D8114A52F821004FF400021A4117
:100454001042EBD001EB4100C2001A4401320C48B7
:100464002D2440F82240EAE70131B1F5A87F01D8F4
:100474000023E5E710BC70470131B1F5A87F04D82B
:100484000023172BF8D810B4DCE77047BC9A00207F
:100494005804002040F2511304E01D4AFF2142F8A1
:1004A40023100133B3F5C87FF7D940F2511126E088
:1004B40001EB4100C2001A4401321648192440F8E5
:1004C40022400133172B11D8114A52F821004FF45E
:1004D40000021A411042EBD001EB4100C2001A4461
:1004E40001320C482D2440F82240EAE70131B1F5ED
:1004F400C87F01D80023E5E710BC70470131B1F58E
:10050400C87F04D80023172BF8D810B4DCE7704751
:10051400BC9A00205804002008B503F013F84342A5
:1005240000F0030003F0030358BF584208BD000065
:1005340010B500239D4C84F8663094F864C0BCF177
:10054400050F21D8DFE81CF00C00210057009000B3
:10055400C90003011A019549002088500133DBB218
:10056400042BF7D901F046FA904B1866002283F861
:10057400652083F8662083F8672083F868200122C9
:1005840083F8692002221A6010BD884A92F8673005
:100594001B01D358012B06D0854B1B781BB913467E
:1005A400012283F86620824B01221A707F4B93F854
:1005B40065309342E8D0002307E07C4A180102EB3F
:1005C400031112584A600133DBB2042BF5D901F050
:1005D40011FA764B186693F8672083F86A20012293
:1005E40083F8652083F8672083F8682083F86920FE
:1005F40002221A61C8E718466C4A92F867301B0158
:10060400D358012B03D06A4B1B78012B08D0684BBD
:1006140002221A70654B93F8653093420DD1B3E70B
:100624001346012283F86620F1E7604B010103EBD6
:1006340000125B5853600130C0B20428F5D901F0B0
:10064400D9F95A4B186693F8672083F86B20022275
:1006540083F86520042183F8671083F8681001216A
:1006640083F869101A648FE71946504A92F8673084
:100674001B01D358012B03D04D4B1B78022B08D000
:100684004B4B03221A70494B93F8653093420DD1BA
:100694007AE71346012283F86620F1E7434B080109
:1006A40003EB01121B5853600131C9B20429F5D977
:1006B40001F0A0F93D4B186693F8672083F86C208D
:1006C400032283F86520022283F8672083F86820D8
:1006D400012183F869101A6256E71A46334991F8E2
:1006E40067301B01CB58012B03D0314B1B78032BF4
:1006F40008D02F4B042119702C4B93F865308B4292
:100704000DD141E70B46012183F86610F1E7274B31
:10071400100103EB02111B584B600132D2B2042AC0
:10072400F5D901F067F9214B186693F8672083F82F
:100734006D20042283F86520032283F8672083F860
:100744006820012283F8692002221A631CE7174AF1
:1007540092F867301B01D358012B03D0144B1B783C
:10076400042B0AD0124B05221A70104B93F86530F3
:1007740093423FF409AF00230CE01346012283F8AF
:100784006620EFE7094A180102EB031112584A6088
:100794000133DBB2042BF5D901F02CF9034B1866B5
:1007A40093F8672083F86E20EEE600BF00A10020D6
:1007B40078A1002008B50023204A137001E001331A
:1007C400DBB2042B09D81A011D498A58012AF6D133
:1007D4001A490A7801320A70F1E7194B93F8663026
:1007E40043B9164B1B78052B0ED8DFE803F0090E2E
:1007F40013181D22012383F3138801F06DF9F0E728
:100804000F4B002283F8642008BD0D4B012283F8AE
:100814006420F9E70A4B022283F86420F4E7084BCA
:10082400032283F86420EFE7054B042283F8642055
:10083400EAE7034B052283F86420E5E779A1002069
:1008440000A10020204B1B68012B10D01E4B5B68BD
:10085400012B15D01C4B9B68012B1AD01A4BDB685B
:10086400012B1FD0184B1B69012B24D07047174B49
:1008740093F86730002BE9D1144B01221A60E5E7A5
:10088400124B93F86730012BE4D1104B01221A610B
:10089400E0E70E4B93F86730022BDFD10B4B0122BC
:1008A4001A62DBE7094B93F86730032BDAD1074B65
:1008B40001221A63D6E7054B93F86730042BD5D190
:1008C400024B01221A64D1E77CA1002000A1002080
:1008D400002304E01B4A002142F823100133AE2B0D
:1008E400F8D9002125E001EB4100C2001A4401328D
:1008F4001548192440F822400133172B11D8114A06
:1009040052F821004FF400021A411042EBD001EBDF
:100914004100C2001A4401320B482D2440F8224001
:10092400EAE70131AE2901D80023E6E710BC70479D
:100934000131AE2904D80023172BF9D810B4DEE70F
:10094400704700BFBC9A00205804002010B4002354
:1009540003E02F4A42F823000133AE2BF9D940F2C9
:10096400511303E02A4A42F823000133B3F5C87F48
:10097400F8D900211EE001EB410203EBC20201326F
:100984002448192440F822400133172B11D8204A57
:1009940052F821004FF400021A411042EBD001EB4F
:1009A400410203EBC20201321A482D2440F82240CE
:1009B400EAE70131AE2901D80023E6E740F25111FC
:1009C4001EE001EB410203EBC2020132114819247B
:1009D40040F822400133172B11D80D4A52F8210058
:1009E4004FF400021A411042EBD001EB410203EB39
:1009F400C202013207482D2440F82240EAE70131BF
:100A0400B1F5C87F01D80023E5E710BC704700BFEB
:100A1400BC9A00205804002038B504460D460A4606
:100A240001460020FFF74AFC2A4621460520FFF72D
:100A340045FC2A4621460A20FFF740FC2A46214667
:100A44000F20FFF73BFC2A4621461420FFF736FC13
:100A54002A4621461920FFF731FC2A4621461E204A
:100A6400FFF72CFC00211EE001EB410203EBC20264
:100A740001320F48192440F822400133172B11D8B2
:100A84000C4A52F821004FF400021A411042EBD0F4
:100A940001EB410203EBC202013205482D2440F868
:100AA4002240EAE70131AE2901D80023E6E738BD48
:100AB40058040020BC9A002038B504460D460A4666
:100AC40001460220FFF7FAFB2A4621460720FFF7DA
:100AD400F5FB2A4621460C20FFF7F0FB2A46214667
:100AE4001120FFF7EBFB2A4621461620FFF7E6FB11
:100AF4002A4621461B20FFF7E1FB2A4621462020F7
:100B0400FFF7DCFB00211EE001EB410203EBC20214
:100B140001320F48192440F822400133172B11D811
:100B24000C4A52F821004FF400021A411042EBD053
:100B340001EB410203EBC202013205482D2440F8C7
:100B44002240EAE70131AE2901D80023E6E738BDA7
:100B540058040020BC9A002038B504460D460A46C5
:100B640001460420FFF7AAFB2A4621460920FFF785
:100B7400A5FB2A4621460E20FFF7A0FB2A46214664
:100B84001320FFF79BFB2A4621461820FFF796FB0C
:100B94002A4621461D20FFF791FB2A4621462220A2
:100BA400FFF78CFB00211EE001EB410203EBC202C4
:100BB40001320F48192440F822400133172B11D871
:100BC4000C4A52F821004FF400021A411042EBD0B3
:100BD40001EB410203EBC202013205482D2440F827
:100BE4002240EAE70131AE2901D80023E6E738BD07
:100BF40058040020BC9A002070B506460D46002417
:100C04005F4B1C60FFF71EFE234601E00133DBB29D
:100C1400042B09D81A015B498A58012AF6D158498C
:100C24000A6801320A60F1E7554B1B68022B03D0B6
:100C3400032B05D000241BE0524A02211165F7E77B
:100C4400504B01221A65F5E72846FFF77FFEFFF7B0
:100C540021FCFFF7DFFB002C42D0012C4DD0022CED
:100C640058D0032C63D0042C6ED0052C79D00134D9
:100C7400052C00F38380FFF7A5FBFFF76DFB230131
:100C8400404AD358012BDFD0022B04D0002BE2D1F1
:100C9400FFF71EFEDFE73C4B1B686BB1012B15D041
:100CA400022BD8D129463046FFF756FFFFF7B2FB97
:100CB400354B00221A60CEE729463046FFF7ACFEDA
:100CC400FFF7A8FB304B01221A60C4E729463046DF
:100CD400FFF7F2FEFFF79EFB2B4B02221A60BAE7E6
:100CE40042F29953294A0021294802F087F91E202B
:100CF40000F086FE00F062F8AFE742F29953234A0F
:100D04000021244802F07AF91E2000F079FE00F058
:100D140055F8A4E742F299531C4A00211E4802F0F8
:100D24006DF91E2000F06CFE00F048F899E742F2DD
:100D34009953164A0C21194802F060F91E2000F05C
:100D44005FFE00F03BF88EE742F299530F4A002110
:100D5400134802F053F91E2000F052FE00F02EF862
:100D640083E742F29953094A08210E4802F046F9F2
:100D74001E2000F045FE00F021F878E770BD00BFAA
:100D840074A1002000A1002070A1002058040020BC
:100D940048A40020B8A3002090A4002000A40020B0
:100DA40070A30020D8A40020034B00221A605A60CC
:100DB4009A60DA601A6170477CA1002008B510219E
:100DC400254801F081FA012818D02021224801F099
:100DD4007BFA01281BD040211F4801F075FA012835
:100DE4001ED080211C4801F06FFA012821D0102167
:100DF4001A4801F069FA012824D008BD184B93F869
:100E04006730002BE1D1174B01221A60DDE7144B48
:100E140093F86730032BDED1124B0122DA60DAE754
:100E24000F4B93F86730012BDBD10E4B01225A6034
:100E3400D7E70B4B93F86730022BD8D1094B01222B
:100E44009A60D4E7064B93F86730042BD5D1054B51
:100E540001221A61D1E700BF0008014000100140DF
:100E640000A100207CA1002000B583B0224B5A6968
:100E740042F001025A615A6902F001020092009A9A
:100E84005A6942F002025A615B6903F0020301935A
:100E9400019B002205210B2000F0D8FD0B2000F05F
:100EA4000DFE002205210C2000F0D0FD0C2000F0E6
:100EB40005FE002205210D2000F0C8FD0D2000F0E4
:100EC400FDFD002205210F2000F0C0FD0F2000F0E1
:100ED400F5FD00220521382000F0B8FD382000F08F
:100EE400EDFD002206213B2000F0B0FD3B2000F088
:100EF400E5FD03B05DF804FB0010024030B589B095
:100F0400002404940594069407941C4B9A6942F0B7
:100F140020029A619A6902F020020092009A9A696A
:100F240042F004029A619A6902F004020192019A61
:100F34009A6942F010029A619A6902F010020292D0
:100F4400029A9A6942F008029A619B6903F00803C5
:100F54000393039BF02304930225069504A90848F0
:100F640001F092F810230493059406950DEB030108
:100F7400044801F089F809B030BD00BF00100240F8
:100F8400000801400010014072B6FEE700B591B0C0
:100F94002822002106A802F083FA00230193029379
:100FA400039304930593012206924FF4803307932D
:100FB4000A9202220D920E934FF4E0130F9306A8A7
:100FC40001F0A0F980B90F230193022102910023BB
:100FD40003934FF480620492059301A801F0D2FBBD
:100FE40020B911B05DF804FBFFF7CEFFFFF7CCFF8B
:100FF40008B500F0E1FCFFF7C9FFFFF77FFFFFF73B
:1010040033FF00F0A3FA00F013FB00F065FB00F0DF
:10101400B9FB00F00BFC00F05DFCFFF7E1F9FFF712
:101024007BFAFFF7CBFEFFF7C5FBFFF7C7FEFFF721
:101034007FFA5F210020FFF7DFFDF2E782B00E4B5D
:101044009A6942F001029A619A6902F001020092DF
:10105400009ADA6942F08052DA61DB6903F0805366
:101064000193019B054A536823F0E06343F0007346
:10107400536002B0704700BF0010024000000140FE
:1010840030B589B00446214BDA6942F01002DA61C6
:10109400DB6903F010030193019B02A903A801F08B
:1010A4003DFC069BCBB901F029FC03461848A0FB84
:1010B40003239B0C013B1748174A026040F2E732B6
:1010C400C2604360002303618360836101F016FE04
:1010D400054630B1284609B030BD01F00FFC43008D
:1010E400E4E70C4801F0FAFC05460028F2D136206A
:1010F40000F0E4FC0F2C01D90125EBE70022214686
:10110400362000F0A3FC054B1C60E3E7001002400E
:1011140083DE1B4390A10020001000400800002043
:10112400FEE7FEE7FEE7FEE7FEE77047704770471D
:1011340008B500F053FC08BD08B5024800F02EFEC7
:1011440008BD00BFA4A2002008B5024800F026FE96
:1011540008BD00BFD8A1002008B5024800F01EFE5B
:1011640008BD00BF60A2002008B5024800F016FECA
:1011740008BD00BF1CA2002008B5024800F00EFE06
:1011840008BD00BF2CA3002008B5024800F006FEED
:1011940008BD00BFE8A200207047000010B586B06B
:1011A400044603687C4A934212D0B3F1804F34D092
:1011B4007A4A934257D07A4A93427BD0794A9342EF
:1011C40000F09D80784A934200F0BE8006B010BDC6
:1011D400764B9A6942F400629A619B6903F4006356
:1011E4000093009B7248734B0360102343600023F9
:1011F40083608022C2604FF4007202614FF4006287
:1012040042618361C36100F08FFC18B9684B63626B
:101214005C62DBE7FFF7B8FEF8E703F50433DA694D
:1012240042F00102DA61DB6903F001030193019BDF
:101234006148624B03601023436000238360802273
:10124400C2604FF4007202614FF400624261836134
:10125400C36100F069FC18B9574B63625C62B5E77F
:10126400FFF792FEF8E7514BDA6942F00202DA61C5
:10127400DB6903F002030293029B5148514B036064
:1012840010234360002383608022C2604FF4007205
:1012940002614FF4006242618361C36100F044FC67
:1012A40028B9474B23635C6223625C628EE7FFF7D5
:1012B4006BFEF6E73D4BDA6942F00402DA61DB6962
:1012C40003F004030393039B3F48404B0360102344
:1012D4004360002383608022C2604FF40072026185
:1012E4004FF4006242618361C36100F01DFC18B9D0
:1012F400354B63625C6269E7FFF746FEF8E72B4B08
:10130400DA6942F00802DA61DB6903F00803049346
:10131400049B2F482F4B03601023436000238360FA
:101324008022C2604FF4007202614FF40062426195
:101334008361C36100F0F8FB18B9254B63625C62FA
:1013440044E7FFF721FEF8E7184B9A6942F400528C
:101354009A619B6903F400530593059B1E481F4B38
:10136400036010234360002383608022C2604FF433
:10137400007202614FF4006242618361C36100F054
:10138400D3FB28B9144BE3625C6223625C621DE701
:10139400FFF7FAFDF6E700BF002C0140000400400F
:1013A40000080040000C00400034014000100240DE
:1013B400D8A100201C0002401CA2002058000240BA
:1013C40060A2002030000240A4A2002008000240D5
:1013D400E8A20020580402402CA300200804024084
:1013E40000B58BB000230693079308930993036811
:1013F4004C4A934211D0B3F1804F23D04A4A9342CE
:101404003FD04A4A93424FD0494A934260D0494A16
:10141400934271D00BB05DF804FB474B9A6942F0DC
:1014240004029A619B6903F004030093009B4FF448
:101434008073069302230793099306A93F4800F09B
:1014440023FEE7E703F504339A6942F004029A6144
:101454009B6903F004030193019B4FF4004306933B
:1014640002230793099306A9344800F00DFE344A79
:10147400536823F4407343F0E06343F48073536090
:10148400C8E72D4B9A6942F008029A619B6903F000
:1014940008030293029B022306930793099306A968
:1014A400284800F0F1FDB5E7234B9A6942F00802A1
:1014B4009A619B6903F008030393039B40230693FB
:1014C40002230793099306A91E4800F0DDFDA1E756
:1014D400194B9A6942F004029A619B6903F0040370
:1014E4000493049B0123069302230793099306A9FB
:1014F400124800F0C9FD8DE70F4B9A6942F01002C3
:101504009A619B6903F010030593059B4FF4807364
:10151400069302230793099306A90B4800F0B4FD30
:1015240078E700BF002C01400004004000080040A0
:10153400000C00400034014000100240000801404B
:1015440000000140000C01400010014010B596B0AD
:1015540000241294139414941594109411940994DF
:101564000A940B940C940D940E940F94202221460B
:1015740001A801F095FF2C482C4B03604460846063
:101584005923C36004614461846101F0B7FB0028FE
:1015940037D14FF48053129312A9234801F0B2FCBF
:1015A400002831D1204801F0D5FB00282FD1002399
:1015B4001093119310A91C4801F0C0FE50BB602386
:1015C400099300220A920B920C920D920E920F92A2
:1015D40009A9154801F022FCF8B9002301930293EC
:1015E4000393049305934FF400520692089301A9C0
:1015F4000D4801F0E1FE98B90B48FFF7F1FE16B073
:1016040010BDFFF7C1FCC4E7FFF7BEFCCAE7FFF754
:10161400BBFCCCE7FFF7B8FCD1E7FFF7B5FCDCE790
:10162400FFF7B2FCE8E700BF70A30020002C0140E4
:1016340000B58FB000230A930B930C930D9308937A
:1016440009930193029303930493059306930793D9
:1016540020484FF080420260436083605922C26098
:101664000361836101F04AFB20BB4FF480530A936A
:101674000AA9184801F046FCF8B9164801F06AFBBB
:10168400F0B900230893099308A9124801F056FE03
:10169400C8B960230193002202920392059201A922
:1016A4000C4801F0BBFB88B90A48FFF799FE0FB05C
:1016B4005DF804FBFFF768FCD7E7FFF765FCDCE7A0
:1016C400FFF762FCDDE7FFF75FFCE2E7FFF75CFC96
:1016D400EAE700BFB8A3002000B58FB000230A9347
:1016E4000B930C930D930893099301930293039323
:1016F40004930593069307932048214A02604360AC
:1017040083605922C2600361836101F0F7FA28BB48
:101714004FF480530A930AA9184801F0F3FB00BB65
:10172400164801F017FBF8B900230893099308A998
:10173400124801F003FED0B9602301930023029301
:10174400039305930C2201A90C4801F067FB88B9A7
:101754000A48FFF745FE0FB05DF804FBFFF714FCE1
:10176400D6E7FFF711FCDBE7FFF70EFCDCE7FFF73A
:101774000BFCE1E7FFF708FCEAE700BF00A4002048
:101784000004004000B58FB000230A930B930C9320
:101794000D93089309930193029303930493059380
:1017A400069307931F48204A0260436083605922CE
:1017B400C2600361836101F0A1FA20BB4FF480533E
:1017C4000A930AA9174801F09DFBF8B9154801F0DE
:1017D400C1FAF0B900230893099308A9114801F04C
:1017E400ADFDC8B9602301930022029203920592D1
:1017F40001A90C4801F012FB88B90A48FFF7F0FD73
:101804000FB05DF804FBFFF7BFFBD7E7FFF7BCFBA6
:10181400DCE7FFF7B9FBDDE7FFF7B6FBE2E7FFF72D
:10182400B3FBEAE748A400200008004000B58FB0ED
:1018340000230A930B930C930D930893099301933C
:101844000293039304930593069307931F48204A36
:101854000260436083605922C2600361836101F0C6
:101864004DFA20BB4FF480530A930AA9174801F09C
:1018740049FBF8B9154801F06DFAF0B90023089353
:10188400099308A9114801F059FDC8B960230193CF
:10189400002202920392059201A90C4801F0BEFABB
:1018A40088B90A48FFF79CFD0FB05DF804FBFFF709
:1018B4006BFBD7E7FFF768FBDCE7FFF765FBDDE7CA
:1018C400FFF762FBE2E7FFF75FFBEAE790A4002083
:1018D400000C004010B596B0002412941394149494
:1018E40015941094119409940A940B940C940D94E7
:1018F4000E940F942022214601A801F0D1FD2C481A
:101904002C4B0360446084605923C36004614461C8
:10191400846101F0F3F9002838D14FF48053129315
:1019240012A9234801F0EEFA002832D1204801F030
:1019340011FA002830D100231093119310A91C48E8
:1019440001F0FCFC58BB6023099300230A930B931A
:101954000C930D930E930F93082209A9144801F0D8
:101964005DFAF8B90023019302930393049305935A
:101974004FF400520692089301A90D4801F01CFD92
:1019840098B90B48FFF72CFD16B010BDFFF7FCFA11
:10199400C3E7FFF7F9FAC9E7FFF7F6FACBE7FFF772
:1019A400F3FAD0E7FFF7F0FADCE7FFF7EDFAE8E740
:1019B400D8A400200034014008B5074A136843F056
:1019C40010031360032000F02FF80F20FFF758FBDB
:1019D400FFF734FB002008BD00200240034A1168D1
:1019E400034B1B780B441360704700BF20A50020F5
:1019F40004000020014B1868704700BF20A5002098
:101A040038B50446FFF7F6FF0546B4F1FF3F02D0B0
:101A1400044B1B781C44FFF7EDFF401BA042FAD394
:101A240038BD00BF04000020074AD36823F4E063F4
:101A34001B041B0C000200F4E060034343F0BF638B
:101A440043F40033D360704700ED00E000B5194B58
:101A5400DB68C3F30223C3F1070CBCF1040F28BFF6
:101A64004FF0040C03F1040EBEF1060F18D9033B2A
:101A74004FF0FF3E0EFA0CFC21EA0C0199400EFADD
:101A840003F322EA0303194300280BDB0901C9B25B
:101A940000F1604000F5614080F800135DF804FB3C
:101AA4000023E5E700F00F000901C9B2024B195405
:101AB400F4E700BF00ED00E014ED00E0002807DBD0
:101AC40000F01F02400901239340024A42F82030EB
:101AD400704700BF00E100E0BFF34F8F0549CA68BB
:101AE40002F4E062044B1343CB60BFF34F8F00BF9B
:101AF400FDE700BF00ED00E00400FA0530B4012466
:101B0400056CAC40C56B6C60046863604368102B63
:101B140005D0036899600368DA6030BC70470368D5
:101B24009A600368D960F8E700283AD010B40246F6
:101B340000681D4B984229D81C4B03441C49A1FB47
:101B440003131B099B0013641A4BD363022382F80B
:101B54002130016821F47F5121F0300153689468E9
:101B64002343D46823431469234354692343946966
:101B74002343D46923430B43036000209063012370
:101B840082F8213082F8200010BC70470A4B0344CD
:101B94000749A1FB03131B099B001364074BD36381
:101BA400D4E70120704700BF07040240F8FFFDBFDF
:101BB400CDCCCCCC00000240F8FBFDBF00040240B9
:101BC40038B5044690F82000012831D0012084F86B
:101BD400200094F82100012804D0002384F8203048
:101BE400022038BD022084F821000020A06325686B
:101BF400286820F0010028602046FFF77FFFE36A91
:101C04005BB12268136843F00E0313602268136803
:101C140043F0010313600020E3E72268136823F014
:101C2400040313602268136843F00A031360EDE7AA
:101C34000220D6E708B590F82130022B03D0042304
:101C44008363012008BD0268136823F00E03136048
:101C54000268136823F00103136003684B4A93423C
:101C64004ED9783A934224D01432934230D014326D
:101C740093422FD0143293422FD0143293422FD058
:101C8400143293422FD0143293422FD002F5627251
:101C940093422ED0143293422DD0143293422CD03E
:101CA4001432934202D04FF4803203E04FF4805256
:101CB40000E00122364B5A60012380F821300023D2
:101CC40080F82030436B002B5ED098470020B9E7A2
:101CD4001022EFE74FF48072ECE74FF48052E9E70B
:101CE4004FF48032E6E74FF48012E3E74FF080725E
:101CF400E0E70122DEE71022DCE74FF48072D9E747
:101D0400244A934224D01432934225D0143293426D
:101D140024D01432934224D01432934224D0143267
:101D2400934224D01432934224D002F56272934237
:101D340023D01432934222D01432934221D014324D
:101D4400934202D04FF4803203E04FF4805200E01B
:101D54000122114B5A60AFE71022FAE74FF4807268
:101D6400F7E74FF48052F4E74FF48032F1E74FF491
:101D74008012EEE74FF08072EBE70122E9E71022D0
:101D8400E7E74FF48072E4E700205BE7800002405D
:101D940000040240080002400000024038B5C36B52
:101DA4001A6804682568016C04238B40134200F010
:101DB4009B8015F0040F00F09780236813F0200F28
:101DC40003D1236823F00403236003689A4A9342EF
:101DD40046D9783A934224D01432934228D014320C
:101DE400934227D01432934227D01432934227D0FF
:101DF4001432934227D01432934227D002F56272F0
:101E0400934226D01432934225D01432934224D0E4
:101E14001432934202D04FF4802203E04FF4804204
:101E240000E00422854B5A60C36A03B1984738BD69
:101E34004022F7E74FF48062F4E74FF48042F1E781
:101E44004FF48022EEE74FF48002EBE74FF080621C
:101E5400E8E70422E6E74022E4E74FF48062E1E7A2
:101E6400774A934224D01432934225D014329342B9
:101E740024D01432934224D01432934224D0143206
:101E8400934224D01432934224D002F562729342D6
:101E940023D01432934222D01432934221D01432EC
:101EA400934202D04FF4802203E04FF4804200E0DA
:101EB4000422644B5A60B7E74022FAE74FF4806289
:101EC400F7E74FF48042F4E74FF48022F1E74FF450
:101ED4008002EEE74FF08062EBE70422E9E740225C
:101EE400E7E74FF48062E4E702238B40134200F0FB
:101EF400AB8015F0020F00F0A780236813F0200FC9
:101F040006D1236823F00A032360012380F82130DB
:101F14000368494A93424BD9783A934224D0143205
:101F240093422DD0143293422CD0143293422CD0AD
:101F3400143293422CD0143293422CD01432934254
:101F44002CD002F5627293422BD0143293422AD0E1
:101F54001432934229D01432934202D04FF4003207
:101F640003E04FF4005200E00222344B5A60002395
:101F740080F82030836A002B3FF459AF984756E726
:101F84002022F2E74FF40072EFE74FF40052ECE73F
:101F94004FF40032E9E74FF40012E6E74FF0007225
:101FA400E3E70222E1E72022DFE74FF40072DCE7F7
:101FB400234A934224D01432934225D014329342BC
:101FC40024D01432934224D01432934224D01432B5
:101FD400934224D01432934224D002F56272934285
:101FE40023D01432934222D01432934221D014329B
:101FF400934202D04FF4003203E04FF4005200E069
:102004000222104B5A60B2E72022FAE74FF4007222
:10201400F7E74FF40052F4E74FF40032F1E74FF4DE
:102024000012EEE74FF00072EBE70222E9E720220C
:10203400E7E74FF40072E4E7800002400004024046
:102044000800024000000240082303FA01F1114293
:102054003FF4EDAE15F0080F3FF4E9AE236823F02A
:102064000E032360026CC16B012303FA02F24A607F
:10207400836380F82130002380F82030036B002B29
:102084003FF4D5AE9847D2E670B582B00024A4469A
:10209400B0E0874DAA4210D007D9864DAA420CD091
:1020A40005F58035AA4208D013E0A5F58015AA42AB
:1020B40003D005F57025AA4207D18A68002A62D0A8
:1020C400012A5BD04361082403E0A5F58015AA42E8
:1020D400F3D0BEF1FF0F58D80646BEF1FF0F56D815
:1020E4004FEA8C0233680F25954023EA050304FA6E
:1020F40002F2134333604B6813F0805F78D06E4B69
:102104009A6942F001029A619B6903F00103019309
:10211400019B4FEA9C02951C684B53F825600CF018
:1021240003039D000F23AB4026EA0306644B984249
:1021340033D003F58063984200F0988003F5806300
:10214400984200F0958003F58063984200F09280F5
:1021540003F58063984200F08F8003F58063984212
:1021640019D006231AE0CC68B3E7CC680434B0E78E
:10217400CC680834ADE7CC680C34AAE703610824C2
:10218400A7E70024A5E70424A3E7061DA5E7ACF10F
:1021940008029200A6E7052300E00023AB40334386
:1021A4000232464D45F822304B6813F4803F65D027
:1021B400444A136843EA0E0313604B6813F4003F68
:1021C40062D0404A536843EA0E0353604B6813F4E9
:1021D400801F5FD03B4A936843EA0E0393604B68C9
:1021E40013F4001F5CD0374AD36843EA0E03D3606C
:1021F4000CF1010C0A6832FA0CF357D0012303FAEC
:102204000CF302EA030E33EA0202F1D14A68122AFD
:102214003FF63FAF122A3FF65CAF01A555F822F016
:10222400BF2000086B2100087521000887210008E1
:10223400D7200008D7200008D7200008D72000089E
:10224400D7200008D7200008D7200008D72000088E
:10225400D7200008D7200008D7200008D72000087E
:10226400D72000086F2100087B210008012395E78F
:10227400022393E7032391E704238FE7114A1368AA
:1022840023EA0E03136098E70E4A536823EA0E0309
:1022940053609BE70B4A936823EA0E0393609EE71F
:1022A400084AD36823EA0E03D360A1E702B070BDE5
:1022B4000000221000003110001002400000014014
:1022C40000080140000401408368194201D0012044
:1022D400704700207047000082B0084B1B68084A12
:1022E400A2FB03235B0A00FB03F3019300BF019BE2
:1022F4005A1E0192002BF9D102B070470000002051
:10230400D34D6210002800F0F18170B582B004460C
:10231400036813F0010F2CD0994B5B6803F00C0396
:10232400042B1DD0964B5B6803F00C03082B12D0D2
:102334006368B3F5803F41D0002B55D103F180434E
:1023440003F504331A6822F480321A601A6822F4FE
:1023540080221A6037E08A4B5B6813F4803FE7D031
:10236400874B1B6813F4003F03D06368002B00F015
:10237400BF81236813F0020F75D0814B5B6813F0A3
:102384000C0F5FD07E4B5B6803F00C03082B54D01A
:102394002369002B00F08A807A4B01221A60FFF730
:1023A40029FB0546764B1B6813F0020F75D1FFF726
:1023B40021FB401B0228F5D903209EE1704A1368D3
:1023C40043F480331360636843B3FFF713FB05469C
:1023D4006B4B1B6813F4003FCBD1FFF70BFB401B87
:1023E4006428F5D9032088E1B3F5A02F09D0644B04
:1023F4001A6822F480321A601A6822F480221A6061
:10240400E1E703F18043A3F53C331A6842F48022E8
:102414001A601A6842F480321A60D4E7FFF7EAFAC5
:102424000546574B1B6813F4003FA2D0FFF7E2FAAE
:10243400401B6428F5D903205FE1514B5B6813F41A
:10244400803FA5D14E4B1B6813F0020F03D02369C4
:10245400012B40F04F814A4A136823F0F803616965
:1024640043EAC1031360236813F0080F33D0A36950
:10247400002B5CD0434B0122C3F88024FFF7BAFA47
:1024840005463F4B5B6A13F0020F21D1FFF7B2FA06
:10249400401B0228F5D903202FE1394A136823F0A1
:1024A400F803616943EAC1031360DCE7354B00229A
:1024B4001A60FFF79FFA0546314B1B6813F0020FB1
:1024C400D1D0FFF797FA401B0228F5D9032014E175
:1024D4000120FFF701FF236813F0040F00F096803A
:1024E400274BDB6913F0805F34D1254BDA6942F066
:1024F4008052DA61DB6903F080530193019B01256B
:10250400214B1B6813F4807F26D0E368012B3DD058
:10251400002B53D103F1804303F504331A6A22F0EC
:1025240001021A621A6A22F004021A6233E0154B9D
:102534000022C3F88024FFF75DFA0546104B5B6A5E
:1025440013F0020FC7D0FFF755FA401B0228F5D944
:102554000320D2E00025D3E70B4A136843F48073C9
:102564001360FFF747FA0646074B1B6813F4807F96
:10257400CBD1FFF73FFA801B6428F5D90320BCE0D8
:102584000010024000004242007000405F4A136A9B
:1025940043F001031362E36833B3FFF72BFA0646F3
:1025A4005A4B1B6A13F0020F2FD1FFF723FA801B3B
:1025B40041F288339842F3D903209EE0052B09D0D9
:1025C400524B1A6A22F001021A621A6A22F00402B9
:1025D4001A62E0E74D4B1A6A42F004021A621A6A60
:1025E40042F001021A62D6E7FFF704FA0646474BA7
:1025F4001B6A13F0020F08D0FFF7FCF9801B41F2AD
:1026040088339842F3D9032077E0E5B9E369002BD6
:1026140072D03E4A526802F00C02082A56D0022BAD
:1026240017D03B4B00221A66FFF7E4F90446374BF8
:102634001B6813F0007F47D0FFF7DCF9001B02286A
:10264400F5D9032059E0314AD36923F08053D3618B
:10265400DCE72F4B00221A66FFF7CCF905462B4B1B
:102664001B6813F0007F06D0FFF7C4F9401B022853
:10267400F5D9032041E0236AB3F5803F1AD02349FA
:102684004B6823F47413226A606A024313434B6059
:102694001F4B01221A66FFF7ADF904461B4B1B685A
:1026A40013F0007F0ED1FFF7A5F9001B0228F5D91E
:1026B400032022E0154A536823F40033A1680B4336
:1026C4005360DCE7002018E0002016E0012B16D050
:1026D4000E4B5B6803F48031226A914211D103F4FA
:1026E4007013626A93420ED1002006E00120704705
:1026F400012002E0012000E0002002B070BD0120B2
:10270400FBE70120F9E70120F7E700BF00100240D2
:102714000000424286B0174B0FCB0DF1180C0CE9A8
:102724000F0040F20123ADF80430134B5B6803F053
:102734000C02082A02D0114806B07047C3F3834242
:1027440018326A4412F8100C13F4803F0DD00A4B6F
:102754005B68C3F3404318336B4413F8143C074AD3
:1027640002FB00F0B0FBF3F0E6E7054B03FB00F0DF
:10277400E2E700BF903600080010024000127A0021
:1027840000093D00002800F0A08070B50D46044605
:10279400524B1B6803F007038B420BD24F4A13685A
:1027A40023F007030B431360136803F007038B4202
:1027B40040F08D80236813F0020F17D013F0040F3C
:1027C40004D0474A536843F4E0635360236813F02A
:1027D400080F04D0424A536843F460535360404A9C
:1027E400536823F0F003A1680B435360236813F08C
:1027F400010F31D06368012B20D0022B25D0384A39
:10280400126812F0020F64D035494A6822F00302BC
:1028140013434B60FFF7EEF80646314B5B6803F059
:102824000C036268B3EB820F16D0FFF7E3F8801B4A
:1028340041F288339842F0D9032045E0284A1268CF
:1028440012F4003FE0D101203EE0254A126812F064
:10285400007FD9D1012037E0204B1B6803F0070328
:10286400AB420AD91D4A136823F007032B431360B4
:10287400136803F00703AB422DD1236813F0040F50
:1028840006D0174A536823F4E063E1680B435360AE
:10289400236813F0080F07D0114A536823F46053D8
:1028A400216943EAC1035360FFF734FF0C4B5B68B3
:1028B400C3F303130B4AD35CD8400B4B18600B4B88
:1028C4001868FEF7DDFB002070BD01207047012071
:1028D400FAE70120F8E70120F6E700BF00200240F4
:1028E4000010024078360008000000200800002094
:1028F400014B1868704700BF0000002008B5FFF7BF
:10290400F7FF044B5B68C3F30223034AD35CD8404C
:1029140008BD00BF00100240883600080F23036082
:102924000B4B5A6802F0030242605A6802F0F0024C
:1029340082605A6802F4E062C2605B68DB0803F4F8
:10294400E0630361034B1B6803F007030B607047EC
:10295400001002400020024030B4036A23F0010357
:102964000362036A4268846924F073040D682C438B
:1029740023F0020C8B6843EA0C03104DA84203D0E9
:1029840005F50065A84205D123F00803CD682B4363
:1029940023F00403094DA84203D005F50065A842BD
:1029A40005D122F440724D692A438D692A4342605D
:1029B40084614A684263036230BC7047002C014062
:1029C40030B4036A23F480730362036A4268C469FF
:1029D40024F0730C0C6844EA0C0523F400738C682F
:1029E40043EA0423114CA04203D004F50064A0423E
:1029F40006D123F40063CC6843EA042323F4806300
:102A04000A4CA04203D004F50064A04207D122F48A
:102A140040524C6942EA04128C6942EA0412426050
:102A2400C5614A68C263036230BC7047002C014030
:102A340030B4036A23F480530362036A4468C269AE
:102A440022F4E6420D6842EA052223F400538D681D
:102A540043EA0533094DA84203D005F50065A842B1
:102A640004D124F480444D6944EA85144460C2616D
:102A74004A680264036230BC704700BF002C014006
:102A840010B4036A046A24F001040462846924F023
:102A9400F00C4CEA021223F00A030B438261036236
:102AA40010BC704710B4046A24F0100404628469F2
:102AB400036A24F4704C4CEA023223F0A00343EA84
:102AC40001138261036210BC7047836823F07003B2
:102AD4000B4343F0070383607047000090F83D30D8
:102AE400DBB2012B2FD1022380F83D300268D3687A
:102AF40043F00103D3600368154A934218D002F5EA
:102B04000062934214D0B3F1804F11D0A2F59832F1
:102B140093420DD002F58062934209D002F580629F
:102B2400934205D01A6842F001021A6000207047EF
:102B34009A6802F00702062A07D01A6842F00102D6
:102B44001A6000207047012070470020704700BFC2
:102B5400002C0140704710B5446A636A83420ED06A
:102B6400A36A834214D0E36A83421AD0236B83425C
:102B740020D02046FDF754FB0023237710BD01230A
:102B840023778369002BF4D1012384F83E30F0E7E6
:102B9400022323778369002BEBD1012384F83F3090
:102BA400E7E7042323778369002BE2D1012384F828
:102BB4004030DEE7082323778369002BD9D1012332
:102BC40084F84130D5E7704710B5446A636A83429C
:102BD4000BD0A36A834210D0E36A834210D0236BE4
:102BE400834204D10823237701E00123237720467D
:102BF400FFF7E9FF0023237710BD02232377F6E7CD
:102C040004232377F3E7704710B5446A636A834269
:102C14000CD0A36A834213D0E36A834216D0236B99
:102C2400834219D0012384F83D3003E00123237744
:102C340084F83E302046FFF7E6FF0023237710BDDB
:102C440002232377012384F83F30F3E70423237717
:102C5400012384F84030EDE708232377012384F827
:102C64004130E7E70368244A904212D002F500623B
:102C740090420ED0B0F1804F0BD0A2F59832904222
:102C840007D002F58062904203D002F58062904240
:102C940003D123F070034A681343174A904212D0B9
:102CA40002F5006290420ED0B0F1804F0BD0A2F535
:102CB4009832904207D002F58062904203D002F528
:102CC4008062904203D123F44073CA68134323F013
:102CD40080034A69134303608B68C3620B68836291
:102CE400054B984203D003F50063984201D10B6968
:102CF4000363012343617047002C014040B310B5C6
:102D0400044690F83D30F3B1022384F83D30214667
:102D140051F8040BFFF7A6FF012384F8463084F82A
:102D24003E3084F83F3084F8403084F8413084F8F1
:102D3400423084F8433084F8443084F8453084F8D1
:102D44003D30002010BD80F83C30FEF727FADBE769
:102D54000120704740B310B5044690F83D30F3B1FC
:102D6400022384F83D30214651F8040BFFF77AFF23
:102D7400012384F8463084F83E3084F83F3084F8E8
:102D8400403084F8413084F8423084F8433084F889
:102D9400443084F8453084F83D30002010BD80F87C
:102DA4003C30FFF7D7FEDBE70120704730B4036AFD
:102DB40023F010030362036A4468826922F4E64242
:102DC4000D6842EA052223F020038D6843EA0513C7
:102DD400114DA84203D005F50065A84206D123F0A1
:102DE4008003CD6843EA051323F040030A4DA8424B
:102DF40003D005F50065A84207D124F440644D6969
:102E040044EA85048D6944EA8504446082614A6821
:102E14008263036230BC7047002C014038B590F8DF
:102E24003C30012B60D004460D46012380F83C3031
:102E34000C2A1AD8DFE802F0071919191D191919F3
:102E44003119191944000068FFF786FD2268936957
:102E540043F0080393612268936923F004039361A8
:102E64002268936929690B439361002084F83C002C
:102E740038BD0068FFF79AFF2268936943F4006342
:102E840093612268936923F4806393612268936950
:102E9400296943EA01239361E7E70068FFF790FD9E
:102EA4002268D36943F00803D3612268D36923F00D
:102EB4000403D3612268D36929690B43D361D4E73E
:102EC4000068FFF7B5FD2268D36943F40063D3615A
:102ED4002268D36923F48063D3612268D3692969A2
:102EE40043EA0123D361C0E70220C1E710B4846838
:102EF40024F47F4C42EA03220A4342EA0C02826031
:102F040010BC704790F83C30012B66D010B50446D5
:102F1400012380F83C30022380F83D300268936836
:102F240023F47F4323F0770393600B68602B40D036
:102F340022D8402B47D00BD9502B0ED1CA684968F0
:102F44000068FFF79DFD50212068FFF7BEFD04E0F7
:102F5400202B0CD008D9302B09D0012384F83D3024
:102F6400002084F83C0010BD0BB1102BF5D119469C
:102F74002068FFF7AAFDF0E7702B0ED0B3F5005FD1
:102F8400EBD1CB684A6889680068FFF7AFFF226815
:102F9400936843F480439360DFE7CB684A688968A9
:102FA4000068FFF7A3FF2268936843F077039360F8
:102FB400D3E7CA6849680068FFF774FD6021206898
:102FC400FFF783FDC9E7CA6849680068FFF758FD41
:102FD40040212068FFF779FDBFE70220704701F028
:102FE4001F01012303FA01FC036A23EA0C030362B1
:102FF400036A02FA01F10B430362704770B5044699
:1030040016460D4600292DD190F83E00C0B2022884
:1030140014BF00200120002840F00481002D3DD180
:1030240094F83E20D2B2012A14BF00220122002AC1
:1030340000F0FA80002E4DD0002D4FD1022284F8EA
:103044003E200C2D71D8DFE815F059007000700097
:1030540070009E00700070007000B5007000700079
:103064007000CC00042909D008290FD090F8410041
:10307400C0B2022814BF00200120CCE790F83F0022
:10308400C0B2022814BF00200120C4E790F8400019
:10309400C0B2022814BF00200120BCE7042D09D0CF
:1030A400082D0FD094F84120D2B2012A14BF002277
:1030B4000122BCE794F83F20D2B2012A14BF0022B7
:1030C4000122B4E794F84020D2B2012A14BF0022AE
:1030D4000122ACE7002BAFD00120A6E0042D05D0DF
:1030E400082D07D0022284F84120AAE7022284F89E
:1030F4003F20A6E7022284F84020A2E7626A5049F2
:103104009162626A4F49D162626A4F4911632268CF
:1031140034323146606AFEF753FD002840F0868061
:103124002268D36843F40073D360012229462068DF
:10313400FFF755FF2368454A934203D002F5006226
:10314400934203D15A6C42F400425A6423683F4AC2
:1031540093425CD002F50062934258D0B3F1804FA1
:1031640055D0A2F59832934251D002F58062934231
:103174004DD002F58062934249D01A6842F00102B0
:103184001A60002051E0A26A2D499162A26A2D4979
:10319400D162A26A2C491163226838323146A06A8E
:1031A400FEF70EFD002843D12268D36843F4806300
:1031B400D360BAE7E26A22499162E26A2149D162A4
:1031C400E26A2149116322683C323146E06AFEF723
:1031D400F7FC00282ED12268D36843F40063D3603F
:1031E400A3E7226B16499162226B1649D162226BC6
:1031F40015491163226840323146206BFEF7E0FC2A
:10320400D0B92268D36843F48053D3608DE79A68B9
:1032140002F00702062A11D01A6842F001021A606D
:10322400002002E0022000E0012070BD0120FCE744
:103234000120FAE70120F8E70120F6E70020F4E78F
:103244005B2B0008CD2B00080D2C0008002C01403E
:1032540038B504460D460C2910D8DFE801F0070FF5
:103264000F0F320F0F0F3B0F0F0F44000268D3688C
:1032740023F40073D360406AFEF7DCFC0022294685
:103284002068FFF7ACFE23682B4A934234D002F542
:103294000062934230D02368196A41F2111211423C
:1032A40008D1196A40F24442114203D11A6822F04B
:1032B40001021A60002D2ED1012384F83E30002033
:1032C40038BD0268D36823F48063D360806AFEF754
:1032D400B1FCD3E70268D36823F40063D360C06A07
:1032E400FEF7A8FCCAE70268D36823F48053D360CE
:1032F400006BFEF79FFCC1E7196A41F211121142FB
:10330400C9D1196A40F244421142C4D15A6C22F420
:1033140000425A64BFE7042D05D0082D07D00123CD
:1033240084F84130CBE7012384F83F30C7E7012319
:1033340084F84030C3E700BF002C014090F83C30D3
:10334400012B34D010B4012380F83C30022380F8E0
:103354003D3003685A689C6822F0700C0A6842EA9F
:103364000C025A600368134A934212D002F50062B9
:1033740093420ED0B3F1804F0BD0A2F59832934212
:1033840007D002F58062934203D002F58062934233
:1033940004D124F080044A6814439C60012380F81B
:1033A4003D30002380F83C30184610BC70470220A2
:1033B400704700BF002C014090F83C30012B22D014
:1033C400012380F83C30CB6823F440738A681343AC
:1033D40023F480634A68134323F400630A681343A5
:1033E40023F480530A69134323F400534A691343B3
:1033F40023F48043CA69134302685364002380F8AA
:103404003C30184670470220704700000C480D49B4
:103414000D4A002302E0D458C4500433C4188C422B
:10342400F9D30A4A0A4C002301E013600432A24291
:10343400FBD3FDF7B1FE00F00FF8FDF7D9FD70479F
:10344400000000203C040020B43600083C040020A6
:1034540028A50020FEE7000070B50D4E0D4D761B2B
:10346400B61006D0002455F8043B01349847A64210
:10347400F9D1094E094D00F0F1F8761BB61006D0CB
:10348400002455F8043B01349847A642F9D170BD95
:10349400A8360008A8360008B0360008A836000888
:1034A400830730B548D0541E002A3FD00346CAB221
:1034B40001E0013C3AD303F8012B9D07F9D1032C19
:1034C4002DD9CDB245EA05250F2C45EA054536D957
:1034D400A4F1100222F00F0C03F1200EE6444FEA8F
:1034E400121C03F1100242E9045542E9025510325C
:1034F4007245F8D10CF1010214F00C0F03EB021227
:1035040004F00F0C13D0ACF1040323F003030433D1
:10351400134442F8045B9342FBD10CF003042CB136
:10352400CAB21C4403F8012B9C42FBD130BD644653
:103534001346002CF4D1F9E703461446BFE71A46B4
:10354400A446E0E70A4B10B40A4A1C680A49D4E9C5
:103554002A0300FB02F201FB0322A0FB0101431C2E
:1035640042EB0100C4E92A3020F0004010BC70474F
:103574000C0000202DF451582D7F954C024B13B1B3
:10358400024800F005B8704700000000A1350008AB
:10359400002301461A46184600F01AB838B5084BFD
:1035A400084D5B1B9C1007D0043B1D44013C55F89F
:1035B40004399847002CF9D1BDE8384000F054B8DC
:1035C400B4360008B0360008704700BF704700BF2B
:1035D4002DE9F047DFF87CA00646DAF800009846AB
:1035E4000F469146FFF7F0FF1B4B1B68D3F8484189
:1035F40024B365681F2D26DC5EB96B1C0235DAF82E
:103604000000636044F82570FFF7E0FF0020BDE888
:10361400F087012304EB8501C1F88890D4F8882150
:10362400AB401A43022EC4F88821C1F80881E4D1C2
:10363400D4F88C211343C4F88C31DEE703F5A67467
:10364400C3F84841D5E7DAF80000FFF7BFFF4FF0B1
:10365400FF30DCE738040020A4360008F8B500BFCA
:10366400F8BC08BC9E467047F8B500BFF8BC08BC5F
:043674009E467047B7
:10367800000000000000000001020304060708091A
:1036880000000000010203040203040506070809FC
:103698000A0B0C0D0E0F1010000000001000002087
:0836A800813500080902000849
:0436B000E501000828
:1036B4000024F400010000001000000010000020AD
:1036C40000000000FC02002064030020CC03002062
:1036D40000000000000000000000000000000000E6
:1036E40000000000000000000000000000000000D6
:1036F40000000000000000000000000000000000C6
:1037040000000000000000000000000000000000B5
:1037140000000000000000000000000000000000A5
:103724000000000000000000000000000000000095
:103734000000000000000000000000000000000085
:103744000000000000000000000000000000000075
:103754000000000000000000000000000000000065
:103764000000000000000000010000000000000054
:103774000E33CDAB34126DE6ECDE05000B00000019
:103784000000000000000000000000000000000035
:103794000000000000000000000000000000000025
:1037A4000000000000000000000000000000000015
:1037B4000000000000000000000000000000000005
:0C3AE400000000000000000024A50020ED
:0400000508003411AA
:00000001FF
