:020000040800F2
:1000000000C00020412E0008790B00087B0B00087F
:100010007D0B00087F0B0008810B0008000000002A
:10002000000000000000000000000000830B00083A
:10003000850B000800000000870B0008890B0008F2
:10004000892E0008892E0008892E0008892E0008B4
:10005000892E0008892E0008892E0008892E0008A4
:10006000892E0008892E0008892E0008910B0008AF
:10007000A10B0008B10B0008892E0008C10B000875
:10008000892E0008892E0008892E0008892E000874
:10009000892E0008892E0008892E0008892E000864
:1000A000892E0008892E0008892E0008892E000854
:1000B000892E0008892E0008892E0008892E000844
:1000C000892E0008892E0008892E0008892E000834
:1000D000892E0008892E0008892E0008892E000824
:1000E000892E0008892E0008892E0008892E000814
:1000F000892E0008892E0008892E0008892E000804
:10010000892E0008892E0008892E0008892E0008F3
:10011000892E0008892E0008892E0008892E0008E3
:10012000D10B0008892E0008892E0008E10B000879
:1001300000000000000000000000000000000000BF
:1001400000000000000000000000000000000000AF
:10015000000000000000000000000000000000009F
:10016000000000000000000000000000000000008F
:10017000000000000000000000000000000000007F
:10018000000000000000000000000000000000006F
:10019000000000000000000000000000000000005F
:1001A000000000000000000000000000000000004F
:1001B000000000000000000000000000000000003F
:1001C000000000000000000000000000000000002F
:1001D000000000000000000000000000000000001F
:0401E0005FF8E0F1F3
:1001E40010B5054C237833B9044B13B10448AFF36D
:1001F40000800123237010BD9C0400200000000037
:100204005830000808B5034B1BB103490348AFF34A
:10021400008008BD00000000A00400205830000841
:1002240004E0044B43F82020013080B28842F8D324
:10023400704700BF1C9B002010B5964622E000EBDF
:10024400400C03EBCC0C0CF1010C114A192442F8BC
:100254002C4001339BB2172B12D80E4A52F820209F
:100264002EFA03FC12EA0C0FE9D000EB400C03EB6E
:10027400CC0C0CF1010C064A2D2442F82C40E8E782
:10028400013080B2884201D20023E4E710BD00BFF0
:10029400B80400201C9B002038B5054600240AE061
:1002A400042917D0082919D0036800221A6402F01F
:1002B400E7FC0134E4B2042C14D8104B53F82400A6
:1002C400A842F6D10E4B195D0029E9D1036800223A
:1002D4005A63ECE7036800229A63E8E703680022A4
:1002E400DA63E4E7074B9D4200D038BD18461B682B
:1002F4000022DA63082102F0C3FCF6E708000020BC
:100304000000002024A500200022134609E0581E06
:1003140003EB43014FEA810C1449614448720133F1
:100324005BB2042B0CDC042B07D0581C03EB4301F9
:100334004FEA810C0D4961448872002BE7D1EEE746
:100344000A4B04215972002183F83A1007E002EBAA
:1003540042018B0005490020C8540132D2B2042A5C
:10036400F5D9024B9A6CDA64704700BF60A1002093
:1003740082B00C4B93E803000090ADF80410002306
:100384000BE003F108026A4412F8080C03EB430182
:100394008A00054988540133DBB2052BF1D902B038
:1003A400704700BF7030000860A1002008B5024605
:1003B40040F25111AF20FFF733FF4FF4000240F237
:1003C4005111AF20FFF738FF08BD08B5024640F2CF
:1003D400911140F25110FFF723FF4FF4000240F255
:1003E400911140F25110FFF727FF08BD08B5064BE5
:1003F40000229A6483F85420FFF7BAFF00F012FA3F
:10040400FFF782FF08BD00BF60A1002038B50023BC
:100414001C460CE003EB43013A4A12F82120013A4E
:10042400D2B2012A98BF0134E4B20133DBB2042B07
:10043400F0D9344D85F85440002385F8563001F046
:1004440003F8A864CCB92F4B93F85430062B58D03A
:100454002C4B9A6C2C4BA3FB021020F0030101EBF4
:100464009001521A0332A3FB021323F0030101EBA0
:100474009303D21AD2B2002318E000F0E1F995F800
:100484005730224A52F82320002A3AD003EB430380
:10049400012105F82310631885F85430D3E703EBE2
:1004A4004303184A02EB83039B7A0A46511EC9B2DE
:1004B400002AF4D1134903EB430201EB8202507A80
:1004C400947A00EB400201EB8202947203EB430244
:1004D40001EB8202927A02EB420201EB8202507239
:1004E40091F858201AB90A46012182F85810054A91
:1004F40082F8573003EB4303022102F82310936C74
:10050400D36438BD60A10020CDCCCCCCC8A10020E0
:1005140008B5002240F291111046FFF781FE4FF416
:10052400002240F291110020FFF786FE08BD10B5AD
:1005340004460246AF210020FFF772FE224640F235
:10054400911140F25110FFF76BFE4FF40022AF21DE
:100554000020FFF771FE4FF4002240F2911140F2A7
:100564005110FFF769FE10BD2DE9F047824614468D
:1005740000254BE0C6F103077F00BFB21F44BFB2A2
:10058400284840F8234040F827400136F6B2B645E3
:1005940027D301EB0E031344C3EBC3039BB23344D1
:1005A4009BB2ED2BE6D9EE3B9BB2E3E70026EEE7E8
:1005B4001C4840F823400136F6B2C7F107039E42B7
:1005C4000FDACEEBCE03334408F07F0C9C44C2EB2D
:1005D400C203C1EBC1094B446344ED2BE8D9EE3BA4
:1005E400E6E70EF1010E5FFA8EFEBEF1050F0BD8A1
:1005F400BEF1020FDAD9AEF102085FFA88F84FEAC9
:100604004807FFB20026D8E70135EDB2062D07D81A
:10061400CAEBCA02044B13445A5D4FF0000EE4E7E0
:10062400BDE8F0871C9B00204000002008B513465D
:100634000A4601461846FFF797FF4FF40002AF2120
:100644000020FFF7F9FD08BD2DE9F04107460E46ED
:100654006F4B93F85430022B2BD0032B2ED0062B48
:1006640031D06B4A936CD26C9B1A40F64D42934244
:1006740003D8674B93F86130CBB1654B93F8613085
:100684001BB1634B002283F86120614C002384F882
:10069400543094F8573084F86030FFF735FEFFF794
:1006A40037FFFFF765FE00F0BDF8E36CA364002498
:1006B40060E0574A022182F83C10D0E7544A0421F2
:1006C40082F83C10CBE7324640F251110020FFF78C
:1006D400A7FD4FF4000240F251110020FFF7ACFDDA
:1006E40000240BE042F299534A4A4B49095D4B48B6
:1006F40050F8240002F09AF90134E4B2042CF1D940
:100704004FF47A7000F0A6FEFFF7FEFDFFF700FF3E
:100714003046FFF76BFE00240BE042F299533D4A4A
:100724003D49095D3D4850F8240002F07FF9013449
:10073400E4B2042CF1D994E73046FFF7F8FE3046D2
:10074400FFF743FE3046FFF731FE052C4FD042F24F
:100754009953304A3049495D304850F8250002F039
:1007640065F900F06DF81E2000F074FE00F068F8E2
:100774000134E4B2052C48D8002240F2911110460D
:10078400FFF74EFD4FF4000240F291110020FFF7F5
:1007940053FD254604EB44031D4A12F82330012B74
:1007A400CAD0022B04D0002BCFD1FFF7B1FECCE787
:1007B400DFF86C8098F8002031463846FFF736FFA2
:1007C400D8F80030022B10D00133154A136032469A
:1007D40040F29111EF20FFF723FD4FF4000240F2A5
:1007E4009111EF20FFF728FDAFE70023EDE7324634
:1007F40040F291110020FFF713FD4FF4000240F284
:1008040091110020FFF718FDA1E7BDE8F08100BFBA
:1008140060A10020B804002020000020280000204F
:10082400C4A10020002305E0044A002142F823105B
:100834000133DBB2042BF7D9704700BFC8A10020F5
:1008440008B51021184801F057FA012818D02021C2
:10085400154801F051FA012816D04021124801F040
:100864004BFA012814D080210F4801F045FA0128E1
:1008740012D010210D4801F03FFA012810D008BD14
:100884000B4B01221A60E2E7094B0122DA60E4E72C
:10089400074B01225A60E6E7054B01229A60E8E71C
:1008A400034B01221A61EAE70008014000100140ED
:1008B400C8A1002000B583B0224B5A6942F001025E
:1008C4005A615A6902F001020092009A5A6942F090
:1008D40002025A615B6903F002030193019B002247
:1008E40005210B2000F0DCFD0B2000F011FE00229E
:1008F40005210C2000F0D4FD0C2000F009FE00229C
:1009040005210D2000F0CCFD0D2000F001FE002299
:1009140005210F2000F0C4FD0F2000F0F9FD002296
:100924000521382000F0BCFD382000F0F1FD002244
:1009340006213B2000F0B4FD3B2000F0E9FD03B0AC
:100944005DF804FB0010024030B589B00024049423
:100954000594069407941C4B9A6942F020029A610C
:100964009A6902F020020092009A9A6942F0040205
:100974009A619A6902F004020192019A9A6942F01A
:1009840010029A619A6902F010020292029A9A691C
:1009940042F008029A619B6903F008030393039BE6
:1009A400F02304930225069504A9084801F084F86D
:1009B40010230493059406950DEB0301044801F0FC
:1009C4007BF809B030BD00BF0010024000080140B0
:1009D4000010014072B6FEE700B591B02822002154
:1009E40006A802F075FA002301930293039304937B
:1009F4000593012206924FF4803307930A92022250
:100A04000D920E934FF4E0130F9306A801F092F9A0
:100A140080B90F23019302210291002303934FF421
:100A240080620492059301A801F0C4FB20B911B0BF
:100A34005DF804FBFFF7CEFFFFF7CCFF08B500F02D
:100A4400E5FCFFF7C9FFFFF77FFFFFF733FF00F077
:100A5400A7FA00F017FB00F069FB00F0BDFB00F003
:100A64000FFC00F061FCFFF7C1FCFFF7E9FE064C48
:100A74002078FFF7CBFC054B19682078FFF7E4FDDD
:100A8400FFF7DEFEF1E700BF5C0000205800002005
:100A940082B00E4B9A6942F001029A619A6902F09F
:100AA40001020092009ADA6942F08052DA61DB694D
:100AB40003F080530193019B054A536823F0E063DC
:100AC40043F00073536002B0704700BF001002404F
:100AD4000000014030B589B00446214BDA6942F088
:100AE4001002DA61DB6903F010030193019B02A990
:100AF40003A801F02BFC069BCBB901F017FC0346BD
:100B04001848A0FB03239B0C013B1748174A0260BB
:100B140040F2E732C2604360002303618360836173
:100B240001F004FE054630B1284609B030BD01F09D
:100B3400FDFB4300E4E70C4801F0E8FC054600280F
:100B4400F2D1362000F0E4FC0F2C01D90125EBE7AB
:100B540000222146362000F0A3FC054B1C60E3E78D
:100B64000010024083DE1B43DCA100200010004083
:100B740068000020FEE7FEE7FEE7FEE7FEE77047B9
:100B84007047704708B500F053FC08BD08B502482B
:100B940000F01CFE08BD00BFF0A2002008B502480A
:100BA40000F014FE08BD00BF24A2002008B50248CE
:100BB40000F00CFE08BD00BFACA2002008B502483E
:100BC40000F004FE08BD00BF68A2002008B502487A
:100BD40000F0FCFD08BD00BF78A3002008B5024862
:100BE40000F0F4FD08BD00BF34A3002070470000EE
:100BF40010B586B0044603687C4A934212D0B3F120
:100C0400804F34D07A4A934257D07A4A93427BD069
:100C1400794A934200F09D80784A934200F0BE8066
:100C240006B010BD764B9A6942F400629A619B69E2
:100C340003F400630093009B7248734B036010231A
:100C44004360002383608022C2604FF4007202611B
:100C54004FF4006242618361C36100F07DFC18B906
:100C6400684B63625C62DBE7FFF7B4FEF8E703F509
:100C74000433DA6942F00102DA61DB6903F001034B
:100C84000193019B6148624B03601023436000237E
:100C940083608022C2604FF4007202614FF40062EC
:100CA40042618361C36100F057FC18B9574B63621A
:100CB4005C62B5E7FFF78EFEF8E7514BDA6942F064
:100CC4000202DA61DB6903F002030293029B5148DA
:100CD400514B036010234360002383608022C26071
:100CE4004FF4007202614FF4006242618361C36198
:100CF40000F032FC28B9474B23635C6223625C62D8
:100D04008EE7FFF767FEF6E73D4BDA6942F004022F
:100D1400DA61DB6903F004030393039B3F48404B10
:100D2400036010234360002383608022C2604FF479
:100D3400007202614FF4006242618361C36100F09A
:100D44000BFC18B9354B63625C6269E7FFF742FE3E
:100D5400F8E72B4BDA6942F00802DA61DB6903F049
:100D640008030493049B2F482F4B03601023436014
:100D7400002383608022C2604FF4007202614FF44A
:100D8400006242618361C36100F0E6FB18B9254B40
:100D940063625C6244E7FFF71DFEF8E7184B9A694B
:100DA40042F400529A619B6903F400530593059B36
:100DB4001E481F4B0360102343600023836080227E
:100DC400C2604FF4007202614FF4006242618361B9
:100DD400C36100F0C1FB28B9144BE3625C62236277
:100DE4005C621DE7FFF7F6FDF6E700BF002C01404B
:100DF4000004004000080040000C004000340140A2
:100E04000010024024A200201C00024068A200201E
:100E140058000240ACA2002030000240F0A20020A2
:100E24000800024034A300205804024078A30020A4
:100E34000804024000B58BB000230693079308937F
:100E4400099303684C4A934211D0B3F1804F23D0E5
:100E54004A4A93423FD04A4A93424FD0494A934226
:100E640060D0494A934271D00BB05DF804FB474B04
:100E74009A6942F004029A619B6903F004030093A7
:100E8400009B4FF48073069302230793099306A9EA
:100E94003F4800F011FEE7E703F504339A6942F096
:100EA40004029A619B6903F004030193019B4FF4CC
:100EB4000043069302230793099306A9344800F0DC
:100EC400FBFD344A536823F4407343F0E06343F476
:100ED40080735360C8E72D4B9A6942F008029A6107
:100EE4009B6903F008030293029B02230693079372
:100EF400099306A9284800F0DFFDB5E7234B9A695A
:100F040042F008029A619B6903F008030393039B70
:100F14004023069302230793099306A91E4800F071
:100F2400CBFDA1E7194B9A6942F004029A619B69CF
:100F340003F004030493049B012306930223079301
:100F4400099306A9124800F0B7FD8DE70F4B9A6983
:100F540042F010029A619B6903F010030593059B0C
:100F64004FF48073069302230793099306A90B4851
:100F740000F0A2FD78E700BF002C0140000400400F
:100F840000080040000C0040003401400010024002
:100F94000008014000000140000C01400010014025
:100FA40010B596B0002412941394149415941094CC
:100FB400119409940A940B940C940D940E940F9428
:100FC4002022214601A801F083FF2C482C4B03600A
:100FD400446084605923C36004614461846101F006
:100FE400A5FB002837D14FF48053129312A923484C
:100FF40001F0A0FC002831D1204801F0C3FB0028F7
:101004002FD100231093119310A91C4801F0AEFEB8
:1010140050BB6023099300220A920B920C920D920A
:101024000E920F9209A9154801F010FCF8B900239B
:10103400019302930393049305934FF40052069291
:10104400089301A90D4801F0CFFE98B90B48FFF7AA
:10105400F1FE16B010BDFFF7BDFCC4E7FFF7BAFC04
:10106400CAE7FFF7B7FCCCE7FFF7B4FCD1E7FFF71B
:10107400B1FCDCE7FFF7AEFCE8E700BFBCA300204F
:10108400002C014000B58FB000230A930B930C93FE
:101094000D93089309930193029303930493059387
:1010A4000693079320484FF08042026043608360B8
:1010B4005922C2600361836101F038FB20BB4FF405
:1010C40080530A930AA9184801F034FCF8B9164869
:1010D40001F058FBF0B900230893099308A91248BA
:1010E40001F044FEC8B960230193002202920392E6
:1010F400059201A90C4801F0A9FB88B90A48FFF739
:1011040099FE0FB05DF804FBFFF764FCD7E7FFF727
:1011140061FCDCE7FFF75EFCDDE7FFF75BFCE2E781
:10112400FFF758FCEAE700BF04A4002000B58FB025
:1011340000230A930B930C930D9308930993019343
:101144000293039304930593069307932048214A3B
:101154000260436083605922C2600361836101F0CD
:10116400E5FA28BB4FF480530A930AA9184801F002
:10117400E1FB00BB164801F005FBF8B90023089316
:10118400099308A9124801F0F1FDD0B96023019335
:1011940000230293039305930C2201A90C4801F048
:1011A40055FB88B90A48FFF745FE0FB05DF804FB0C
:1011B400FFF710FCD6E7FFF70DFCDBE7FFF70AFCAF
:1011C400DCE7FFF707FCE1E7FFF704FCEAE700BF11
:1011D4004CA400200004004000B58FB000230A9303
:1011E4000B930C930D930893099301930293039328
:1011F40004930593069307931F48204A02604360B3
:1012040083605922C2600361836101F08FFA20BBBD
:101214004FF480530A930AA9174801F08BFBF8B9DD
:10122400154801F0AFFAF0B900230893099308A90F
:10123400114801F09BFDC8B960230193002202927A
:101244000392059201A90C4801F000FB88B90A48F1
:10125400FFF7F0FD0FB05DF804FBFFF7BBFBD7E72A
:10126400FFF7B8FBDCE7FFF7B5FBDDE7FFF7B2FB01
:10127400E2E7FFF7AFFBEAE794A400200008004090
:1012840000B58FB000230A930B930C930D9308932E
:10129400099301930293039304930593069307938D
:1012A4001F48204A0260436083605922C260036180
:1012B400836101F03BFA20BB4FF480530A930AA9DF
:1012C400174801F037FBF8B9154801F05BFAF0B99B
:1012D40000230893099308A9114801F047FDC8B9F0
:1012E40060230193002202920392059201A90C4803
:1012F40001F0ACFA88B90A48FFF79CFD0FB05DF81D
:1013040004FBFFF767FBD7E7FFF764FBDCE7FFF7B6
:1013140061FBDDE7FFF75EFBE2E7FFF75BFBEAE774
:10132400DCA40020000C004010B596B000241294F8
:101334001394149415941094119409940A940B948E
:101344000C940D940E940F942022214601A801F0D0
:10135400BFFD2C482C4B0360446084605923C36058
:1013640004614461846101F0E1F9002838D14FF44B
:101374008053129312A9234801F0DCFA002832D1D9
:10138400204801F0FFF9002830D100231093119375
:1013940010A91C4801F0EAFC58BB60230993002300
:1013A4000A930B930C930D930E930F93082209A9A0
:1013B400144801F04BFAF8B9002301930293039304
:1013C400049305934FF400520692089301A90D4823
:1013D40001F00AFD98B90B48FFF72CFD16B010BDBB
:1013E400FFF7F8FAC3E7FFF7F5FAC9E7FFF7F2FAF0
:1013F400CBE7FFF7EFFAD0E7FFF7ECFADCE7FFF70C
:10140400E9FAE8E724A500200034014008B5074ABA
:10141400136843F010031360032000F02FF800203A
:10142400FFF758FBFFF734FB002008BD0020024003
:10143400034A1168034B1B780B441360704700BFC9
:101444006CA5002064000020014B1868704700BFA1
:101454006CA5002038B50446FFF7F6FF0546B4F145
:10146400FF3F02D0044B1B781C44FFF7EDFF401BE9
:10147400A042FAD338BD00BF64000020074AD368F5
:1014840023F4E0631B041B0C000200F4E06003433C
:1014940043F0BF6343F40033D360704700ED00E0D2
:1014A40000B5194BDB68C3F30223C3F1070CBCF18D
:1014B400040F28BF4FF0040C03F1040EBEF1060F15
:1014C40018D9033B4FF0FF3E0EFA0CFC21EA0C0145
:1014D40099400EFA03F322EA0303194300280BDBB5
:1014E4000901C9B200F1604000F5614080F80013C1
:1014F4005DF804FB0023E5E700F00F000901C9B221
:10150400024B1954F4E700BF00ED00E014ED00E0D5
:10151400002807DB00F01F02400901239340024A20
:1015240042F82030704700BF00E100E030B40124ED
:10153400056CAC40C56B6C60046863604368102B39
:1015440005D0036899600368DA6030BC70470368AB
:101554009A600368D960F8E700283AD010B40246CC
:1015640000681D4B984229D81C4B03441C49A1FB1D
:1015740003131B099B0013641A4BD363022382F8E1
:101584002130016821F47F5121F0300153689468BF
:101594002343D4682343146923435469234394693C
:1015A4002343D46923430B43036000209063012346
:1015B40082F8213082F8200010BC70470A4B0344A3
:1015C4000749A1FB03131B099B001364074BD36357
:1015D400D4E70120704700BF07040240F8FFFDBFB5
:1015E400CDCCCCCC00000240F8FBFDBF000402408F
:1015F40038B5044690F82000012831D0012084F841
:10160400200094F82100012804D0002384F820301D
:10161400022038BD022084F821000020A063256840
:10162400286820F0010028602046FFF77FFFE36A66
:101634005BB12268136843F00E03136022681368D9
:1016440043F0010313600020E3E72268136823F0EA
:10165400040313602268136843F00A031360EDE780
:101664000220D6E708B590F82130022B03D00423DA
:101674008363012008BD0268136823F00E0313601E
:101684000268136823F00103136003684B4A934212
:101694004ED9783A934224D01432934230D0143243
:1016A40093422FD0143293422FD0143293422FD02E
:1016B400143293422FD0143293422FD002F5627227
:1016C40093422ED0143293422DD0143293422CD014
:1016D4001432934202D04FF4803203E04FF480522C
:1016E40000E00122364B5A60012380F821300023A8
:1016F40080F82030436B002B5ED098470020B9E778
:101704001022EFE74FF48072ECE74FF48052E9E7E0
:101714004FF48032E6E74FF48012E3E74FF0807233
:10172400E0E70122DEE71022DCE74FF48072D9E71C
:10173400244A934224D01432934225D01432934243
:1017440024D01432934224D01432934224D014323D
:10175400934224D01432934224D002F5627293420D
:1017640023D01432934222D01432934221D0143223
:10177400934202D04FF4803203E04FF4805200E0F1
:101784000122114B5A60AFE71022FAE74FF480723E
:10179400F7E74FF48052F4E74FF48032F1E74FF467
:1017A4008012EEE74FF08072EBE70122E9E71022A6
:1017B400E7E74FF48072E4E700205BE78000024033
:1017C40000040240080002400000024038B5C36B28
:1017D4001A6804682568016C04238B40134200F0E6
:1017E4009B8015F0040F00F09780236813F0200FFE
:1017F40003D1236823F00403236003689A4A9342C5
:1018040046D9783A934224D01432934228D01432E1
:10181400934227D01432934227D01432934227D0D4
:101824001432934227D01432934227D002F56272C5
:10183400934226D01432934225D01432934224D0BA
:101844001432934202D04FF4802203E04FF48042DA
:1018540000E00422854B5A60C36A03B1984738BD3F
:101864004022F7E74FF48062F4E74FF48042F1E757
:101874004FF48022EEE74FF48002EBE74FF08062F2
:10188400E8E70422E6E74022E4E74FF48062E1E778
:10189400774A934224D01432934225D0143293428F
:1018A40024D01432934224D01432934224D01432DC
:1018B400934224D01432934224D002F562729342AC
:1018C40023D01432934222D01432934221D01432C2
:1018D400934202D04FF4802203E04FF4804200E0B0
:1018E4000422644B5A60B7E74022FAE74FF480625F
:1018F400F7E74FF48042F4E74FF48022F1E74FF426
:101904008002EEE74FF08062EBE70422E9E7402231
:10191400E7E74FF48062E4E702238B40134200F0D0
:10192400AB8015F0020F00F0A780236813F0200F9E
:1019340006D1236823F00A032360012380F82130B1
:101944000368494A93424BD9783A934224D01432DB
:1019540093422DD0143293422CD0143293422CD083
:10196400143293422CD0143293422CD0143293422A
:101974002CD002F5627293422BD0143293422AD0B7
:101984001432934229D01432934202D04FF40032DD
:1019940003E04FF4005200E00222344B5A6000236B
:1019A40080F82030836A002B3FF459AF984756E7FC
:1019B4002022F2E74FF40072EFE74FF40052ECE715
:1019C4004FF40032E9E74FF40012E6E74FF00072FB
:1019D400E3E70222E1E72022DFE74FF40072DCE7CD
:1019E400234A934224D01432934225D01432934292
:1019F40024D01432934224D01432934224D014328B
:101A0400934224D01432934224D002F5627293425A
:101A140023D01432934222D01432934221D0143270
:101A2400934202D04FF4003203E04FF4005200E03E
:101A34000222104B5A60B2E72022FAE74FF40072F8
:101A4400F7E74FF40052F4E74FF40032F1E74FF4B4
:101A54000012EEE74FF00072EBE70222E9E72022E2
:101A6400E7E74FF40072E4E780000240000402401C
:101A74000800024000000240082303FA01F1114269
:101A84003FF4EDAE15F0080F3FF4E9AE236823F000
:101A94000E032360026CC16B012303FA02F24A6055
:101AA400836380F82130002380F82030036B002BFF
:101AB4003FF4D5AE9847D2E670B582B00024A44670
:101AC400B0E0874DAA4210D007D9864DAA420CD067
:101AD40005F58035AA4208D013E0A5F58015AA4281
:101AE40003D005F57025AA4207D18A68002A62D07E
:101AF400012A5BD04361082403E0A5F58015AA42BE
:101B0400F3D0BEF1FF0F58D80646BEF1FF0F56D8EA
:101B14004FEA8C0233680F25954023EA050304FA43
:101B240002F2134333604B6813F0805F78D06E4B3E
:101B34009A6942F001029A619B6903F001030193DF
:101B4400019B4FEA9C02951C684B53F825600CF0EE
:101B540003039D000F23AB4026EA0306644B98421F
:101B640033D003F58063984200F0988003F58063D6
:101B7400984200F0958003F58063984200F09280CB
:101B840003F58063984200F08F8003F580639842E8
:101B940019D006231AE0CC68B3E7CC680434B0E764
:101BA400CC680834ADE7CC680C34AAE70361082498
:101BB400A7E70024A5E70424A3E7061DA5E7ACF1E5
:101BC40008029200A6E7052300E00023AB4033435C
:101BD4000232464D45F822304B6813F4803F65D0FD
:101BE400444A136843EA0E0313604B6813F4003F3E
:101BF40062D0404A536843EA0E0353604B6813F4BF
:101C0400801F5FD03B4A936843EA0E0393604B689E
:101C140013F4001F5CD0374AD36843EA0E03D36041
:101C24000CF1010C0A6832FA0CF357D0012303FAC1
:101C34000CF302EA030E33EA0202F1D14A68122AD3
:101C44003FF63FAF122A3FF65CAF01A555F822F0EC
:101C5400EF1A00089B1B0008A51B0008B71B00080F
:101C6400071B0008071B0008071B0008071B0008C8
:101C7400071B0008071B0008071B0008071B0008B8
:101C8400071B0008071B0008071B0008071B0008A8
:101C9400071B00089F1B0008AB1B0008012395E7E6
:101CA400022393E7032391E704238FE7114A136880
:101CB40023EA0E03136098E70E4A536823EA0E03DF
:101CC40053609BE70B4A936823EA0E0393609EE7F5
:101CD400084AD36823EA0E03D360A1E702B070BDBB
:101CE40000002210000031100010024000000140EA
:101CF40000080140000401408368194201D001201A
:101D0400704700207047000082B0084B1B68084AE7
:101D1400A2FB03235B0A00FB03F3019300BF019BB7
:101D24005A1E0192002BF9D102B0704760000020C6
:101D3400D34D6210002800F0F18170B582B00446E2
:101D4400036813F0010F2CD0994B5B6803F00C036C
:101D5400042B1DD0964B5B6803F00C03082B12D0A8
:101D64006368B3F5803F41D0002B55D103F1804324
:101D740003F504331A6822F480321A601A6822F4D4
:101D840080221A6037E08A4B5B6813F4803FE7D007
:101D9400874B1B6813F4003F03D06368002B00F0EB
:101DA400BF81236813F0020F75D0814B5B6813F079
:101DB4000C0F5FD07E4B5B6803F00C03082B54D0F0
:101DC4002369002B00F08A807A4B01221A60FFF706
:101DD4003BFB0546764B1B6813F0020F75D1FFF7EA
:101DE40033FB401B0228F5D903209EE1704A136897
:101DF40043F480331360636843B3FFF725FB054660
:101E04006B4B1B6813F4003FCBD1FFF71DFB401B4A
:101E14006428F5D9032088E1B3F5A02F09D0644BD9
:101E24001A6822F480321A601A6822F480221A6036
:101E3400E1E703F18043A3F53C331A6842F48022BE
:101E44001A601A6842F480321A60D4E7FFF7FCFA89
:101E54000546574B1B6813F4003FA2D0FFF7F4FA72
:101E6400401B6428F5D903205FE1514B5B6813F4F0
:101E7400803FA5D14E4B1B6813F0020F03D023699A
:101E8400012B40F04F814A4A136823F0F80361693B
:101E940043EAC1031360236813F0080F33D0A36926
:101EA400002B5CD0434B0122C3F88024FFF7CCFA0B
:101EB40005463F4B5B6A13F0020F21D1FFF7C4FACA
:101EC400401B0228F5D903202FE1394A136823F077
:101ED400F803616943EAC1031360DCE7354B002270
:101EE4001A60FFF7B1FA0546314B1B6813F0020F75
:101EF400D1D0FFF7A9FA401B0228F5D9032014E139
:101F04000120FFF701FF236813F0040F00F096800F
:101F1400274BDB6913F0805F34D1254BDA6942F03B
:101F24008052DA61DB6903F080530193019B012540
:101F3400214B1B6813F4807F26D0E368012B3DD02E
:101F4400002B53D103F1804303F504331A6A22F0C2
:101F540001021A621A6A22F004021A6233E0154B73
:101F64000022C3F88024FFF76FFA0546104B5B6A22
:101F740013F0020FC7D0FFF767FA401B0228F5D908
:101F84000320D2E00025D3E70B4A136843F480739F
:101F94001360FFF759FA0646074B1B6813F4807F5A
:101FA400CBD1FFF751FA801B6428F5D90320BCE09C
:101FB4000010024000004242007000405F4A136A71
:101FC40043F001031362E36833B3FFF73DFA0646B7
:101FD4005A4B1B6A13F0020F2FD1FFF735FA801BFF
:101FE40041F288339842F3D903209EE0052B09D0AF
:101FF400524B1A6A22F001021A621A6A22F004028F
:102004001A62E0E74D4B1A6A42F004021A621A6A35
:1020140042F001021A62D6E7FFF716FA0646474B6A
:102024001B6A13F0020F08D0FFF70EFA801B41F26F
:1020340088339842F3D9032077E0E5B9E369002BAC
:1020440072D03E4A526802F00C02082A56D0022B83
:1020540017D03B4B00221A66FFF7F6F90446374BBC
:102064001B6813F0007F47D0FFF7EEF9001B02282E
:10207400F5D9032059E0314AD36923F08053D36161
:10208400DCE72F4B00221A66FFF7DEF905462B4BDF
:102094001B6813F0007F06D0FFF7D6F9401B022817
:1020A400F5D9032041E0236AB3F5803F1AD02349D0
:1020B4004B6823F47413226A606A024313434B602F
:1020C4001F4B01221A66FFF7BFF904461B4B1B681E
:1020D40013F0007F0ED1FFF7B7F9001B0228F5D9E2
:1020E400032022E0154A536823F40033A1680B430C
:1020F4005360DCE7002018E0002016E0012B16D026
:102104000E4B5B6803F48031226A914211D103F4CF
:102114007013626A93420ED1002006E001207047DA
:10212400012002E0012000E0002002B070BD012087
:10213400FBE70120F9E70120F7E700BF00100240A8
:102144000000424286B0174B0FCB0DF1180C0CE97E
:102154000F0040F20123ADF80430134B5B6803F029
:102164000C02082A02D0114806B07047C3F3834218
:1021740018326A4412F8100C13F4803F0DD00A4B45
:102184005B68C3F3404318336B4413F8143C074AA9
:1021940002FB00F0B0FBF3F0E6E7054B03FB00F0B5
:1021A400E2E700BF903000080010024000127A00FD
:1021B40000093D00002800F0A08070B50D460446DB
:1021C400524B1B6803F007038B420BD24F4A136830
:1021D40023F007030B431360136803F007038B42D8
:1021E40040F08D80236813F0020F17D013F0040F12
:1021F40004D0474A536843F4E0635360236813F000
:10220400080F04D0424A536843F460535360404A71
:10221400536823F0F003A1680B435360236813F061
:10222400010F31D06368012B20D0022B25D0384A0E
:10223400126812F0020F64D035494A6822F0030292
:1022440013434B60FFF700F90646314B5B6803F01C
:102254000C036268B3EB820F16D0FFF7F5F8801B0E
:1022640041F288339842F0D9032045E0284A1268A5
:1022740012F4003FE0D101203EE0254A126812F03A
:10228400007FD9D1012037E0204B1B6803F00703FE
:10229400AB420AD91D4A136823F007032B4313608A
:1022A400136803F00703AB422DD1236813F0040F26
:1022B40006D0174A536823F4E063E1680B43536084
:1022C400236813F0080F07D0114A536823F46053AE
:1022D400216943EAC1035360FFF734FF0C4B5B6889
:1022E400C3F303130B4AD35CD8400B4B18600B4B5E
:1022F4001868FEF7EFFB002070BD01207047012035
:10230400FAE70120F8E70120F6E700BF00200240C9
:1023140000100240783000086000002068000020AF
:10232400014B1868704700BF6000002008B5FFF734
:10233400F7FF044B5B68C3F30223034AD35CD84022
:1023440008BD00BF00100240883000080F2303605E
:102354000B4B5A6802F0030242605A6802F0F00222
:1023640082605A6802F4E062C2605B68DB0803F4CE
:10237400E0630361034B1B6803F007030B607047C2
:10238400001002400020024030B4036A23F001032D
:102394000362036A4268846924F073040D682C4361
:1023A40023F0020C8B6843EA0C03104DA84203D0BF
:1023B40005F50065A84205D123F00803CD682B4339
:1023C40023F00403094DA84203D005F50065A84293
:1023D40005D122F440724D692A438D692A43426033
:1023E40084614A684263036230BC7047002C014038
:1023F40030B4036A23F480730362036A4268C469D5
:1024040024F0730C0C6844EA0C0523F400738C6804
:1024140043EA0423114CA04203D004F50064A04213
:1024240006D123F40063CC6843EA042323F48063D5
:102434000A4CA04203D004F50064A04207D122F460
:1024440040524C6942EA04128C6942EA0412426026
:10245400C5614A68C263036230BC7047002C014006
:1024640030B4036A23F480530362036A4468C26984
:1024740022F4E6420D6842EA052223F400538D68F3
:1024840043EA0533094DA84203D005F50065A84287
:1024940004D124F480444D6944EA85144460C26143
:1024A4004A680264036230BC704700BF002C0140DC
:1024B40010B4036A046A24F001040462846924F0F9
:1024C400F00C4CEA021223F00A030B43826103620C
:1024D40010BC704710B4046A24F0100404628469C8
:1024E400036A24F4704C4CEA023223F0A00343EA5A
:1024F40001138261036210BC7047836823F0700388
:102504000B4343F0070383607047000090F83D30AD
:10251400DBB2012B2FD1022380F83D300268D3684F
:1025240043F00103D3600368154A934218D002F5BF
:102534000062934214D0B3F1804F11D0A2F59832C7
:1025440093420DD002F58062934209D002F5806275
:10255400934205D01A6842F001021A6000207047C5
:102564009A6802F00702062A07D01A6842F00102AC
:102574001A6000207047012070470020704700BF98
:10258400002C0140704710B5446A636A83420ED040
:10259400A36A834214D0E36A83421AD0236B834232
:1025A40020D02046FDF778FE0023237710BD0123B9
:1025B40023778369002BF4D1012384F83E30F0E7BC
:1025C400022323778369002BEBD1012384F83F3066
:1025D400E7E7042323778369002BE2D1012384F8FE
:1025E4004030DEE7082323778369002BD9D1012308
:1025F40084F84130D5E7704710B5446A636A834272
:102604000BD0A36A834210D0E36A834210D0236BB9
:10261400834204D10823237701E001232377204652
:10262400FFF7E9FF0023237710BD02232377F6E7A2
:1026340004232377F3E7704710B5446A636A83423F
:102644000CD0A36A834213D0E36A834216D0236B6F
:10265400834219D0012384F83D3003E0012323771A
:1026640084F83E302046FFF7E6FF0023237710BDB1
:1026740002232377012384F83F30F3E704232377ED
:10268400012384F84030EDE708232377012384F8FD
:102694004130E7E70368244A904212D002F5006211
:1026A40090420ED0B0F1804F0BD0A2F598329042F8
:1026B40007D002F58062904203D002F58062904216
:1026C40003D123F070034A681343174A904212D08F
:1026D40002F5006290420ED0B0F1804F0BD0A2F50B
:1026E4009832904207D002F58062904203D002F5FE
:1026F4008062904203D123F44073CA68134323F0E9
:1027040080034A69134303608B68C3620B68836266
:10271400054B984203D003F50063984201D10B693D
:102724000363012343617047002C014040B310B59B
:10273400044690F83D30F3B1022384F83D3021463D
:1027440051F8040BFFF7A6FF012384F8463084F800
:102754003E3084F83F3084F8403084F8413084F8C7
:10276400423084F8433084F8443084F8453084F8A7
:102774003D30002010BD80F83C30FEF739FADBE72D
:102784000120704740B310B5044690F83D30F3B1D2
:10279400022384F83D30214651F8040BFFF77AFFF9
:1027A400012384F8463084F83E3084F83F3084F8BE
:1027B400403084F8413084F8423084F8433084F85F
:1027C400443084F8453084F83D30002010BD80F852
:1027D4003C30FFF7D7FEDBE70120704730B4036AD3
:1027E40023F010030362036A4468826922F4E64218
:1027F4000D6842EA052223F020038D6843EA05139D
:10280400114DA84203D005F50065A84206D123F076
:102814008003CD6843EA051323F040030A4DA84220
:1028240003D005F50065A84207D124F440644D693E
:1028340044EA85048D6944EA8504446082614A68F7
:102844008263036230BC7047002C014038B590F8B5
:102854003C30012B60D004460D46012380F83C3007
:102864000C2A1AD8DFE802F0071919191D191919C9
:102874003119191944000068FFF786FD226893692D
:1028840043F0080393612268936923F0040393617E
:102894002268936929690B439361002084F83C0002
:1028A40038BD0068FFF79AFF2268936943F4006318
:1028B40093612268936923F4806393612268936926
:1028C400296943EA01239361E7E70068FFF790FD74
:1028D4002268D36943F00803D3612268D36923F0E3
:1028E4000403D3612268D36929690B43D361D4E714
:1028F4000068FFF7B5FD2268D36943F40063D36130
:102904002268D36923F48063D3612268D369296977
:1029140043EA0123D361C0E70220C1E710B484680D
:1029240024F47F4C42EA03220A4342EA0C02826006
:1029340010BC704790F83C30012B66D010B50446AB
:10294400012380F83C30022380F83D30026893680C
:1029540023F47F4323F0770393600B68602B40D00C
:1029640022D8402B47D00BD9502B0ED1CA684968C6
:102974000068FFF79DFD50212068FFF7BEFD04E0CD
:10298400202B0CD008D9302B09D0012384F83D30FA
:10299400002084F83C0010BD0BB1102BF5D1194672
:1029A4002068FFF7AAFDF0E7702B0ED0B3F5005FA7
:1029B400EBD1CB684A6889680068FFF7AFFF2268EB
:1029C400936843F480439360DFE7CB684A6889687F
:1029D4000068FFF7A3FF2268936843F077039360CE
:1029E400D3E7CA6849680068FFF774FD602120686E
:1029F400FFF783FDC9E7CA6849680068FFF758FD17
:102A040040212068FFF779FDBFE70220704701F0FD
:102A14001F01012303FA01FC036A23EA0C03036286
:102A2400036A02FA01F10B430362704770B504466E
:102A340016460D4600292DD190F83E00C0B202285A
:102A440014BF00200120002840F00481002D3DD156
:102A540094F83E20D2B2012A14BF00220122002A97
:102A640000F0FA80002E4DD0002D4FD1022284F8C0
:102A74003E200C2D71D8DFE815F05900700070006D
:102A840070009E00700070007000B500700070004F
:102A94007000CC00042909D008290FD090F8410017
:102AA400C0B2022814BF00200120CCE790F83F00F8
:102AB400C0B2022814BF00200120C4E790F84000EF
:102AC400C0B2022814BF00200120BCE7042D09D0A5
:102AD400082D0FD094F84120D2B2012A14BF00224D
:102AE4000122BCE794F83F20D2B2012A14BF00228D
:102AF4000122B4E794F84020D2B2012A14BF002284
:102B04000122ACE7002BAFD00120A6E0042D05D0B4
:102B1400082D07D0022284F84120AAE7022284F873
:102B24003F20A6E7022284F84020A2E7626A5049C7
:102B34009162626A4F49D162626A4F4911632268A5
:102B440034323146606AFEF753FD002840F0868037
:102B54002268D36843F40073D360012229462068B5
:102B6400FFF755FF2368454A934203D002F50062FC
:102B7400934203D15A6C42F400425A6423683F4A98
:102B840093425CD002F50062934258D0B3F1804F77
:102B940055D0A2F59832934251D002F58062934207
:102BA4004DD002F58062934249D01A6842F0010286
:102BB4001A60002051E0A26A2D499162A26A2D494F
:102BC400D162A26A2C491163226838323146A06A64
:102BD400FEF70EFD002843D12268D36843F48063D6
:102BE400D360BAE7E26A22499162E26A2149D1627A
:102BF400E26A2149116322683C323146E06AFEF7F9
:102C0400F7FC00282ED12268D36843F40063D36014
:102C1400A3E7226B16499162226B1649D162226B9B
:102C240015491163226840323146206BFEF7E0FCFF
:102C3400D0B92268D36843F48053D3608DE79A688F
:102C440002F00702062A11D01A6842F001021A6043
:102C5400002002E0022000E0012070BD0120FCE71A
:102C64000120FAE70120F8E70120F6E70020F4E765
:102C74008B250008FD2500083D260008002C014096
:102C840038B504460D460C2910D8DFE801F0070FCB
:102C94000F0F320F0F0F3B0F0F0F44000268D36862
:102CA40023F40073D360406AFEF7DCFC002229465B
:102CB4002068FFF7ACFE23682B4A934234D002F518
:102CC4000062934230D02368196A41F21112114212
:102CD40008D1196A40F24442114203D11A6822F021
:102CE40001021A60002D2ED1012384F83E30002009
:102CF40038BD0268D36823F48063D360806AFEF72A
:102D0400B1FCD3E70268D36823F40063D360C06ADC
:102D1400FEF7A8FCCAE70268D36823F48053D360A3
:102D2400006BFEF79FFCC1E7196A41F211121142D0
:102D3400C9D1196A40F244421142C4D15A6C22F4F6
:102D440000425A64BFE7042D05D0082D07D00123A3
:102D540084F84130CBE7012384F83F30C7E70123EF
:102D640084F84030C3E700BF002C014090F83C30A9
:102D7400012B34D010B4012380F83C30022380F8B6
:102D84003D3003685A689C6822F0700C0A6842EA75
:102D94000C025A600368134A934212D002F500628F
:102DA40093420ED0B3F1804F0BD0A2F598329342E8
:102DB40007D002F58062934203D002F58062934209
:102DC40004D124F080044A6814439C60012380F8F1
:102DD4003D30002380F83C30184610BC7047022078
:102DE400704700BF002C014090F83C30012B22D0EA
:102DF400012380F83C30CB6823F440738A68134382
:102E040023F480634A68134323F400630A6813437A
:102E140023F480530A69134323F400534A69134388
:102E240023F48043CA69134302685364002380F87F
:102E34003C30184670470220704700000C480D498A
:102E44000D4A002302E0D458C4500433C4188C4201
:102E5400F9D30A4A0A4C002301E013600432A24267
:102E6400FBD3FDF7C3FE00F00FF8FDF7E7FD704755
:102E7400000000209C040020B43000089C040020C2
:102E840074A50020FEE7000070B50D4E0D4D761BB5
:102E9400B61006D0002455F8043B01349847A642E6
:102EA400F9D1094E094D00F0D5F8761BB61006D0BD
:102EB400002455F8043B01349847A642F9D170BD6B
:102EC400A8300008A8300008B0300008A830000876
:102ED400830730B548D0541E002A3FD00346CAB2F7
:102EE40001E0013C3AD303F8012B9D07F9D1032CEF
:102EF4002DD9CDB245EA05250F2C45EA054536D92D
:102F0400A4F1100222F00F0C03F1200EE6444FEA64
:102F1400121C03F1100242E9045542E90255103231
:102F24007245F8D10CF1010214F00C0F03EB0212FC
:102F340004F00F0C13D0ACF1040323F003030433A7
:102F4400134442F8045B9342FBD10CF003042CB10C
:102F5400CAB21C4403F8012B9C42FBD130BD644629
:102F64001346002CF4D1F9E703461446BFE71A468A
:102F7400A446E0E7024B13B1024800F005B87047DD
:102F840000000000992F0008002301461A46184645
:102F940000F01AB838B5084B084D5B1B9C1007D0DD
:102FA400043B1D44013C55F804399847002CF9D1E1
:102FB400BDE8384000F054B8B4300008B030000820
:102FC400704700BF704700BF2DE9F047DFF87CA0D1
:102FD4000646DAF8000098460F469146FFF7F0FFE0
:102FE4001B4B1B68D3F8484124B365681F2D26DCAE
:102FF4005EB96B1C0235DAF80000636044F8257092
:10300400FFF7E0FF0020BDE8F087012304EB850112
:10301400C1F88890D4F88821AB401A43022EC4F832
:103024008821C1F80881E4D1D4F88C211343C4F871
:103034008C31DEE703F5A674C3F84841D5E7DAF826
:103044000000FFF7BFFF4FF0FF30DCE798040020DB
:10305400A4300008F8B500BFF8BC08BC9E46704711
:0C306400F8B500BFF8BC08BC9E467047E1
:10307000000000000001000000000000000000004F
:10308000010203040607080900000000010203040E
:1030900002030405060708090A0B0C0D0E0F101099
:0830A000000000007000002098
:0830A800792F0008090200085D
:0430B000E50100082E
:1030B4000000000C0008000094A40020BCA3002021
:1030C40004A400204CA40020DCA4002024A500209B
:1030D4000000000C0008000094A4002004A40020B8
:1030E400DCA400204CA40020BCA3002024A50020C4
:1030F40000050A0F14191E02070C11161B200409DF
:103104000E13181D22000000000F00000100000033
:103114000024F40001000000100000000000000082
:10312400000000005C030020C40300202C040020E5
:10313400000000000000000000000000000000008B
:10314400000000000000000000000000000000007B
:10315400000000000000000000000000000000006B
:10316400000000000000000000000000000000005B
:10317400000000000000000000000000000000004B
:10318400000000000000000000000000000000003B
:10319400000000000000000000000000000000002B
:1031A400000000000000000000000000000000001B
:1031B400000000000000000000000000000000000B
:1031C40000000000000000000100000000000000FA
:1031D4000E33CDAB34126DE6ECDE05000B000000BF
:1031E40000000000000000000000000000000000DB
:1031F40000000000000000000000000000000000CB
:1032040000000000000000000000000000000000BA
:1032140000000000000000000000000000000000AA
:0C354400000000000000000070A5002046
:0400000508002E4180
:00000001FF
