:020000040800F2
:10000000E0A50020450100088B1C000885170008AA
:10001000891C0008B1010008C5200008000000008C
:100020000000000000000000000000008F1C00081D
:1000300027020008000000008D1C0008911C000829
:100040005F0100085F0100085F0100085F01000810
:100050005F0100085F0100085F0100085F01000800
:100060005F0100085F0100085F010008B50100089A
:10007000C1010008CD0100085F010008D901000896
:100080005F0100085F0100085F0100085F010008D0
:100090005F0100085F0100085F0100085F010008C0
:1000A0005F0100085F0100085F0100085F010008B0
:1000B0005F0100085F0100085F0100085F010008A0
:1000C0005F0100085F0100085F0100085F01000890
:1000D0005F0100085F0100085F0100085F01000880
:1000E0005F0100085F0100085F0100085F01000870
:1000F0005F0100085F0100085F0100085F01000860
:100100005F0100085F0100085F0100085F0100084F
:100110005F0100085F0100085F0100085F0100083F
:10012000E50100085F0100085F010008F101000817
:10013000DFF80CD000F02AF80048004759260008E4
:10014000E0A500200648804706480047FEE7FEE796
:10015000FEE7FEE7FEE7FEE7FEE7FEE7FEE7FEE777
:10016000F31C000831010008D2B201E000F8012BB5
:10017000491EFBD270470022F6E710B513460A4627
:1001800004461946FFF7F0FF204610BD064C074D08
:1001900006E0E06840F0010394E807009847103457
:1001A000AC42F6D3FFF7C8FFE0260008002700089E
:1001B000FEE70000014800F0D1B80000F402002082
:1001C000014800F0CBB8000028020020014800F0F0
:1001D000C5B80000B0020020014800F0BFB8000020
:1001E0006C020020014800F0B9B800007C03002038
:1001F000014800F0B3B800003803002030B590F893
:1002000040500124AC40C56B6C6004686360436877
:10021000102B036803D099600068C26030BD9A60FB
:100220000068C16030BD704772B6FEE72DE9F05F2F
:1002300090F821100024022903D0042181630124B5
:1002400085E001680A6822F00E020A6001680A6807
:1002500022F001020A603F4E3E4FB215DFF8F4C0B3
:10026000DFF8F090DFF8ECA0DFF8E8B0DFF8E4E0CA
:100270000168783F13011502ACF1640CA9F1500933
:10028000AAF13C0AABF1280BAEF1140E4FF4801822
:10029000B14227D9B9420ED0614512D049451DD08F
:1002A000514518D0594518D0714501D1424615E045
:1002B000294EB14201D1012210E0274E1436B1423D
:1002C00001D110220AE0244E2836B14206D0224A3B
:1002D0003C32914201D11A4600E02A461E49091FCC
:1002E0000A602BE0B94213D0614517D0494522D0AE
:1002F00051451DD059451DD0714501D142461AE0E6
:10030000B14202D14FF0807215E0134EB14201D1DB
:10031000012210E0104E1436B14201D110220AE041
:100320000D4E2836B14206D00B4A3C32914201D1E3
:100330001A4600E02A46074980394A60012180F8C0
:100340002110002180F82010416B01B18847204620
:10035000BDE8F09F80000240080402402DE9F05FF4
:10036000C16B0A6801680B68046C4FF0040808FA56
:1003700004F8844D844E854FDFF814C2DFF81492E0
:10038000DFF814A2DFF814B2DFF814E218EA020F63
:1003900065D05FEA437862D50A68920603D40A689A
:1003A00022F004020A60DFF8F0814FF480620168F5
:1003B00008F1140813011402414524D9A9420DD0B3
:1003C000B1420FD0B9421AD0614515D0494515D078
:1003D000514501D1120312E0594501D104220EE02A
:1003E000714501D140220AE06D4D1435A94206D075
:1003F0006B4A2832914201D11A4600E022466749F1
:10040000091F0A6029E0A94213D0B14215D0B942B0
:1004100020D061451BD049451BD0514502D14FF436
:10042000800217E0414502D14FF0806212E0594549
:1004300001D104220EE0714501D140220AE0584D5D
:100440001435A94206D0564A2832914201D11A46A3
:1004500000E022464B4908394A60C16A71E04FF01A
:10046000020808FA04F818EA020F70D05FEA8378ED
:100470006DD50A68920606D40A6822F00A020A605C
:10048000012180F82110DFF810814FF4007201681B
:1004900008F1140813011402414524D9A9420DD0D2
:1004A000B1420FD0B9421AD0614515D0494515D097
:1004B000514501D1120312E0594501D102220EE04B
:1004C000714501D120220AE0354D1435A94206D0EC
:1004D000334A2832914201D11A4600E022462F4980
:1004E000091F0A6029E0A94213D0B14215D0B942D0
:1004F00020D061451BD049451BD0514502D14FF456
:10050000001217E0414502D14FF0007212E0594548
:1005100001D102220EE0714501D120220AE0204DD6
:100520001435A94206D01E4A2832914201D11A46FA
:1005300000E02246134908394A60002180F8201063
:10054000816A00291CD0BDE8F05F0847FFE7082555
:10055000A540154214D01A0712D50A6822F00E02DF
:100560000A6090F84020C36B012101FA02F25A6040
:10057000816380F82110002180F82010016BE0E7F2
:10058000BDE8F09F080002401C000240300002401D
:1005900044000240580002406C000240080402403F
:1005A0001C04024030B560B11A4B026814219A4213
:1005B00009D2194B1344B3FBF1F1890001641749C7
:1005C0000AE0012030BD134B5B421344B3FBF1F151
:1005D000890001640F490839C163022180F82110A4
:1005E000136843F6F0718B43F0E901142143D0E91D
:1005F00002452C4321430469214344692143846912
:1006000021431943116000214163012242770177A0
:10061000084630BD08040240F8FFFDBF000002405C
:1006200070B5044690F82000002501280CD0012068
:1006300084F8200094F821600020012E06D084F870
:1006400020000225284670BD022070BD022684F8D5
:100650002160A0632068066826F001060660204637
:10066000FFF7CCFDE06A00282068016802D041F065
:100670000E0106E021F0040101602068016841F0EC
:100680000A0101602068016841F001010160D9E7B9
:1006900070B5044600F010F90546601C02D004480D
:1006A0000078044400F008F9401BA042FAD370BD62
:1006B000680000202DE9F84FDFF8C891002409F107
:1006C000040A0AF1040B23460F270BF1040ED1E0B4
:1006D0000125A54006EA0502AA4276D1DFF8A8C1A5
:1006E0004E68A6EB0C0866452BD00DDC032E34D0EB
:1006F00005DC36B3012E19D0022E2FD11BE0112EAE
:1007000016D0122E2AD119E0B8F5881F19D006DCB0
:10071000B8F5803F15D0B8F5801F1FD111E0B8F5AE
:10072000001F0ED0B8F5041F18D10AE0CB6815E001
:10073000CB681B1D12E0CB6808330FE0CB680C338D
:100740000CE08B682BB1012B4FF0080303D04561FF
:1007500004E0042302E0056100E00023FF2A01D841
:10076000064601E000F104064FEA840501D9A5F12F
:100770002005D6F8008007FA05FC28EA0C0803FAE1
:1007800005F548EA0508C6F800804D68ED0070D50B
:100790003E4DAE6946F00106AE61AD6924F0030638
:1007A00005F0010500953A4D06EB050CDCF8085004
:1007B000A607360F07FA06F825EA0805DFF8D48001
:1007C000404503D14FF0000825E052E0DFF8C88033
:1007D000404502D14FF001081DE0DFF8C0804045E0
:1007E00002D14FF0020816E0DFF8B480404502D194
:1007F0004FF003080FE0DFF8AC80404502D14FF026
:10080000040808E0DFF8A080404502D14FF0050859
:1008100001E04FF0060808FA06F848EA0508CCF8A7
:1008200008804D68D9F80060ED034D4601D51643A8
:1008300000E096432E604D68DAF80060AD0355463F
:1008400001D5164300E096432E604D68DBF800604A
:10085000ED025D4601D5164300E096432E604D68DB
:10086000DEF80060AD02754601D5164300E0964300
:100870002E60641C0A681646E2407FF429AFBDE88A
:10088000F88F000000040140000011100010024029
:100890000000014000080140000C01400010014030
:1008A0000014014000180140001C0140806808400D
:1008B00000D00120704700000148806870470000A8
:1008C0006800002002488168027811448160704706
:1008D00068000020074810B5016841F01001016070
:1008E000032000F075F8002000F006F800F024F86E
:1008F000002010BD0020024070B50D4D04464FF49D
:100900007A712878B1FBF0F00A490968B1FBF0F080
:1009100000F0CCFA48B9102C07D200222146501E14
:1009200000F036F800206C6070BD012070BD000042
:1009300068000020740000200C4808B5816941F06F
:1009400001018161816901F001010091C16941F0FA
:100950008051C161C06900F0805000900448416836
:1009600021F0E06141F00071416008BD00100240DB
:1009700000000140002809DB00F01F020121914026
:100980004009800000F1E020C0F80011704700002D
:10099000F0B40E4B1B680C46C3F30223C3F10705EA
:1009A000042D00D90425191D072901D2002300E0D8
:1009B000DB1E012606FA05F1491E214099409E40A2
:1009C000761E16403143F0BC01F0AABB0CED00E0EE
:1009D000064900F0070208684FF6FF03184040EA96
:1009E0000220034A10430860704700000CED00E04D
:1009F0000000FA052DE9F0470F46050061D0434E8F
:100A0000306800F00700B84209D2306820F00700D3
:100A100038433060306800F00700B84251D1286890
:100A20003B4C810712D5400703D5606840F4E06075
:100A300060602878000703D5606840F4605060600B
:100A40006068A96820F0F000084360602878C0075B
:100A500028D06868012810D02168022810D08907A2
:100A600000292EDA616821F0030101436160FFF77C
:100A700023FF804641F288390DE021688903EFE7C2
:100A80008901EDE7FFF718FFA0EB0801494502D9FE
:100A90000320BDE8F0876068696800F00C00B0EBE7
:100AA000810FEFD1306800F00700B8420BD93068F1
:100AB00020F0070038433060306800F00700B8428B
:100AC00001D00120E5E72878400705D56068E9688E
:100AD00020F4E060084360602878000706D560686D
:100AE000296920F4605040EAC100606000F018F805
:100AF0006168084AC1F30311515CC84006490860A7
:100B000006480068FFF7F8FE0020C2E70020024018
:100B100000100240D0260008740000206C00002065
:100B200012A185B00FC98DE80F0014A0144A006807
:100B300004905168134801F00C03042B10D0082BCB
:100B40000ED1C1F38343C9031DF803000AD55168D0
:100B500004AAC1F34041515C0A4A5043B0FBF1F092
:100B600005B0704708494843FAE70000020304054E
:100B7000060708090A0B0C0D0E0F101001020000E9
:100B80000010024000127A0000093D002DE9F84FE4
:100B9000040070D02078C04DC00749D06868C0F309
:100BA0008100012807D06868C0F38100022809D1BC
:100BB0006868C00306D52868800339D560680028B6
:100BC000E7D035E06068B0F5803F0BD010B1B0F5EC
:100BD000A02F11D0286820F480302860286820F4E5
:100BE000802002E0286840F480302860606890B17E
:100BF000FFF762FE06460AE0286840F4802028607D
:100C0000F0E700BFFFF758FE801B642873D8286800
:100C10008003F7D50CE0FFF74FFE064605E000BF66
:100C2000FFF74AFE801B6428F0D828688003F7D4B9
:100C300020789A4E80074FF001094FF0000839D50F
:100C4000686810F00C0F07D06868C0F381000228B4
:100C500009D16868C00306D42868800714D52069C4
:100C6000012808D110E02069B0B1C6F80090FFF764
:100C700023FE074605E00AE1FFF71EFEC01B02281F
:100C8000C4D828688007F7D52868616920F0F80083
:100C900040EAC10028600DE0C6F80080FFF70CFEB6
:100CA000074604E0FFF708FEC01B022823D8286887
:100CB0008007F7D4207800072CD57948A169D9B1ED
:100CC000C0F80090FFF7F8FD074604E0FFF7F4FDD9
:100CD000C01B02280FD8686A8007F7D571484FF407
:100CE000FA510068B0FBF1F0009000BF0098411E7F
:100CF0000091FAD20EE080E0C0F80080FFF7DCFD42
:100D0000074604E0FFF7D8FDC01B022875D8686AC3
:100D10008007F7D42078400760D5E8690027C00035
:100D200008D4E86940F08050E861E869012700F0E4
:100D3000805000905C480168C90513D4016883465F
:100D400041F480710160FFF7B7FD824606E000BF05
:100D5000FFF7B2FDA0EB0A0064284ED8DBF80000D4
:100D6000C005F5D5E06801280AD008B1052813D0E0
:100D7000286A20F001002862286A20F0040002E0BE
:100D8000286A40F001002862E06841F2883B98B18F
:100D9000FFF792FD82460BE0286A40F004002862CB
:100DA000EEE700BFFFF788FDA0EB0A0159455AD8CE
:100DB000286A8007F6D50CE0FFF77EFD824605E045
:100DC000FFF77AFDA0EB0A0159454CD8286A800745
:100DD000F6D41FB1E86920F08050E861E06988B37B
:100DE0006968C1F38101022944D00228C6F86080F5
:100DF00004D0FFF761FD044638E034E0FFF75CFD06
:100E0000074604E0FFF758FDC01B02282BD82868CE
:100E10008001F7D4206AB0F5803F05D16868A168E9
:100E200020F4003008436860D4E908010843696889
:100E300021F4741108436860C6F86090FFF73CFD28
:100E4000044606E025E000BFFFF736FD001B022840
:100E500009D828688001F7D51BE000BFFFF72CFDFB
:100E6000001B022802D90320BDE8F88F2868800102
:100E7000F4D40EE00128F7D06868226A00F48031CB
:100E8000914204D1616A00F47010884201D00120BF
:100E9000EAE70020E8E700000010024000004242BC
:100EA00080044242740000200070004010B5401ED3
:100EB000B0F1807F01D3012010BD4FF0E0246061CC
:100EC0000F21601701F02CF90020A061072020619C
:100ED000002010BD10B590F83C20012A22D001223C
:100EE00080F83C20CA688C6822F4407222434C6827
:100EF00022F4806222430C6822F4006222430C69CF
:100F000022F4805222434C6922F400522243C969E0
:100F1000002322F480420A4301684A6480F83C308E
:100F2000002010BD022010BD70B590F83C20012AB1
:100F30002CD0012480F83C40022280F83D20036838
:100F40005A689D6822F070060A6832435A60104B56
:100F500002689A420ED00F4B9A420BD0B2F1804FEA
:100F600008D00D4B9A4205D00C4B9A4202D00C4B44
:100F70009A4204D1496825F080031943916080F8B2
:100F80003D40002180F83C10084670BD022070BD35
:100F9000002C0140003401400004004000080040E3
:100FA000000C004010B5040003D094F83D0010B1CF
:100FB00007E0012010BD002084F83C00204600F02E
:100FC0001FF8022084F83D00211D206800F092FEE9
:100FD000012084F8460084F83E0084F83F0084F83D
:100FE000400084F8410084F8420084F8430084F80B
:100FF000440084F8450084F83D00002010BD000046
:10100000F8B510210446DFF858C107680020554D97
:1010100080224B01CE01674511D1AF6947F40067CB
:10102000AF61AD69504F05F4006500954F4D05F176
:10103000080C8CE84D00A861E861284635E0B7F15E
:10104000804F1FD0DFF828C1674538D1EF6947F0DE
:101050000207EF61ED69444F05F002050095434D2D
:101060001437883505F1080C8CE84D00A861E8615B
:10107000C5E900712846FFF795FA08B1FFF7D4F8E3
:10108000256369E0EF6947F00107EF61ED69364FCD
:1010900005F001050095354D3C37443505F1080C48
:1010A0008CE84D00A861E8612846C5E90071FFF7AA
:1010B00079FA08B1FFF7B8F865626C62F8BDDFF83D
:1010C000B4C0674513D1EF6947F00407EF61ED69DC
:1010D000254F05F004050095244D143FCC3505F14E
:1010E000080C8CE84D00A861E8612846DDE7DFF8D0
:1010F00088C0674511D1EF6947F00807EF61ED69D6
:101100001E4F05F0080500951D4D05F1080C8CE8F3
:101110004D00A861E8612846C7E7DFF868C0674569
:10112000CCD1AF6947F40057AF61AD69134F05F4F7
:1011300000550095124D503F443505F1080C8CE8E0
:101140004D00A861E861C5E900712846FFF72AFA59
:1011500008B1FFF769F8E5626C622562ADE700004F
:10116000002C0140001002401C0002402802002018
:101170000004004000080040000C004058040240F9
:10118000380300200034014070B5044690F83C005C
:10119000012817D0012584F83C50022084F83D0036
:1011A0002068826822F0770222F47F428260086819
:1011B000502830D00DDC20284DD005DC98B3102805
:1011C0003BD148E0022070BD302844D0402834D1C3
:1011D00039E0602828D0702806D0B0F5805F2CD088
:1011E000B0F5005F29D10AE0CB68D1E90121206880
:1011F00000F048FE2068816841F0770109E0CB6883
:10120000D1E90121206800F03DFE2068816841F4A9
:101210008041816011E0CA684968206800F006FFDB
:101220005021206807E016E0CA684968206800F08D
:101230000EFF6021206800F02FFE84F83D50002052
:1012400084F83C0070BDCA684968206800F0EEFE72
:1012500040212068EFE7226801461046EBE770471F
:1012600070B586B0002100910191029103913E4931
:101270003C4C03688D1502223C48A3420BD18B697C
:1012800043F004038B618969CDE9005201F0040148
:10129000CDE9032152E0B3F1804F10D0344E354CEC
:1012A000B3422AD1886940F00800886188690092B9
:1012B00000F008000192CDE9032069462DE08B691A
:1012C00043F004038B618969039201F004010491E6
:1012D0004FF40041CDE900126946FFF7EBF92648CB
:1012E000416821F4407141F0E06141F48071416056
:1012F00006B070BDFFF7DEF9FAE7204EB3420ED11B
:10130000886940F0080088618869694600F0080033
:1013100004904020CDE9000203922046EAE7184CF1
:10132000A3420DD18B6943F004038B618969039259
:1013300001F0040104910121CDE900126946D9E7C9
:1013400010488342D4D1886940F0100088618869D0
:10135000CDE9005200F01000CDE9032069460A48AB
:10136000C8E70000002C01400010024000080140C6
:1013700000040040000C0140000001400008004053
:10138000000C0040003401400010014070B50446DC
:1013900090F83C000D4601280AD0012084F83C005A
:1013A00042B1042A18D0082A2AD00C2A4DD139E09B
:1013B000022070BD206800F077FD2068816941F04F
:1013C000080181612068816921F004018161206840
:1013D00081692A69114311E0206800F095FD2068B9
:1013E000816941F4006181612068816921F4806133
:1013F0008161206881692A6941EA0221816124E0D2
:10140000206800F0B7FD2068C16941F00801C161A2
:101410002068C16921F00401C1612068C1692A699D
:10142000114311E0206800F0D9FD2068C16941F442
:101430000061C1612068C16921F48061C1612068D7
:10144000C1692A6941EA0221C161002084F83C0097
:1014500070BD10B5040003D094F83D0010B107E052
:10146000012010BD002084F83C00204600F01EF84A
:10147000022084F83D00211D206800F03BFC012083
:1014800084F8460084F83E0084F83F0084F8400069
:1014900084F8410084F8420084F8430084F8440052
:1014A00084F8450084F83D00002010BD704700001E
:1014B0002DE9F041194F002406462546A7F10808FA
:1014C00057F82400B0420FD118F80420DAB1042AEA
:1014D0001CD00068082A1CD0C0F8405018F804102E
:1014E00057F8240000F0EEF8641CE4B2052CE7D3B2
:1014F0000B4886420FD10068C563BDE8F041082162
:10150000074800F0DFB800684563E7E700688563D7
:10151000E4E7C563E2E7BDE8F081000018000020C1
:10152000E0010020704700002DE9F04117460D0052
:1015300004460CD0042D11D0082D16D094F841008B
:10154000022819D094F84100012818D0A2E094F89C
:101550003E00022810D094F83E00F5E794F83F00D2
:10156000022809D094F83F00EEE794F840000228E2
:1015700002D094F84000E7E70220BDE8F0810FB9FF
:10158000002B5BD14749484E484A022045B1042D03
:1015900016D0082D24D084F841000C2D3AD16CE0EF
:1015A00084F83E00606A8162606A3946C662606A99
:1015B00002632268606A3432FFF732F8F0BB1FE042
:1015C00084F83F00A06A8162A06A3946C662A06AB8
:1015D00002632268A06A3832FFF722F870BB14E079
:1015E00084F84000E06A8162E06A3946C662E06AD7
:1015F00002632268E06A3C32FFF712F8F0B937E084
:101600002068C16841F4007103E02068C16841F4BA
:101610008061C16001222946206800F0B1FB2449A5
:101620002068244A884201D0904203D1436C43F49D
:1016300000434364206888420FD000E02AE09042D3
:101640000BD0B0F1804F08D01B49884205D01B4910
:10165000884202D01A49884204D1816801F007010A
:10166000062903D0016841F001010160002084E7F0
:101670002068C16841F40061CBE7206B8162206B78
:101680003946C662206B02632268206B4032FEF747
:10169000C7FF08B1012070E72068C16841F480519C
:1016A000B7E700009B1D0008F91D0008311E000867
:1016B000002C0140003401400004004000080040BC
:1016C000000C004070B5044600680D0006D0042DE3
:1016D0000AD0082D3DD00C2D0DD140E0C16821F479
:1016E0000071C160606A04E0C16821F48061C1607A
:1016F000A06AFEF79BFD00222946206800F040FB0F
:101700001E4B41F2111120688A10984202D01C4BE6
:10171000984209D1036A0B4206D1036A134203D1EE
:10172000436C23F4004343642068036A0B4206D1F0
:10173000016A114203D1016821F001010160012019
:101740009DB1042D14D0082D15D084F8410000203F
:1017500070BDC16821F40061C160E06AC9E7C16879
:1017600021F48051C160206BC3E784F83E00EEE7AE
:1017700084F83F00EBE784F84000E8E7002C0140E4
:1017800000340140FEE710B5024640F291142146B4
:10179000EF2000F02DFD2146BDE810404FF400027F
:1017A000EF2000F0FDBC0000214808B5416941F080
:1017B00001014161416901F001010091416941F07C
:1017C000020141614069002200F002000090052101
:1017D0000B20FFF7DDF80B20FFF7CCF800220521E6
:1017E0000C20FFF7D5F80C20FFF7C4F800220521E4
:1017F0000D20FFF7CDF80D20FFF7BCF800220521E2
:101800000F20FFF7C5F80F20FFF7B4F800220521DD
:101810003820FFF7BDF83820FFF7ACF8002206218A
:101820003B20FFF7B5F8BDE808403B20FFF7A2B822
:101830000010024030B585B000241A48019403948A
:10184000816941F020018161816901F020010491E9
:10185000816941F004018161816901F00401049111
:10186000816941F010018161816901F010010491E9
:10187000816941F0080181618069022500F008005A
:101880000490F0200090694602950748FEF712FF89
:1018900010208DE8310069460448FEF70BFF05B0C3
:1018A00030BD00000010024000080140001001405F
:1018B00010B596B000240F941094119412941394C0
:1018C0001C2108A81494FEF756FC20216846FEF758
:1018D00052FC27482549C0E900145921C0E90241BA
:1018E000046144618461FFF75DFB08B1FEF79CFC75
:1018F0004FF480500F900FA91D48FFF745FC08B129
:10190000FEF792FC1A48FFF7A4FD08B1FEF78CFC25
:10191000139413A916481494FFF706FB08B1FEF7B9
:1019200083FC6020CDE908040A940B940C940D9478
:10193000002208A90E480E94FFF728FD08B1FEF713
:1019400073FC00944FF40050CDE9044002940194DC
:101950000394694606480794FFF7BCFA08B1FEF7FE
:1019600063FC0348FFF77CFC16B010BD002C01405F
:101970007800002010B58EB00024079408940994D4
:101980000A940B941C2168460C94FEF7F4FB1D4846
:101990004FF08041C0E900145921C0E902410461BF
:1019A0008461FFF7FFFA08B1FEF73EFC4FF4805068
:1019B000079007A91348FFF7E7FB08B1FEF734FCCF
:1019C0001048FFF746FD08B1FEF72EFC0B940BA95B
:1019D0000C480C94FFF7A8FA08B1FEF725FC60202C
:1019E000CDE9000402940022694606480494FFF7FA
:1019F000CDFC08B1FEF718FC0248FFF731FC0EB031
:101A000010BD0000C000002010B58EB00024079467
:101A1000089409940A940B941C2168460C94FEF7D0
:101A2000AAFB1D481B49C0E900145921C0E9024125
:101A300004618461FFF7B6FA08B1FEF7F5FB4FF4D5
:101A40008050079007A91448FFF79EFB08B1FEF7E6
:101A5000EBFB1148FFF7FDFC08B1FEF7E5FB0B942B
:101A60000BA90D480C94FFF75FFA08B1FEF7DCFBF9
:101A70006020CDE9000402940C22694606480494D3
:101A8000FFF784FC08B1FEF7CFFB0348FFF7E8FB44
:101A90000EB010BD000400400801002010B58EB04B
:101AA00000240794089409940A940B941C21684616
:101AB0000C94FEF760FB1D481B49C0E90014592136
:101AC000C0E9024104618461FFF76CFA08B1FEF7D6
:101AD000ABFB4FF48050079007A91448FFF754FB65
:101AE00008B1FEF7A1FB1148FFF7B3FC08B1FEF700
:101AF0009BFB0B940BA90D480C94FFF715FA08B14A
:101B0000FEF792FB6020CDE90004029400226946B2
:101B100006480494FFF73AFC08B1FEF785FB03483A
:101B2000FFF79EFB0EB010BD0008004050010020E2
:101B300010B58EB000240794089409940A940B946D
:101B40001C2168460C94FEF716FB1D481B49C0E992
:101B500000145921C0E9024104618461FFF722FAAF
:101B600008B1FEF761FB4FF48050079007A91448B5
:101B7000FFF70AFB08B1FEF757FB1148FFF769FCB6
:101B800008B1FEF751FB0B940BA90D480C94FFF71D
:101B9000CBF908B1FEF748FB6020CDE900040294C0
:101BA0000022694606480494FFF7F0FB08B1FEF7EF
:101BB0003BFB0348FFF754FB0EB010BD000C004088
:101BC0009801002010B596B000240F941094119441
:101BD000129413941C2108A81494FEF7CCFA202127
:101BE0006846FEF7C8FA27482549C0E9001459217C
:101BF000C0E90241046144618461FFF7D3F908B18F
:101C0000FEF712FB4FF480500F900FA91D48FFF70D
:101C1000BBFA08B1FEF708FB1A48FFF71AFC08B137
:101C2000FEF702FB139413A916481494FFF77CF9EE
:101C300008B1FEF7F9FA6020CDE908040A940B9484
:101C40000C940D94082208A90E480E94FFF79EFBF1
:101C500008B1FEF7E9FA00944FF40050CDE90440D2
:101C6000029401940394694606480794FFF732F9F9
:101C700008B1FEF7D9FA0348FFF7F2FA16B010BD23
:101C800000340140E0010020FEE7FEE770477047A6
:101C9000FEF718BE30B58FB028216846FEF76BFA04
:101CA00014210AA8FEF767FA01210804CDE9001003
:101CB0000024029402250491CDE907504FF4E0106E
:101CC00009906846FEF762FF08B172B6FEE70F2082
:101CD000CDE90A054FF48060CDE90C4002210AA845
:101CE0000E94FEF787FE002801D072B6FEE70FB013
:101CF00030BD7047F0B502681C4B1D4D1D4E1E4F88
:101D00001E4C4FF0804C984209D0A04207D060454D
:101D100005D0A84203D0B04201D0B84204D122F08D
:101D2000700E4A6842EA0E02984209D0A04207D0DB
:101D3000604505D0A84203D0B04201D0B84203D1DB
:101D400022F44075CA682A434D6922F080022A4372
:101D500002608A68C2620A688262984201D0A04228
:101D600001D10969016301214161F0BD002C0140ED
:101D70000004004000080040000C00400034014016
:101D800010B501F01F030121046A99408C430462DD
:101D9000016A9A401143016210BD10B5446A0121E5
:101DA000626A824205D121778069F8B984F83E10D1
:101DB0001CE0A26A824206D1022222778069A8B979
:101DC00084F83F1012E0E26A824206D104222277B0
:101DD000806958B984F8401008E0226B824205D12E
:101DE00008222277806908B984F841102046FFF75D
:101DF0005FFB0020207710BD10B5446A616A814204
:101E000001D101200DE0A16A814201D1022008E048
:101E1000E16A814201D1042003E0216B814201D1BA
:101E2000082020772046FFF77DFB0020207710BD9B
:101E300010B5446A0121626A824203D1217784F895
:101E40003E1019E0A26A824204D10220207784F871
:101E50003F1011E0E26A824204D10420207784F826
:101E6000401009E0226B824204D10820207784F8D8
:101E7000411001E084F83D102046FFF7F0F9002002
:101E8000207710BD10B5846842EA032224F47F4411
:101E90000A432243826010BD826822F070020A4326
:101EA00042F0070181607047F0B5026A22F001023A
:101EB0000262036A42688469124E24F073050C685A
:101EC0002C4323F002058B682B430D4DA84201D013
:101ED000B04205D123F00807CB683B4323F004034D
:101EE000A84201D0B04205D14D6922F44072154399
:101EF0008A692A4342608461496841630362F0BD94
:101F0000002C014000340140F0B5026A22F01002BA
:101F10000262026A436884690D6824F4E64444EA74
:101F200005248D6822F0200242EA05120F4D104E62
:101F3000A84201D0B04206D1CF6822F0800242EA26
:101F4000071222F04002A84201D0B04207D14D69E9
:101F500023F4406343EA85038D6943EA85034360C4
:101F60008461496881630262F0BD0000002C014079
:101F700000340140F0B5026A22F480720262026A03
:101F80004368C46922F4007224F073050C68124E91
:101F90002C438D6842EA05220E4DA84201D0B04282
:101FA00006D1CF6822F4006242EA072222F480625E
:101FB000A84201D0B04207D14D6923F4405343EA0F
:101FC00005138D6943EA05134360C4614968C16321
:101FD0000262F0BD002C01400034014030B5026ABD
:101FE00022F480520262046A4268C3690D6823F4D5
:101FF000E64343EA05238D6824F4005444EA05349B
:10200000084DA84202D0084DA84204D14D6922F4DF
:10201000804242EA85124260C361496801640462F9
:1020200030BD0000002C01400034014010B5036AAF
:10203000046A24F001040462846924F0F00444EA90
:10204000021423F00A020A438461026210BD10B533
:10205000036A23F0100303628369046A23F4704364
:1020600043EA023224F0A00343EA011182610162D3
:1020700010BD00002DE9F04115460A4640F251140A
:102080002146002000F0B4F84FF400022146002061
:1020900000F086F8094E002406F11C0742F2995818
:1020A000AC4206D1315D57F824004346044AFFF79D
:1020B0003BFA641C052CF3DBBDE8F0813400002002
:1020C000040A0020FEE7000070B5124E10213046D1
:1020D000FEF7ECFB0124104D012800D12C602021DB
:1020E0003046FEF7E3FB012800D1EC60402130468A
:1020F000FEF7DCFB802130466C60FEF7D7FB012841
:1021000000D1AC6010210548FEF7D0FB012800D1BA
:102110002C6170BD00080140CCA0002000100140DF
:102120000907090E002804DB00F1E02080F8001404
:10213000704700F00F0000F1E02080F8141D704798
:1021400002E008C8121F08C1002AFAD17047704780
:10215000002001E001C1121F002AFBD170470000DE
:10216000064810B50021816480F8541000F074F91D
:1021700000F0A0FABDE8104000F088B968A0002087
:1021800010B5002240F291142146104600F030F8BC
:102190002146BDE810404FF400220020AFF300803C
:1021A0002DE9F043114C2D27A4F24469192619E0BA
:1021B00059F820C0002300EB400500BF22FA03F8C5
:1021C0001CEA080F03EBC50804EB880802D0C8F826
:1021D000047001E0C8F804605B1C9BB2182BEDD3BF
:1021E000401C80B28842E3D3BDE8F083040A00209B
:1021F000044B03E043F82020401C80B28842F9D30E
:1022000070470000C00300202DE9F35F604E614D70
:102210004FF4000B96F8540005F11C0A42F299584D
:10222000022805D0032802D0062804D032E004207A
:1022300086F83C002EE040F2511421460020019A1D
:10224000FFF7D6FF5A4621460020FFF7A9FF0024DA
:102250005746295D57F8240043464F4AFFF764F973
:10226000641CE4B2052CF4D34FF47A70FEF710FA34
:1022700000F00CF9FFF784FFFFF772FF00244346DC
:10228000295D57F82400444AFFF74EF9641CE4B274
:10229000052CF4D3D6E91201411A40F64D42002034
:1022A000914296F8611001D809B914E009B186F895
:1022B000610086F8540096F8570086F860004836AA
:1022C00000F0E4F8FFF75CFF00F0C6F800F0F2F968
:1022D000706846F84809B14600245F4640F29116FE
:1022E000002231461046FFF783FF3A463146002070
:1022F000FFF756FF04EB440119F8210020B1012833
:1023000005D0022821D10CE0FFF73AFF1DE001982B
:1023100000F071F9019800F08CF9019800F04CF987
:1023200013E0DFF870B0ABF1040B9BF80020DDE99F
:10233000000100F051F9DBF80000022808D0401C31
:10234000CBF800000198FFF71EFA052C02D00BE035
:102350000020F5E731460020019AFFF749FF3A4691
:1023600031460020FFF71CFF295D5AF82400434640
:10237000094AFFF7D9F8FFF7A7FE1E20FEF788F9F4
:10238000FFF7A2FE641CE4B2062CA9D3BDE8FC9FB3
:1023900068A0002034000020040A00202DE9F04F3E
:1023A0002B4CC0EBC00000EB040B2A4C0023C1EB0C
:1023B000C10500BF1BF803A001203EE003281DD289
:1023C0000021A0F1020CC0EBC009CAEBCA0812E060
:1023D00009EB01062E444644ED2E00D9EE3EB6B27E
:1023E0004F4206EB4707BF1DBFB244F82620491CE9
:1023F00044F82720C9B261451FDCE9E74100091F05
:10240000CFB20021C0EBC009CAEBCA0CC7F1070864
:1024100011E000BF09EB010606EB57062E446644A7
:10242000ED2E00D9EE3E032801D1022901D044F857
:102430002620491CC9B28845ECDC401CC0B20628E5
:10244000BCD35B1CDBB2072BB4D3BDE8F08F00001C
:102450003A000020C00300201CB509A16A46D1E95A
:102460000001CDE900010849002000EB4004135CA5
:10247000401CC0B201F824300528F6D91CBD00006C
:10248000000000000001000068A0002000201449A6
:1024900000E006D000EB400301EB8303421C9A727C
:1024A00028B100EB400301EB8303421E5A72401C2B
:1024B00040B20428EDDD4FF0040048724FF00002F6
:1024C00081F83A204FEA020000EB400300F10100DE
:1024D000C0B201F823200528F6D3886CC864704781
:1024E00068A0002070B50026314C304600EB40015A
:1024F00014F82110012931D002292FD00021401CCD
:102500003144C0B2CEB20528F0D384F85460002024
:1025100084F85600FEF7D0F90125A0648EB1FFF7CC
:10252000D3FD94F85700234951F8201000293DD0DD
:1025300000EB4000761C04F8205084F8546000F052
:10254000B9F894F85400062830D0A16C0522B1FBEC
:10255000F2F302FB13110020491C06E00121CEE733
:1025600000EB400004EB8000807A491EC9B2F7D22C
:1025700000EB400204EB82014E7A8B7A06EB4606B2
:1025800004EB8606B3724B7A897A01EB410104EBC6
:1025900081014B7294F8581009B984F8585084F8A6
:1025A0005700022004F82200A06CE06470BD000017
:1025B00068A00020CCA0002010B5024640F25114C3
:1025C0002146AF20FFF714FE2146BDE810404FF42E
:1025D0000002AF20FFF7E4BD13460A4610B50146DE
:1025E0001846FFF7DBFEAF21BDE810404FF40002B4
:1025F0000020FFF7D5BD70B504460246AF2100208C
:10260000FFF7F6FD224640F2911440F251152146A3
:102610002846FFF7EDFD4FF400263246AF2100209B
:10262000FFF7BEFD324621462846BDE87040FFF761
:10263000B7BD70B5024640F2911440F251152146E3
:102640002846FFF7D5FD21462846BDE870404FF4E7
:102650000002FFF7A5BD0000FEF73CF9FFF71AFBEB
:10266000FFF7E8F8FFF7A0F8FFF722F9FFF782F984
:10267000FFF7CAF9FFF712FAFFF75AFAFFF7A2FAC3
:10268000FFF76EFD0A4CA06828B1D4E90002E168AA
:10269000FFF7F0FCF7E7FFF717FD2078FFF722FFC1
:1026A0002078E168FFF7B0FDFFF70EFDEBE70000D3
:1026B0000000002000200549024600BF41F820200C
:1026C000401CC0B20428F9D970470000CCA00020FB
:1026D00000000000000000000102030406070809D2
:1026E00000270008000000207800000040210008BA
:1026F000782700087800002068A500005021000815
:10270000010000000100000000000000FF000000C8
:102710000000000C0008000050010020780000209C
:10272000C00000200801002098010020E0010020E6
:10273000000000000000000C000800050A0F14193A
:102740001E02070C11161B2004090E13181D22006F
:1027500050010020C0000020980100200801002046
:1027600078000020E00100200100000010000000BF
:08277000000000000024F40049
:0400000508000131BD
:00000001FF
