:020000040800F2
:10000000A0A5002045010008850D0008890D000805
:100010008D0D0008910D0008950D000800000000EE
:10002000000000000000000000000000990D000822
:100030009D0D000800000000A10D0008A50D00089E
:100040005F0100085F0100085F0100085F01000810
:100050005F0100085F0100085F0100085F01000800
:100060005F0100085F0100085F010008A90D00089A
:10007000B50D0008C10D00085F010008CD0D000896
:100080005F0100085F0100085F0100085F010008D0
:100090005F0100085F0100085F0100085F010008C0
:1000A0005F0100085F0100085F0100085F010008B0
:1000B0005F0100085F0100085F0100085F010008A0
:1000C0005F0100085F0100085F0100085F01000890
:1000D0005F0100085F0100085F0100085F01000880
:1000E0005F0100085F0100085F0100085F01000870
:1000F0005F0100085F0100085F0100085F01000860
:100100005F0100085F0100085F0100085F0100084F
:100110005F0100085F0100085F0100085F0100083F
:10012000D90D00085F0100085F010008E50D000817
:10013000DFF80CD009F07AFD00480047690100089B
:10014000A0A500200648804706480047FEE7FEE7D6
:10015000FEE7FEE7FEE7FEE7FEE7FEE7FEE7FEE777
:10016000858200083101000890B006F063F9002490
:1001700001204FF48031CDE90B44CDE909440690CC
:10018000CDE907140A9002254FF4E010CDE90D5196
:100190000F9006A80594CDE90344CDE9014406F08B
:1001A000C9FA20B1EFF3108072B600BFFEE70F204E
:1001B000CDE901054FF480600394CDE9040401A862
:1001C000022106F085FC20B1EFF3108072B600BF6B
:1001D000FEE700F053F800F095F800F0DFF800F0CB
:1001E00037FA00F097FA00F0F9FA00F05BFB00F044
:1001F000BDFB08F083FF00BF01205F2109F050FA2A
:10020000FAE700BFB0B590B0002401204FF4803170
:10021000CDE90B44CDE909440690CDE907140A90D5
:1002200002254FF4E010CDE90D510F9006A805947A
:10023000CDE90344CDE9014406F07CFA18B1EFF3AF
:10024000108072B6FEE70F20CDE901054FF4806003
:100250000394CDE9040401A8022106F039FC20B181
:10026000EFF3108072B600BFFEE710B0B0BD00BF64
:10027000EFF3108072B600BFFEE70000F0B585B066
:10028000002641F218000496C4F20200016840F60C
:10029000000441F0200101600168C4F2010401F092
:1002A000200100910099016801AD41F00401016055
:1002B0000168022701F0040100910099016841F0F2
:1002C00010010160016801F01001009100990168BE
:1002D00041F0080101600068294600F00800009024
:1002E0000098F020CDE901062046039706F0CCFDEA
:1002F000102001A9C1C104F50060294606F0C4FD23
:1003000005B0F0BD80B582B041F21400C4F2020025
:100310000168002241F001010160016801F0010162
:1003200001910199016841F0020101600068052115
:1003300000F00200009000980B2007F09FFE0B20B9
:1003400007F0C8FE0C200521002207F097FE0C20C4
:1003500007F0C0FE0D200521002207F08FFE0D20C2
:1003600007F0B8FE0F200521002207F087FE0F20BE
:1003700007F0B0FE38200521002207F07FFE38206C
:1003800007F0A8FE3B200621002207F077FE3B2065
:1003900002B0BDE8804007F09DBE000010B596B0E9
:1003A00049F6D86042F600420021C2F20000C4F2D1
:1003B000010259231591CDE91311CDE91111CDE9B0
:1003C0000F11CDE90D11CDE90B11CDE90911CDE9E1
:1003D0000711CDE90511CDE90311CDE90111C0E9FE
:1003E0000021C0E90213C0E90411816100F022FD7F
:1003F000002818BFFFF73CFF4FF48050129049F6D9
:10040000D860C2F2000012A904F090FB002818BFC7
:10041000FFF72EFF49F6D860C2F2000001F066FC3B
:10042000002818BFFFF724FF49F6D8600024C2F265
:10043000000010A9CDE9104405F06EFF002818BF98
:10044000FFF716FF6020CDE9090449F6D860C2F233
:10045000000009A90022CDE90B44CDE90D440F9419
:1004600003F0E4FD002818BFFFF702FF002005900D
:10047000CDE90300CDE901004FF40051089049F6A1
:10048000D8600691C2F2000001A905F091FF002892
:1004900018BFFFF7EDFE49F6D860C2F2000000F089
:1004A00003F816B010BD00BF80B586B0006840F6F6
:1004B000FF31C4F2000188424FF00001CDE9041180
:1004C000CDE9021121DCB0F1804F41D040F2004172
:1004D000C4F20001884265D040F60001C4F2000178
:1004E000884240F0B28041F21800C4F20200016874
:1004F00041F008010160006800F0080001900198D7
:1005000040200290022003905CE040F60041C4F2DB
:100510000001884262D043F20041C4F201018842E6
:1005200077D042F60041C4F20101884240F08D804C
:1005300041F21800C4F20200016841F004010160B8
:10054000006800F00400019001984FF4807053E0BF
:1005500041F21800C4F20200016841F00401016098
:10056000006802A900F00400019001984FF40040D7
:10057000029002200390059040F60000C4F20100B2
:1005800006F082FC0420C4F2010001684FF6FF422D
:10059000CFF6FF02114041F0E06141F4807101604B
:1005A00006B080BD41F21800C4F20200016841F0BB
:1005B00008010160006800F0080001900198022025
:1005C000CDE90200059040F60000C4F2010000F5FC
:1005D000806002A906F058FC06B080BD41F2180008
:1005E000C4F20200016841F004010160006800F0FB
:1005F00004000190019801200290022003900590D0
:1006000040F60000C4F2010002A906F03DFC06B06D
:1006100080BD41F21800C4F20200016841F01001EF
:100620000160006802A900F01000019001984FF4E9
:100630008070029002200390059040F60000C4F202
:10064000010000F5006006F01FFC06B080BD00BF91
:1006500010B58EB049F620700021C2F200004FF0B4
:10066000804259230D91CDE90B11CDE90911CDE956
:100670000711CDE90511CDE90311CDE90111C0E95B
:100680000021C0E902130161816100F0D3FB002861
:1006900018BFFFF7EDFD4FF480500A9049F6207027
:1006A000C2F200000AA904F041FA002818BFFFF7BF
:1006B000DFFD49F62070C2F2000001F017FB0028B0
:1006C00018BFFFF7D5FD49F620700024C2F20000E4
:1006D00008A9CDE9084405F01FFE002818BFFFF760
:1006E000C7FD6020CDE9010449F62070C2F2000088
:1006F00001A900220394059403F098FC002818BF78
:10070000FFF7B6FD49F62070C2F20000FFF7CCFEFD
:100710000EB010BD10B58EB049F6687040F20042C0
:100720000021C2F20000C4F2000259230D91CDE96C
:100730000B11CDE90911CDE90711CDE90511CDE97D
:100740000311CDE90111C0E90021C0E902130161E3
:10075000816100F06FFB002818BFFFF789FD4FF49F
:1007600080500A9049F66870C2F200000AA904F0AD
:10077000DDF9002818BFFFF77BFD49F66870C2F26B
:10078000000001F0B3FA002818BFFFF771FD49F629
:1007900068700024C2F2000008A9CDE9084405F001
:1007A000BBFD002818BFFFF763FD6020CDE9010401
:1007B00049F66870C2F2000001A90C220394059466
:1007C00003F034FC002818BFFFF752FD49F66870AB
:1007D000C2F20000FFF768FE0EB010BD10B58EB07B
:1007E00049F6B07040F600020021C2F20000C4F2E7
:1007F000000259230D91CDE90B11CDE90911CDE985
:100800000711CDE90511CDE90311CDE90111C0E9C9
:100810000021C0E902130161816100F00BFB002897
:1008200018BFFFF725FD4FF480500A9049F6B070CD
:10083000C2F200000AA904F079F9002818BFFFF7F6
:1008400017FD49F6B070C2F2000001F04FFA00281F
:1008500018BFFFF70DFD49F6B0700024C2F200008A
:1008600008A9CDE9084405F057FD002818BFFFF797
:10087000FFFC6020CDE9010449F6B070C2F200002F
:1008800001A900220394059403F0D0FB002818BFAF
:10089000FFF7EEFC49F6B070C2F20000FFF704FE6D
:1008A0000EB010BD10B58EB049F6F87040F600429B
:1008B0000021C2F20000C4F2000259230D91CDE9DB
:1008C0000B11CDE90911CDE90711CDE90511CDE9EC
:1008D0000311CDE90111C0E90021C0E90213016152
:1008E000816100F0A7FA002818BFFFF7C1FC4FF4A0
:1008F00080500A9049F6F870C2F200000AA904F08C
:1009000015F9002818BFFFF7B3FC49F6F870C2F2DA
:10091000000001F0EBF9002818BFFFF7A9FC49F629
:10092000F8700024C2F2000008A9CDE9084405F0DF
:10093000F3FC002818BFFFF79BFC6020CDE9010401
:1009400049F6F870C2F2000001A900220394059450
:1009500003F06CFB002818BFFFF78AFC49F6F8701B
:10096000C2F20000FFF7A0FD0EB010BD10B596B0AA
:100970004AF2400043F200420021C2F20000C4F2F9
:10098000010259231591CDE91311CDE91111CDE9DA
:100990000F11CDE90D11CDE90B11CDE90911CDE90B
:1009A0000711CDE90511CDE90311CDE90111C0E928
:1009B0000021C0E90213C0E90411816100F03AFA94
:1009C000002818BFFFF754FC4FF4805012904AF2F1
:1009D0004000C2F2000012A904F0A8F8002818BFD5
:1009E000FFF746FC4AF24000C2F2000001F07EF937
:1009F000002818BFFFF73CFC4AF240000024C2F276
:100A0000000010A9CDE9104405F086FC002818BFAD
:100A1000FFF72EFC6020CDE909044AF24000C2F243
:100A2000000009A90822CDE90B44CDE90D440F943B
:100A300003F0FCFA002818BFFFF71AFC002005900D
:100A4000CDE90300CDE901004FF4005108904AF2CE
:100A500040000691C2F2000001A905F0A9FC00289F
:100A600018BFFFF705FC4AF24000C2F20000FFF792
:100A70001BFD16B010BD00BFB0B582B004460068C3
:100A800040F6FF31C4F20001884224DCB0F1804F0F
:100A90004ED040F20041C4F2000188425ED040F6E0
:100AA0000001C4F20001884240F0E08041F21C00E5
:100AB000C4F20200016849F60C6541F004010160CE
:100AC0000068C2F2000500F00400019001980820BF
:100AD000C4F2020081E040F60041C4F20001884205
:100AE00065D043F20041C4F20101884200F08E80DB
:100AF00042F60041C4F20101884240F0B78041F261
:100B00001C00C4F2020050F8041C49F6405541F4A0
:100B1000006140F8041C50F8040CC2F2000500F417
:100B20000060019001980820C4F20200143054E0E3
:100B300041F21C00C4F20200016849F6845541F0FC
:100B4000010101600068C2F2000500F0010001909F
:100B500001980820C4F2020050303EE041F21C002F
:100B6000C4F20200016849F6C85541F00201016073
:100B70000068C2F2000500F0020001900198082010
:100B8000C4F2020028301021002280234FF4007CA0
:100B90004FF4006E85E80F502846C5E9062206F09E
:100BA00077FB002818BFFFF763FB25635AE041F28B
:100BB0001C00C4F20200016849F6506541F00801CA
:100BC00001600068C2F2000500F008000190019881
:100BD0000820C4F2020000F58A6010210022802360
:100BE0004FF4007C4FF4006E286028466960AA60CC
:100BF000EB60C5F810C0C5F814E0AA61EA6106F020
:100C000047FB08B1FFF734FB65622CE041F21C00A2
:100C1000C4F2020050F8041C49F6946541F40051F6
:100C200040F8041C50F8040CC2F2000500F4005017
:100C3000019001980820C4F2020000F580601021A4
:100C4000002280234FF4007C4FF4006E85E80F50A3
:100C50002846C5E9062206F01BFB002818BFFFF74F
:100C600007FBE562256205F12400046002B0B0BD17
:100C700010B5016840F6FF32C4F2000291421DDC5B
:100C8000B1F1804F3ED040F20042C4F200029142E6
:100C900056D040F60002C4F20002914271D141F2F6
:100CA0001C01C4F202010A6800F1240422F00402CB
:100CB0000A602068BDE8104006F032BB40F60042F2
:100CC000C4F2000291422CD043F20042C4F201026D
:100CD000914241D042F60042C4F20102914218BF53
:100CE00010BD41F21C01C4F2020151F8042C00F1C4
:100CF000240422F4006241F8042C2068BDE810406E
:100D000006F00EBB41F21C01C4F202010A6800F1B8
:100D1000240422F001020A602068BDE8104006F0B9
:100D2000FFBA41F21C01C4F202010A6800F1240476
:100D300022F008020A602068BDE8104006F0F0BA10
:100D400041F21C01C4F202010A6800F1200422F001
:100D500002020A60016B0CE041F21C01C4F20201C4
:100D600051F8042C00F1200422F4005241F8042C24
:100D7000C16A084606F0D4FA2068BDE8104006F0C3
:100D8000CFBA10BDFEE700BFFEE700BFFEE700BF21
:100D9000FEE700BFFEE700BF704700BF704700BF1F
:100DA000704700BF05F092BB49F60C60C2F200002C
:100DB00006F0ACBF49F64050C2F2000006F0A6BFF4
:100DC00049F6C850C2F2000006F0A0BF49F68450B0
:100DD000C2F2000006F09ABF49F69460C2F2000029
:100DE00006F094BF49F65060C2F2000006F08EBFD4
:100DF00082B041F21800C4F202000168022241F000
:100E000001010160016801F001010191019941684E
:100E100041F080514160406800F08050009000989F
:100E20000420C4F20100016862F31A61016002B09B
:100E300070470000002804BF0120704710B5044629
:100E400090F83D0028B9002084F83C002046FFF7C8
:100E500013FE022084F83D00206840F6FF3302684C
:100E6000C4F2000343F2004C9842C4F2010C20DCAF
:100E7000B0F1804F2BD040F20041C4F20001884213
:100E800025D040F60001C4F2000188421FD09842EC
:100E900023DCB0F1804F2ED040F20041C4F20001BB
:100EA000884228D040F60001C4F20001884222D0D6
:100EB00025E040F60041C4F20001884207D06045B9
:100EC00005D042F60041C4F201018842DFD1A16899
:100ED00022F070020A439842DBDD40F60041C4F282
:100EE0000001884207D0604505D042F60041C4F2B7
:100EF0000101884203D1216922F440720A43A369A7
:100F000022F08001D4F804E0E268194360450160F2
:100F1000C262C0F828E005D042F60041C4F20101E7
:100F2000884201D16169016301214161002084F897
:100F3000461084F83E1084F83F1084F8401084F87E
:100F4000411084F8421084F8431084F8441084F867
:100F5000451084F83D1010BD704700BF10B540F635
:100F6000FF3E0368C4F2000E43F2004C7045C4F229
:100F7000010C20DCB0F1804F2BD040F20042C4F2D3
:100F80000002904225D040F60002C4F200029042D6
:100F90001FD0704523DCB0F1804F2ED040F20042CC
:100FA000C4F20002904228D040F60002C4F20002CF
:100FB000904222D025E040F60042C4F20002904266
:100FC00007D0604505D042F60042C4F201029042CB
:100FD000DFD14A6823F0700313437045DBDD40F630
:100FE0000042C4F20002904207D0604505D042F6AC
:100FF0000042C4F20102904203D1CA6823F4407354
:10100000134323F080024B69D1F800E08C681A4347
:1010100060450260C462C0F828E005D042F6004294
:10102000C4F20102904201D10969016301214161C9
:1010300010BD00BF10B50446022084F83D002068B2
:1010400041F21112016A114208D1016A40F2444290
:10105000114203D1016821F0010101602046FFF730
:1010600007FE0021002084F8461084F83E1084F822
:101070003F1084F8401084F8411084F8421084F83E
:10108000431084F8441084F8451084F83D1084F827
:101090003C1010BD704700BF90F83D1001291CBFE7
:1010A00001207047022180F83D10006840F6FF31B2
:1010B000C4F2000188420FDCB0F1804F1ED040F234
:1010C0000041C4F20001884218D040F60001C4F289
:1010D0000001884212D018E040F60041C4F200013D
:1010E00088420BD043F20041C4F20101884205D08E
:1010F00042F60041C4F20101884206D1816801F044
:101100000701062904BF00207047016841F0010172
:1011100001600020704700BF0146006841F21113D2
:10112000026A1A4204D00122002081F83D20704753
:10113000026A40F244431A42F5D1026822F00102E9
:1011400002600122002081F83D20704790F83D1098
:1011500001291CBF01207047022180F83D10006862
:1011600040F6FF32C168C4F20002904241F0010132
:10117000C1600FDCB0F1804F1ED040F20041C4F2DC
:101180000001884218D040F60001C4F200018842F4
:1011900012D018E040F60041C4F2000188420BD0A2
:1011A00043F20041C4F20101884205D042F60041F9
:1011B000C4F20101884206D1816801F007010629C5
:1011C00004BF00207047016841F001010160002068
:1011D000704700BF0146006841F21113C26822F057
:1011E0000102C260026A1A4204D00122002081F882
:1011F0003D207047026A40F244431A42F5D102682A
:1012000022F0010202600122002081F83D20704797
:1012100010B5044690F83D00022804BF022010BD1E
:1012200094F83D0001281FD1134601B9E3B902200B
:1012300084F83D00206A41F2DD22C0F6000282629D
:10124000206A41F2F122C0F60002C262206A41F235
:10125000F922C0F60002D4F800C00263206A0CF143
:101260002C0206F0D3F808B1012010BD206840F62A
:10127000FF32C168C4F2000241F480719042C16043
:101280000DDCB0F1804F1CD040F20041C4F20001EF
:10129000884216D040F60001C4F200010FE040F68B
:1012A0000041C4F2000188420BD043F20041C4F275
:1012B0000101884205D042F60041C4F20101884292
:1012C00006D1816801F00701062904BF002010BD86
:1012D000016841F001010160002010BD406A016A0F
:1012E0008969002904BF012180F83D1002F058BC33
:1012F000406A03F0C3BD00BF10B5446A616A814211
:101300000CD0A16A81420ED0E16A814211D0216BDA
:10131000814214D0012084F83D0015E0012020779F
:1013200084F83E0010E002202077012084F83F007E
:101330000AE004202077012084F8400004E008201F
:101340002077012084F84100204603F09FFD002013
:10135000207710BD10B501680446006ACA6822F4FF
:101360008072CA6006F0C4F8206841F21112016A66
:10137000114204D00121002084F83D1010BD016A03
:1013800040F244421142F5D1016821F001010160AF
:101390000121002084F83D1010BD00BF002804BFCB
:1013A0000120704710B5044690F83D0028B9002090
:1013B00084F83C00204600F083F8022084F83D00C9
:1013C000206840F6FF330268C4F2000343F2004C89
:1013D0009842C4F2010C20DCB0F1804F2BD040F2D7
:1013E0000041C4F20001884225D040F60001C4F259
:1013F000000188421FD0984223DCB0F1804F2ED0EC
:1014000040F20041C4F20001884228D040F60001B9
:10141000C4F20001884222D025E040F60041C4F227
:101420000001884207D0604505D042F60041C4F271
:1014300001018842DFD1A16822F070020A4398427C
:10144000DBDD40F60041C4F20001884207D0604570
:1014500005D042F60041C4F20101884203D121695E
:1014600022F440720A43A36922F08001D4F804E018
:10147000E268194360450160C262C0F828E005D007
:1014800042F60041C4F20101884201D16169016361
:1014900001214161002084F8461084F83E1084F850
:1014A0003F1084F8401084F8411084F8421084F80A
:1014B000431084F8441084F8451084F83D1010BDA2
:1014C000704700BF10B50446022084F83D00206834
:1014D00041F21112016A114208D1016A40F24442FC
:1014E000114203D1016821F001010160204600F0A2
:1014F00019F80021002084F8461084F83E1084F882
:101500003F1084F8401084F8411084F8421084F8A9
:10151000431084F8441084F8451084F83D1084F892
:101520003C1010BD704700BF41B1082909D0042903
:1015300014BF00F1410200F13F0204E000F13E025D
:1015400001E000F140021278012A1CBF012070471F
:10155000022241B1082909D0042914BF80F8412092
:1015600080F83F2004E080F83E2001E080F8402031
:10157000006801F01F010122036A02FA01F123EA67
:1015800001020262026A0A4340F6FF31C4F200011E
:101590008842026217DD40F60042C4F20002904227
:1015A00020D043F2004CC4F2010C604505D042F655
:1015B0000043C4F2010398421BD1436C884243F4B8
:1015C000004343641BDCB0F1804F0BD040F200417C
:1015D000C4F20001884205D040F60001C4F20001C7
:1015E000884206D1816801F00701062904BF002066
:1015F0007047016841F0010101600020704790428E
:10160000F0D06045EED042F60041C4F201018842BC
:10161000E8D0EEE780B501F01F014FF0010CD0F8E3
:1016200020E00CFA01F32EEA03030362036A02FAD4
:1016300001F11943016280BD10B5026801F01F0E6F
:101640004FF0010C146A0CFA0EF324EA0303136240
:1016500043F20044136AC4F20104A242136205D0AB
:1016600042F60043C4F201039A4209D1136A41F2DF
:101670001114234204D1136A40F2444423420ED091
:10168000136A41F21114234212D1136A40F2444406
:1016900023420DD1136823F00103136008E0536C5B
:1016A00023F400435364136A41F211142342ECD033
:1016B00008290BD004290ED000294FF0010114BFD6
:1016C00080F8411080F83E10002010BD012180F804
:1016D0004010002010BD012180F83F10002010BDF7
:1016E00041B1082909D0042914BF00F1410200F1D9
:1016F0003F0204E000F13E0201E000F140021278F6
:10170000012A1CBF01207047022261B1082919D0AB
:10171000042914BF80F8412080F83F204FEAB1022D
:10172000032A06D914E080F83E204FEAB102032ACA
:101730000ED8DFE802F0020F14190068C26842F008
:10174000020215E080F840204FEAB102032AF0D9E6
:1017500000680EE00068C26842F0040208E0006819
:10176000C26842F0080203E00068C26842F010025A
:10177000C26001F01F010122036A02FA01F123EAAB
:1017800001020262026A0A4340F6FF31C4F200011C
:101790008842026217DD40F60042C4F20002904225
:1017A00020D043F2004CC4F2010C604505D042F653
:1017B0000043C4F2010398421BD1436C884243F4B6
:1017C000004343641BDCB0F1804F0BD040F200417A
:1017D000C4F20001884205D040F60001C4F20001C5
:1017E000884206D1816801F00701062904BF002064
:1017F0007047016841F0010101600020704790428C
:10180000F0D06045EED042F60041C4F201018842BA
:10181000E8D0EEE710B54FEAB102032A08D8DFE8B6
:1018200002F002090E130268D36823F002030FE0EE
:1018300002680EE00268D36823F0040308E002683F
:10184000D36823F0080303E00268D36823F0100391
:10185000D36001F01F0E4FF0010C146A0CFA0EF366
:1018600024EA0303136243F20044136AC4F201043E
:10187000A242136205D042F60043C4F201039A4229
:1018800009D1136A41F21114234204D1136A40F2C0
:10189000444423420ED0136A41F21114234212D160
:1018A000136A40F2444423420DD1136823F001032C
:1018B000136008E0536C23F400435364136A41F24D
:1018C00011142342ECD008290BD004290ED0002992
:1018D0004FF0010114BF80F8411080F83E10002045
:1018E00010BD012180F84010002010BD012180F8BA
:1018F0003F10002010BD00BFB0B50C46054641B1F9
:10190000082C09D0042C14BF05F1410005F13F005B
:1019100004E005F13E0001E005F1400000780228F6
:1019200004BF0220B0BD5CB1082C0FD0042C14BF42
:1019300005F1410005F13F00007801280DD10AE0D2
:1019400005F13E000078012807D104E005F14000D0
:101950000078012801D112B90BB10120B0BD0220DD
:1019600064B1082C36D0042C14BF85F8410085F8EA
:101970003F004FEAB400032806D931E085F83E0065
:101980004FEAB40003282BD8DFE800F0022C4E7198
:10199000686A41F65931C0F600018162686A41F611
:1019A000C131C0F60001C162686A41F2F921D5F87F
:1019B00000C0C0F600010163686A0CF1340C1146E6
:1019C000624605F023FD0028C7D12868C16841F4AC
:1019D00000716EE085F840004FEAB4000328D3D9C7
:1019E000286867E0A86A41F65931C0F600018162B3
:1019F000A86A41F6C131C0F60001C162A86A41F28D
:101A0000F921D5F800C0C0F600010163A86A0CF105
:101A1000380C1146624605F0F9FC00289DD1286873
:101A2000C16841F4806144E0E86A41F65931C0F68A
:101A300000018162E86A41F6C131C0F60001C1626D
:101A4000E86A41F2F921D5F800C0C0F6000101634F
:101A5000E86A0CF13C0C1146624605F0D7FC002800
:101A60007FF47BAF2868C16841F4006121E0286BF6
:101A700041F65931C0F600018162286B41F6C1314F
:101A8000C0F60001C162286B41F2F921D5F800C00F
:101A9000C0F600010163286B0CF1400C1146624650
:101AA00005F0B4FC00287FF458AF2868C16841F401
:101AB0008051C16004F01F010122036A02FA01F1A2
:101AC00023EA01020262026A0A4340F6FF31C4F2CD
:101AD00000018842026217DD40F60042C4F20002B3
:101AE000904220D043F20043C4F20103984205D053
:101AF00042F60045C4F20105A8421BD1456C88425C
:101B000045F4004545641BDCB0F1804F0BD040F23A
:101B10000041C4F20001884205D040F60001C4F241
:101B20000001884206D1816801F00701062904BF3F
:101B30000020B0BD016841F0010101600020B0BD8E
:101B40009042F0D09842EED042F60041C4F201013A
:101B50008842E8D0EEE700BF10B5446A616A81426E
:101B600011D0A16A814216D0E16A81421BD0216B5B
:101B700081421FD1806908210028217704BF0120FC
:101B800084F8410016E0816901200029207708BF10
:101B900084F83E000EE080690221217750B90120CF
:101BA00084F83F0006E080690421217710B9012004
:101BB00084F84000204606F099FE0020207710BDF2
:101BC00010B5446A616A81420AD0A16A814209D093
:101BD000E16A814208D0216B814207D1082004E0EC
:101BE000012002E0022000E004202077204603F0DC
:101BF00049F90020207710BDB0B50D464FEAB1017C
:101C00000329044622D8DFE801F002091017204614
:101C100050F8241BCA6822F4007213E0204650F8E2
:101C2000281BCA6822F480620CE0204650F82C1B66
:101C3000CA6822F4006205E0204650F8301BCA68EA
:101C400022F48052CA60006805F052FC206805F05A
:101C50001F010122036A02FA01F123EA0101016274
:101C600043F20042016AC4F201029042016205D0CF
:101C700042F60041C4F20101884209D1016A41F2F1
:101C80001112114204D1016A40F2444211420ED0B5
:101C9000016A41F21112114212D1016A40F244422A
:101CA00011420DD1016821F00101016008E0416C91
:101CB00021F400414164016A41F211121142ECD059
:101CC0000120082D09D0042D0BD0002D14BF84F85D
:101CD000410084F83E000020B0BD84F840000020A0
:101CE000B0BD84F83F000020B0BD00BF002804BF95
:101CF0000120704710B5044690F83D0028B9002037
:101D000084F83C00204600F083F8022084F83D006F
:101D1000206840F6FF330268C4F2000343F2004C2F
:101D20009842C4F2010C20DCB0F1804F2BD040F27D
:101D30000041C4F20001884225D040F60001C4F2FF
:101D4000000188421FD0984223DCB0F1804F2ED092
:101D500040F20041C4F20001884228D040F6000160
:101D6000C4F20001884222D025E040F60041C4F2CE
:101D70000001884207D0604505D042F60041C4F218
:101D800001018842DFD1A16822F070020A43984223
:101D9000DBDD40F60041C4F20001884207D0604517
:101DA00005D042F60041C4F20101884203D1216905
:101DB00022F440720A43A36922F08001D4F804E0BF
:101DC000E268194360450160C262C0F828E005D0AE
:101DD00042F60041C4F20101884201D16169016308
:101DE00001214161002084F8461084F83E1084F8F7
:101DF0003F1084F8401084F8411084F8421084F8B1
:101E0000431084F8441084F8451084F83D1010BD48
:101E1000704700BF10B50446022084F83D002068DA
:101E200041F21112016A114208D1016A40F24442A2
:101E3000114203D1016821F001010160204600F048
:101E400019F80021002084F8461084F83E1084F828
:101E50003F1084F8401084F8411084F8421084F850
:101E6000431084F8441084F8451084F83D1084F839
:101E70003C1010BD704700BF41B1082909D00429AA
:101E800014BF00F1410200F13F0204E000F13E0204
:101E900001E000F140021278012A1CBF01207047C6
:101EA000022241B1082909D0042914BF80F8412039
:101EB00080F83F2004E080F83E2001E080F84020D8
:101EC000006801F01F010122036A02FA01F123EA0E
:101ED00001020262026A0A4340F6FF31C4F20001C5
:101EE0008842026217DD40F60042C4F200029042CE
:101EF00020D043F2004CC4F2010C604505D042F6FC
:101F00000043C4F2010398421BD1436C884243F45E
:101F1000004343641BDCB0F1804F0BD040F2004122
:101F2000C4F20001884205D040F60001C4F200016D
:101F3000884206D1816801F00701062904BF00200C
:101F40007047016841F00101016000207047904234
:101F5000F0D06045EED042F60041C4F20101884263
:101F6000E8D0EEE710B5026801F01F0E4FF0010C4B
:101F7000146A0CFA0EF324EA0303136243F20044DA
:101F8000136AC4F20104A242136205D042F6004370
:101F9000C4F201039A4209D1136A41F21114234297
:101FA00004D1136A40F2444423420ED0136A41F232
:101FB0001114234212D1136A40F2444423420DD13A
:101FC000136823F00103136008E0536C23F400430B
:101FD0005364136A41F211142342ECD008290BD048
:101FE00004290ED000294FF0010114BF80F84110E0
:101FF00080F83E10002010BD012180F84010002024
:1020000010BD012180F83F10002010BD41B108290A
:1020100009D0042914BF00F1410200F13F0204E09D
:1020200000F13E0201E000F140021278012A1CBFDB
:1020300001207047022261B1082919D0042914BF78
:1020400080F8412080F83F204FEAB102032A06D9E8
:1020500014E080F83E204FEAB102032A0ED8DFE8F0
:1020600002F0020F14190068C26842F0020215E083
:1020700080F840204FEAB102032AF0D900680EE050
:102080000068C26842F0040208E00068C26842F0DA
:10209000080203E00068C26842F01002C26001F06A
:1020A0001F010122036A02FA01F123EA010202621E
:1020B000026A0A4340F6FF31C4F20001884202621C
:1020C00017DD40F60042C4F20002904220D043F2F5
:1020D000004CC4F2010C604505D042F60043C4F246
:1020E000010398421BD1436C884243F4004343648C
:1020F0001BDCB0F1804F0BD040F20041C4F2000174
:10210000884205D040F60001C4F20001884206D1A1
:10211000816801F00701062904BF002070470168AB
:1021200041F001010160002070479042F0D060450D
:10213000EED042F60041C4F201018842E8D0EEE759
:1021400010B54FEAB102032A08D8DFE802F002090D
:102150000E130268D36823F002030FE002680EE05A
:102160000268D36823F0040308E00268D36823F010
:10217000080303E00268D36823F01003D36001F082
:102180001F0E4FF0010C146A0CFA0EF324EA03033D
:10219000136243F20044136AC4F20104A2421362C0
:1021A00005D042F60043C4F201039A4209D1136AF2
:1021B00041F21114234204D1136A40F244442342F1
:1021C0000ED0136A41F21114234212D1136A40F265
:1021D000444423420DD1136823F00103136008E047
:1021E000536C23F400435364136A41F211142342E5
:1021F000ECD008290BD004290ED000294FF00101A2
:1022000014BF80F8411080F83E10002010BD01215D
:1022100080F84010002010BD012180F83F10002000
:1022200010BD00BFB0B50C46054641B1082C09D021
:10223000042C14BF05F1410005F13F0004E005F155
:102240003E0001E005F140000078022804BF0220B2
:10225000B0BD5CB1082C0FD0042C14BF05F14100B7
:1022600005F13F00007801280DD10AE005F13E009C
:102270000078012807D104E005F14000007801282A
:1022800001D112B90BB10120B0BD022064B1082CFC
:1022900036D0042C14BF85F8410085F83F004FEA82
:1022A000B400032806D931E085F83E004FEAB400B7
:1022B00003282BD8DFE800F0022C4E71686A41F643
:1022C0005931C0F600018162686A41F6C131C0F639
:1022D0000001C162686A41F2F921D5F800C0C0F678
:1022E00000010163686A0CF1340C1146624605F086
:1022F0008DF80028C7D12868C16841F400716EE0EC
:1023000085F840004FEAB4000328D3D9286867E075
:10231000A86A41F65931C0F600018162A86A41F607
:10232000C131C0F60001C162A86A41F2F921D5F8B5
:1023300000C0C0F600010163A86A0CF1380C114618
:10234000624605F063F800289DD12868C16841F411
:10235000806144E0E86A41F65931C0F600018162CB
:10236000E86A41F6C131C0F60001C162E86A41F293
:10237000F921D5F800C0C0F600010163E86A0CF14C
:102380003C0C1146624605F041F800287FF47BAF13
:102390002868C16841F4006121E0286B41F6593199
:1023A000C0F600018162286B41F6C131C0F6000120
:1023B000C162286B41F2F921D5F800C0C0F60001D6
:1023C0000163286B0CF1400C1146624605F01EF8C3
:1023D00000287FF458AF2868C16841F48051C1607B
:1023E00004F01F010122036A02FA01F123EA01024B
:1023F0000262026A0A4340F6FF31C4F200018842D9
:10240000026217DD40F60042C4F20002904220D082
:1024100043F20043C4F20103984205D042F600455E
:10242000C4F20105A8421BD1456C884245F4004521
:1024300045641BDCB0F1804F0BD040F20041C4F288
:102440000001884205D040F60001C4F20001884234
:1024500006D1816801F00701062904BF0020B0BD44
:10246000016841F0010101600020B0BD9042F0D050
:102470009842EED042F60041C4F201018842E8D011
:10248000EEE700BFB0B50D464FEAB101032904469F
:1024900022D8DFE801F002091017204650F8241B6B
:1024A000CA6822F4007213E0204650F8281BCA685C
:1024B00022F480620CE0204650F82C1BCA6822F4FB
:1024C000006205E0204650F8301BCA6822F48052B2
:1024D000CA60006805F00CF8206805F01F010122B1
:1024E000036A02FA01F123EA0101016243F20042A8
:1024F000016AC4F201029042016205D042F6004135
:10250000C4F20101884209D1016A41F2111211425B
:1025100004D1016A40F2444211420ED0016A41F2F4
:102520001112114212D1016A40F2444211420DD1FE
:10253000016821F00101016008E0416C21F40041D3
:102540004164016A41F211121142ECD00120082DC0
:1025500009D0042D0BD0002D14BF84F8410084F85D
:102560003E000020B0BD84F840000020B0BD84F8DB
:102570003F000020B0BD00BF002804BF012070470D
:1025800010B5044690F83D0028B9002084F83C00BE
:10259000204600F083F8022084F83D00206840F6D1
:1025A000FF330268C4F2000343F2004C9842C4F2C5
:1025B000010C20DCB0F1804F2BD040F20041C4F27E
:1025C0000001884225D040F60001C4F20001884293
:1025D0001FD0984223DCB0F1804F2ED040F2004152
:1025E000C4F20001884228D040F60001C4F2000184
:1025F000884222D025E040F60041C4F20001884222
:1026000007D0604505D042F60041C4F2010188427E
:10261000DFD1A16822F070020A439842DBDD40F668
:102620000041C4F20001884207D0604505D042F65F
:102630000041C4F20101884203D1216922F44072B1
:102640000A43A36922F08001D4F804E0E268194348
:1026500060450160C262C0F828E005D042F6004142
:10266000C4F20101884201D1616901630121416124
:10267000002084F8461084F83E1084F83F1084F857
:10268000401084F8411084F8421084F8431084F814
:10269000441084F8451084F83D1010BD704700BF09
:1026A00010B50446022084F83D00206841F2111262
:1026B000016A114208D1016A40F24442114203D139
:1026C000016821F001010160204600F019F80021A5
:1026D000002084F8461084F83E1084F83F1084F8F7
:1026E000401084F8411084F8421084F8431084F8B4
:1026F000441084F8451084F83D1084F83C1010BD57
:10270000704700BF41B108290BD004290ED100F158
:102710003F0200F143030DE000F13E0200F14203ED
:1027200008E000F1400200F1440303E000F141023F
:1027300000F1450312781B78012A4FF0010208BF0F
:10274000012B01D010467047022241B108290BD05D
:1027500004290ED180F83F2080F843200DE080F856
:102760003E2080F8422008E080F8402080F8442095
:1027700003E080F8412080F84520006801F01F0147
:102780000122036A02FA01F123EA01020262026AEB
:10279000114340F6FF32C4F20002904201620FDCA6
:1027A000B0F1804F1ED040F20041C4F200018842D7
:1027B00018D040F60001C4F20001884212D01EE099
:1027C00040F60041C4F2000188420BD043F20041C0
:1027D000C4F20101884205D042F60041C4F2010171
:1027E00088420CD1816801F00701062904BF00204E
:1027F0007047016841F001010160002070470168E5
:10280000002241F0010101601046704710B50268D6
:1028100001F01F0E4FF0010C146A0CFA0EF324EABB
:1028200003031362136A41F211141362136A234201
:1028300004D1136A40F24444234217D0E1B108297D
:102840000DD004294FF0010119BF80F8411080F824
:10285000451080F83F1080F84310002010BD012182
:1028600080F8401080F84410002010BD136823F059
:10287000010313600029E2D1012180F83E1080F8A5
:102880004210002010BD00BF41B108290BD004291F
:102890000ED100F13F0200F143030DE000F13E02D2
:1028A00000F1420308E000F1400200F1440303E0BC
:1028B00000F1410200F1450312781B78012A4FF024
:1028C000010208BF012B01D010467047022261B1FE
:1028D000082913D0042922D180F83F2080F8432012
:1028E0004FEAB102032A11D921E080F83E2080F896
:1028F00042204FEAB102032A08D918E080F84020AC
:1029000080F844204FEAB102032A10D8DFE802F031
:102910000211161B0068C26842F0020217E080F83C
:10292000412080F845204FEAB102032AEED9006821
:102930000EE00068C26842F0040208E00068C26865
:1029400042F0080203E00068C26842F01002C26070
:1029500001F01F010122036A02FA01F123EA0102D8
:102960000262026A114340F6FF32C4F20002904252
:1029700001620FDCB0F1804F1ED040F20041C4F282
:102980000001884218D040F60001C4F200018842DC
:1029900012D01EE040F60041C4F2000188420BD084
:1029A00043F20041C4F20101884205D042F60041E1
:1029B000C4F2010188420CD1816801F007010629A7
:1029C00004BF00207047016841F001010160002050
:1029D00070470168002241F0010101601046704714
:1029E00010B54FEAB102032A08D8DFE802F0020965
:1029F0000E130268D36823F002030FE002680EE0B2
:102A00000268D36823F0040308E00268D36823F067
:102A1000080303E00268D36823F01003D36001F0D9
:102A20001F0E4FF0010C146A0CFA0EF324EA030394
:102A30001362136A41F211141362136A234204D120
:102A4000136A40F24444234217D0E1B108290DD063
:102A500004294FF0010119BF80F8411080F845109A
:102A600080F83F1080F84310002010BD012180F84D
:102A7000401080F84410002010BD136823F00103BB
:102A800013600029E2D1012180F83E1080F8421045
:102A9000002010BD70B5064641B108290BD00429AD
:102AA0000ED106F13F0006F143040DE006F13E00B1
:102AB00006F1420408E006F1400006F1440403E098
:102AC00006F1410006F1450405782478022D4FF007
:102AD000020018BF022C00D170BD012D4FF0010083
:102AE00008BF012CF8D11AB9002B1CBF012070BD02
:102AF000022041B108290BD004290ED186F83F00ED
:102B000086F843000DE086F83E0086F8420008E0B3
:102B100086F8400086F8440003E086F8410086F815
:102B20004500D6F800C001F01F000125DCF8204068
:102B300005FA00F024EA0005CCF82050DCF820501B
:102B4000284340F6FF35C4F20005AC45CCF8200020
:102B50000DDCBCF1804F1CD040F20040C4F20000FC
:102B6000844516D040F60000C4F200000FE040F6A5
:102B70000040C4F2000084450BD043F20040C4F290
:102B80000100844505D042F60040C4F201008445AE
:102B900005D1DCF8080000F00700062805D0DCF8B5
:102BA000000040F00100CCF800004FEAB10003281B
:102BB00021D8DFE800F002223F5E706A42F6B5419C
:102BC000C0F600018162706A42F62951C0F6000128
:102BD000C162706A41F2F921C0F600010163706AB6
:102BE0000CF1340104F012FC00285AD13068C1689D
:102BF00041F400713AE0002070BDB06A42F6B54180
:102C0000C0F600018162B06A42F62951C0F60001A7
:102C1000C162B06A41F2F921C0F600010163B06AF5
:102C20000CF1380104F0F2FBD8BB3068C16841F404
:102C300080611BE0F06A42F6B541C0F60001816296
:102C4000F06A42F62951C0F60001C162F06A41F211
:102C5000F921C0F600010163F06A0CF13C0104F0B7
:102C6000D5FBF0B93068C16841F40061C160002053
:102C700070BD306B42F6B541C0F600018162306B29
:102C800042F62951C0F60001C162306B41F2F921D0
:102C9000C0F600010163306B0CF1400104F0B6FB9B
:102CA00008B1012070BD3068C16841F48051C16035
:102CB000002070BD10B5446A616A814212D0A16AD9
:102CC000814218D0E16A81421FD0216B814225D117
:102CD00080690821217708BB012084F8410084F82D
:102CE00045001BE0816901202077B9B984F83E00D6
:102CF00084F8420012E080690221217770B9012036
:102D000084F83F0084F8430008E0806904212177BB
:102D100020B9012084F8400084F84400204600F0E7
:102D200039FF0020207710BD10B5446A616A8142E6
:102D30000AD0A16A814209D0E16A814208D0216BA0
:102D4000814207D1082004E0012002E0022000E0D7
:102D500004202077204602F093F80020207710BD51
:102D6000B0B5044600680D4601F01F010122036A58
:102D700002FA01F123EA01010162026A4FEAB50198
:102D80000329026221D8DFE801F002091017C168A7
:102D900021F40071C16004F1240013E0C16821F442
:102DA0008061C16004F128000CE0C16821F4006179
:102DB000C16004F12C0005E0C16821F48051C160BC
:102DC00004F13000006804F093FB206841F2111216
:102DD000016A114204D1016A40F24442114215D005
:102DE0000120D5B1082D0BD0042D19BF84F8410066
:102DF00084F8450084F83F0084F843000020B0BD0B
:102E000084F8400084F844000020B0BD016821F03F
:102E1000010101600120002DE4D184F83E0084F816
:102E200042000020B0BD00BF002804BF0120704751
:102E300070B5044690F83D000E4628B9002084F88D
:102E40003C00204600F080F8022084F83D00206815
:102E500040F6FF330268C4F2000343F2004C98428C
:102E6000C4F2010C20DCB0F1804F2BD040F20041C5
:102E7000C4F20001884225D040F60001C4F20001EE
:102E800088421FD0984223DCB0F1804F2ED040F210
:102E90000041C4F20001884228D040F60001C4F28B
:102EA0000001884222D025E040F60041C4F2000132
:102EB000884207D0604505D042F60041C4F20101C6
:102EC0008842DFD1A16822F070020A439842DBDD1C
:102ED00040F60041C4F20001884207D0604505D0A9
:102EE00042F60041C4F20101884203D1216922F473
:102EF00040720A43A36922F080016268E5681943C1
:102F000060450160C562826205D042F60041C4F2AC
:102F10000101884201D161690163012141610268B7
:102F200022F008020260026832430260002084F846
:102F3000461084F83E1084F83F1084F8421084F85C
:102F4000431084F83D1070BD704700BF10B50446B3
:102F5000022084F83D00206841F21112016A1142FA
:102F600008D1016A40F24442114203D1016821F0C4
:102F700001010160204600F011F80021002084F8D2
:102F8000461084F83E1084F83F1084F8421084F80C
:102F9000431084F83D1084F83C1010BD704700BF0A
:102FA000014690F83E0091F83F2091F8423091F8A8
:102FB00043C001284FF0010008BF012A00D070472C
:102FC000012BFCD1BCF1010F18BF7047022081F822
:102FD0003E0081F83F0081F8420081F84300086814
:102FE00043F20042016AC4F2010221F001010162D0
:102FF000016A904241F001010162016A21F0100171
:103000000162016A41F01001016207D042F60041FD
:10301000C4F2010188421CBF00207047416C41F49A
:1030200000414164002070470146006843F20043BC
:10303000026AC4F2010322F001020262026A9842AB
:103040000262026A22F010020262026A026205D083
:1030500042F60042C4F20102904209D1026A41F2F2
:1030600011131A4204D1026A40F244431A420ED0AC
:10307000026A41F211131A4212D1026A40F2444329
:103080001A420DD1026822F00102026008E0426C8F
:1030900022F400424264026A41F211131A42ECD057
:1030A0000122002081F83E2081F83F2081F8422053
:1030B00081F84320704700BF014690F83E0091F828
:1030C0003F2091F8423091F843C001284FF00100B1
:1030D00008BF012A00D07047012BFCD1BCF1010FC1
:1030E00018BF7047022081F83E0081F83F0081F848
:1030F000420081F84300086843F20042C168C4F20C
:10310000010241F00201C160C168904241F0040136
:10311000C160016A21F001010162016A41F001010F
:103120000162016A21F010010162016A41F010019F
:10313000016207D042F60041C4F2010188421CBF7F
:1031400000207047416C41F4004141640020704709
:103150000146006843F20043C268C4F2010322F052
:103160000202C260C268984222F00402C260026A8F
:1031700022F001020262026A0262026A22F0100276
:103180000262026A026205D042F60042C4F2010203
:10319000904209D1026A41F211131A4204D1026A23
:1031A00040F244431A420ED0026A41F211131A420D
:1031B00012D1026A40F244431A420DD1026822F051
:1031C0000102026008E0426C22F400424264026A9A
:1031D00041F211131A42ECD00122002081F83E2066
:1031E00081F83F2081F8422081F84320704700BFDA
:1031F000002804BF012070472DE9F04F81B004463C
:1032000090F83D008B4628B9002084F83C00204609
:1032100000F0AEF8022084F83D00206844F2070276
:10322000816840F6FF33914381600268C4F2000375
:1032300043F2004C9842C4F2010C20DCB0F1804F04
:103240002BD040F20041C4F20001884225D040F664
:103250000001C4F2000188421FD0984223DCB0F183
:10326000804F2ED040F20041C4F20001884228D0A5
:1032700040F60001C4F20001884222D025E040F669
:103280000041C4F20001884207D0604505D042F6F3
:103290000041C4F201018842DFD1A16822F070022E
:1032A0000A439842DBDD40F60041C4F20001884247
:1032B00007D0604505D042F60041C4F201018842C2
:1032C00003D1216922F440720A43A36922F08001EC
:1032D0006268E568194360450160C562826205D095
:1032E00042F60041C4F20101884201D161690163E3
:1032F0000121416182688369D0F820C0DBE9005E6A
:10330000DBE9027845EA020ADBF818504FF6FF794C
:1033100023EA090347EA05254FF6FC47BD43DBE9ED
:10332000077643EA0803DBF810202B4343EA072320
:1033300043EA02122CF02203DBF8147043EA0E0376
:1033400042EA063243EA0713C0F808A0826103622A
:1033500084F8461084F83E1084F83F1084F8421038
:1033600084F8431084F83D10002001B0BDE8F08FD0
:10337000704700BF10B50446022084F83D00206865
:1033800041F21112016A114208D1016A40F244422D
:10339000114203D1016821F001010160204600F0D3
:1033A00011F80021002084F8461084F83E1084F8BB
:1033B0003F1084F8421084F8431084F83D1084F8DC
:1033C0003C1010BD704700BF80B590F83E2090F8CB
:1033D0003F3090F842E090F843C0042909D0B1B9D9
:1033E000012A4FF0010208BFBEF1010F32D0104692
:1033F00080BD012B4FF0010208BFBCF1010FF6D1D7
:10340000022180F83F1080F8431000681EE0012A76
:103410004FF0010208BF012BE9D1BEF1010FE6D147
:10342000BCF1010FE3D1022280F83E2080F83F205A
:1034300080F8422080F8432089B10068016A21F0B9
:1034400001010162016A41F00101016210216FF086
:10345000100208E0022180F83E1080F84210006857
:1034600001216FF00102036A1A400262026A1143ED
:1034700001620168002241F001010160104680BD37
:10348000042904D029B902686FF0010C0AE002682F
:1034900006E00268136A23F001031362136A1362E1
:1034A0006FF0100C136A03EA0C031362136A1362C1
:1034B000D2F820C041F211131CEA030F06D1D2F852
:1034C00020C040F244431CEA030F0ED06FF0040208
:1034D000114212D0012180F83E1080F83F1080F890
:1034E000421080F8431000207047136823F0010356
:1034F00013606FF004021142ECD108290FD00429A7
:1035000014D000294FF0010119BF80F8411080F854
:10351000451080F83E1080F84210002070470121CD
:1035200080F8401080F8441000207047012180F896
:103530003F1080F843100020704700BF80B590F81E
:103540003E2090F83F3090F842E090F843C00429C4
:1035500009D0F1B9012A4FF0010208BFBEF1010FF5
:1035600044D0104680BD012B4FF0010208BFBCF1D2
:10357000010FF6D1022180F83F1080F84310006857
:10358000016A21F010010162016A41F0100101623B
:103590002AE0012A4FF0010208BF012BE1D1BEF160
:1035A000010FDED1BCF1010FDBD1022280F83E20F9
:1035B00080F83F2080F8422080F84320D9B100688D
:1035C000016A21F001010162016A41F00101016219
:1035D000016A21F010010162016A41F010010162EB
:1035E000C16841F00201C16004210EE0022180F8AF
:1035F0003E1080F842100068016A21F0010101626A
:10360000016A41F0010101620221C2681143C160F7
:103610000168002241F001010160104680BD00BF39
:1036200049B102680429136A0FD123F01003136211
:10363000136A136218E002686FF0020C136A23F039
:1036400001031362136A136210E023F00103136293
:10365000136A1362136A23F010031362136A13626E
:10366000D36823F00203D3606FF0040CD36803EA3D
:103670000C03D360D2F820C041F211131CEA030FEF
:1036800006D1D2F820C040F244431CEA030F0ED00A
:103690006FF00402114212D0012180F83E1080F830
:1036A0003F1080F8421080F84310002070471368E4
:1036B00023F0010313606FF004021142ECD179B1E1
:1036C000042914D008294FF0010119BF80F84110D6
:1036D00080F8451080F8401080F8441000207047B2
:1036E000012180F83E1080F842100020704701212F
:1036F00080F83F1080F84310002070472DE9F04318
:1037000081B09946DDF8208090F83E6090F83F70D7
:1037100090F8425090F84330044604290AD000291A
:103720004CD1022E4FF0020018BF022D75D101B00E
:10373000BDE8F083022F4FF0020018BF022BF6D035
:10374000012F4FF0010008BF012BF0D1B9F1000F9C
:1037500003D1B8F1000F40F08980022084F83F00C7
:1037600084F84300A06A42F6B542C0F600028262C5
:10377000A06A42F62952C0F60002C262A06A41F273
:10378000F922C0F6000221680263A06A38314A4675
:10379000434603F03BFE002868D12068C16841F42D
:1037A0008061C160016841F001010160016A21F09E
:1037B00010010162016A41F010016BE0022E4FF02E
:1037C000020018BF022FB2D0022DB0D0022BAED013
:1037D000012E4FF0010008BF012FA8D1012DA6D165
:1037E000012BA4D1002A104618BF0120B9F1000F07
:1037F0004B4618BF0123184202D1B8F1000F35D152
:1038000002203C2984F83E0084F83F0084F84200FE
:1038100084F8430043D081B13DE0012E4FF0010018
:1038200008BF012D7FF483AF12B9B8F1000F1DD18D
:10383000022084F83E0084F84200606A42F6B543F4
:10384000C0F600038362606A42F62953C0F60003A3
:10385000C362606A41F2F923C0F600032168036382
:10386000606A3431434603F0D1FD18B1012001B044
:10387000BDE8F0832068C16841F40071C16001684F
:1038800041F001010160016A21F001010162016A58
:1038900041F001010162002001B0BDE8F083606ADF
:1038A00042F6B545C0F600058562606A42F62956C3
:1038B000C0F60006C662606A41F2F927C0F600074A
:1038C00021680763606A3431434603F09FFD002896
:1038D000CCD1A06A21688562A06A3831C662A06A2C
:1038E0004A460763A06A434603F090FD0028BDD115
:1038F0002068016841F001010160016A21F00101C5
:103900000162016A41F001010162016A21F01001C6
:103910000162016A41F010010162C16841F4007165
:10392000C160C16841F48061C160002001B0BDE8A0
:10393000F08300BFB0B50D46044669B12068042D80
:10394000016A17D121F010010162016A0162C168A8
:1039500021F48061C16023E0204650F8241B0A6AEC
:1039600022F001020A620A6A0A62CA6822F400723C
:10397000CA6017E021F001010162016A0162016A77
:1039800021F010010162016A0162C16821F4007135
:10399000C160C16821F48061C160606A03F0A8FD64
:1039A00004F12800006803F0A3FD206841F2111221
:1039B000016A114204D1016A40F2444211420ED020
:1039C0006FF00400054212D0012084F83E0084F814
:1039D0003F0084F8420084F843000020B0BD016835
:1039E00021F0010101606FF004000542ECD10120DB
:1039F0006DB1042D11D0082D19BF84F8410084F851
:103A0000450084F8400084F844000020B0BD84F8EC
:103A10003E0084F842000020B0BD84F83F0084F8E6
:103A200043000020B0BD00BF10B50168044608691E
:103A3000800744BFC8685FEA807038D408694007CF
:103A400044BFC8685FEA40703DD40869000744BFBE
:103A5000C8685FEA007043D40869C00644BFC868FC
:103A60005FEAC06048D40869C0071CBFC8685FEA45
:103A7000C0704ED10869000644BFC8685FEA0060A4
:103A80004FD40869400644BFC8685FEA406050D41C
:103A90000869800646BFC8685FEA806010BD6FF0A5
:103AA000200220460A61BDE8104002F0A9BC6FF078
:103AB00002000861012020778869800741D02046F4
:103AC00000F068F843E06FF00400086102202077FE
:103AD000886910F4407F3ED0204600F05BF840E05B
:103AE0006FF00800086104202077C86980073CD087
:103AF000204600F04FF83EE06FF01000086108200B
:103B00002077C86910F4407F39D0204600F042F891
:103B10003BE06FF001000861204600F041F82168A9
:103B2000A8E76FF080000861204602F06DFC216874
:103B3000A7E76FF040000861204600F033F82168E5
:103B4000A6E7204600F028F8204604F0CFFE2168C2
:103B50000020207772E7204600F01EF8204604F08F
:103B6000C5FE2168002020776FE7204600F014F89A
:103B7000204604F0BBFE2168002020776CE7204639
:103B800000F00AF8204604F0B1FE216800202077FA
:103B900069E700BF704700BF704700BF704700BFB4
:103BA000704700BF704700BFF0B590F83C30012B64
:103BB00004BF0220F0BD4FEAB2020123032A80F8BD
:103BC0003C303ED8DFE802F0024280C30268136A4C
:103BD00023F001031362156AD2F804E094690B68BC
:103BE00024F073048E6844EA030C43F2004425F089
:103BF0000203C4F20104A24243EA060305D042F6DE
:103C00000045C4F20105AA4205D1CD6823F00C039A
:103C100025F004052B43A24205D042F60044C4F22D
:103C20000104A24206D1D1E905542EF440762E4378
:103C300046EA040EC2F804E0C2F818C049685163AD
:103C40001362002180F83C100846F0BD026843F280
:103C50000044136AC4F2010423F010031362136AD0
:103C6000D2F804E096690D688F6826F4E64623F0E2
:103C7000200346EA052CA24243EA071305D042F688
:103C80000045C4F20105AA4207D1CD686FF0400695
:103C900023F0C00306EA05152B43A24205D042F6E5
:103CA0000044C4F20104A24207D1D1E905652EF413
:103CB000406747EA860747EA850EC2F804E0C2F883
:103CC00018C0496891633CE0026843F20044136AFB
:103CD000C4F2010423F480731362136AD2F804E07F
:103CE000D7690E688D6827F0730723F4007347EADD
:103CF000060CA24243EA052305D042F60045C4F271
:103D00000105AA4207D1CD6840F2FF462D0223F4F7
:103D10004063B5432B43A24205D042F60044C4F2AF
:103D20000104A24207D1D1E905652EF4405747EAC4
:103D3000061747EA051EC2F804E0C2F81CC049682D
:103D4000D1631362002180F83C100846F0BD026880
:103D5000136A23F480531362176A5368D6690D6897
:103D600026F4E6468C6846EA052C43F2004627F422
:103D70000057C4F20106B24247EA043405D042F6C5
:103D80000047C4F20107BA4204D14F6923F48043CB
:103D900043EA87135360C2F81CC049681164146277
:103DA000002180F83C100846F0BD00BF70B5026AE3
:103DB00042F6004E22F010020262026A46688469EE
:103DC0000B6824F4E6448D6844EA032C43F2004473
:103DD00022F02002C4F2010442EA0512A042C4F219
:103DE000010E01D0704507D1CB686FF0400522F07D
:103DF000C00205EA03131A43A04201D0704507D15F
:103E000026F44063D1E9056543EA860343EA850663
:103E10004660C0F818C049688163026270BD00BF87
:103E2000F0B590F83C30012B04BF0220F0BD012317
:103E3000042A80F83C3024D0002A48D10368D1E914
:103E400000C5D1F80CE01A6A40F6FF3722F00102F3
:103E50001A621A4652F8186F1C6AC4F20007BB4275
:103E600054DCB3F1804F63D040F20047C4F2000746
:103E7000BB425DD040F60007C4F20007BB4257D0FA
:103E80008DE00368D1E900E6D1E902C11A6A360281
:103E900022F010021A621A4652F8184F4FF2FF072A
:103EA0001D6ABE4324F4734461F30F3646EA0401ED
:103EB00025F0A0040EF00A0744EA071711601F62FC
:103EC000116821F4406111604FEA0C215FE0036842
:103ED000D1E900C4CD681E6A082A3BD126F480725D
:103EE0001A621A4652F81C7F1E6A27F0F30765F320
:103EF0000714CCF35605274365F3492617601E6265
:103F0000136823F00C031360896840E040F6004713
:103F1000C4F20007BB420BD043F20047C4F20107D2
:103F2000BB4205D042F60047C4F20107BB4236D17E
:103F300026F00306354324F00A070CF00A066EF358
:103F4000071537449D611F629F6927F00C079F6129
:103F500089681CE026F480521A621A4652F81C7FC7
:103F6000240227F4734E4FF2FF071E6ABC4365F329
:103F70000F34CCF3520544EA0E0765F34D36176053
:103F80001E62136823F44063136089680902136892
:103F900019431160002180F83C100846F0BD46F03E
:103FA0000105C8E710B5D0F820C040F6FF342CF06A
:103FB000010CC0F820C0D0F818E0D0F820C0C4F23E
:103FC0000004A0420FDCB0F1804F1ED040F200444C
:103FD000C4F20004A04218D040F60004C4F2000469
:103FE000A04212D01EE040F60044C4F20004A042F9
:103FF0000BD043F20044C4F20104A04205D042F6C3
:104000000044C4F20104A0420CD12EF00304224368
:1040100063F307122CF00A0301F00A0119448261CC
:10402000016210BD4EF00102F2E700BFF0B590F85A
:104030003C30012B04BF0220F0BD4FEAB202012345
:10404000032A80F83C3000F21881DFE802F00249D0
:1040500093DD03681A6A22F001021A621A461E6A88
:10406000D3F804C052F8185F0C6825F073058F6808
:1040700045EA040E43F2004526F00204C4F20105AD
:10408000AB4244EA070405D042F60046C4F20106FA
:10409000B34205D1CE6824F00C0426F00406344364
:1040A000AB4205D042F60045C4F20105AB4206D151
:1040B000D1E905652CF44077374347EA050CC3F88E
:1040C00004C0C3F818E04F6809695F631C629F6908
:1040D00047F008079F619F6927F004079F61C9E0C7
:1040E00003681A6A22F010021A621A461C6AD3F890
:1040F00004C052F8187F0E6827F4E6478D6847EA37
:10410000062E43F2004624F02004C4F20106B34216
:1041100044EA051405D042F60045C4F20105AB425D
:1041200007D1CD686FF0400724F0C00407EA0515F9
:104130002C43B34205D042F60045C4F20105AB4220
:1041400007D1D1E905652CF4406747EA860747EABD
:10415000850CC3F804C0C3F818E04F6809699F6371
:104160001C629F6947F400679F619F6927F480671D
:104170009F617EE003681A6A22F480721A621A460E
:104180001C6AD3F804C052F81C7F0E6827F073072E
:104190008D6847EA060E43F2004624F40074C4F228
:1041A0000106B34244EA052405D042F60045C4F2B4
:1041B0000105AB4207D1CD6840F2FF472D0224F440
:1041C0004064BD432C43B34205D042F60045C4F2DF
:1041D0000105AB4207D1D1E905652CF4405747EA08
:1041E000061747EA051CC3F804C0C3F81CE04F6873
:1041F0000969DF631C62DF6947F00807DF61DF6977
:1042000027F00407DF6135E003681A6A22F4805260
:104210001A621A46D3F820E05C6852F81C6F0D68E9
:1042200026F4E6468F6846EA052C43F200452EF454
:104230000056C4F20105AB4246EA073505D042F606
:104240000047C4F20107BB4204D14F6924F4804601
:1042500046EA87145C60C3F81CC04F6809691F6494
:104260001D62DF6947F40067DF61DF6927F480675B
:10427000DF610902136819431160002180F83C10C6
:104280000846F0BD2DE9F04F9A4204BF0120BDE879
:10429000F08F90F83C704FF0020C012F00F0F98085
:1042A000012780F83C7080F83DC001F1080ED1E98B
:1042B000004C9EE84044D1F81490042A33D0002AE0
:1042C0006AD10268176A27F001071762176AD2F8E5
:1042D00004B0956925F0730545EA040827F0020447
:1042E000264343F20044C4F2010442F60045A242D0
:1042F000C4F2010501D0AA4204D126F00C062AF02E
:1043000004073E43A24201D0AA4205D12BF44074D7
:1043100049EA0E0747EA040BC2F804B0C2F8188055
:10432000C2F834C037E00268156A25F0100515623E
:10433000156AD2F804B0976925F0200527F4E647FE
:1043400047EA042843F20044C4F20104A24245EAC9
:10435000061605D042F60045C4F20105AA4206D170
:1043600026F0C0056FF0400606EA0A162E43A24268
:1043700005D042F60044C4F20104A24205D12BF458
:10438000406449EA0E0744EA870BC2F804B0C2F859
:104390001880C2F838C01662042B21D0002B71D1CE
:1043A0000268D1E90637096A166A40F6FF3426F03A
:1043B000010616629669156AC4F20004A2422EDC58
:1043C000B2F1804F3DD040F20044C4F20004A2425A
:1043D00037D040F60004C4F20004A24231D05BE0C2
:1043E0000268D1E90637096A166A3F0226F010060C
:1043F000166296694FF2FF04156AA74326F47346C6
:1044000061F30F3747EA060125F0A00703F00A031E
:1044100047EA0313916160216FF440671FE040F6A3
:104420000044C4F20004A2420BD043F20044C4F2A0
:104430000104A24205D042F60044C4F20104A242A3
:104440002AD126F00306374361F3071725F00A0146
:1044500003F00A030B44976150216FF00C071362BD
:1044600093693B409361936823F070039360936872
:1044700019439160916821F007019160916841F0C2
:104480000601916001214FF0000C80F83D1080F88A
:104490003CC06046BDE8F08F46F00107D4E700BF9E
:1044A00080B582B0DDF810C04FF0010E0EEB1C2E6F
:1044B000CDE900CE00F002F802B080BDF0B581B0C9
:1044C000054690F84600022802D1022001B0F0BD56
:1044D00095F84600069F14460E46012807D11BB9E1
:1044E00017B1012001B0F0BD022085F84600DDF8CB
:1044F0001CC0B4F5006F26DBB4F5005F4BDAB4F5F1
:10450000006F6BD0B4F5805F40F0DF80286B41F620
:104510005932C0F600028262286B41F6C132C0F601
:104520000002C262286B41F2F922C0F6000229683B
:104530000263286B01F14C021946634602F066FFE4
:104540000028CED1C1E0B4F5807F65D0B4F5007FFE
:1045500000F08080B4F5806F40F0B780A86A41F623
:104560005932C0F600028262A86A41F6C132C0F632
:104570000002C262A86A41F2F922C0F6000229686C
:104580000263A86A01F14C021946634602F03EFF3D
:104590000028A6D199E07BD0B4F5804F40F09580FB
:1045A000A86B44F2E162C0F600028262A86B44F29A
:1045B000F562C0F60002C262A86B41F2F922C0F6B1
:1045C000000229680263A86B01F14C021946634698
:1045D00002F01CFF00287FF484AF76E0E86A41F621
:1045E0005932C0F600028262E86A41F6C132C0F672
:1045F0000002C262E86A41F2F922C0F600022968AC
:104600000263E86A01F14C021946634602F0FEFEBD
:1046100000287FF466AF58E0286A41F2DD22C0F638
:1046200000028262286A41F2F122C0F60002C262F0
:10463000286A41F2F922C0F6000229680263286A5A
:1046400001F14C021946634602F0E0FE00287FF4B7
:1046500048AF3AE0686A41F65932C0F60002826219
:10466000686A41F6C132C0F60002C262686A41F26D
:10467000F922C0F6000229680263686A01F14C025F
:104680001946634602F0C2FE00287FF42AAF1CE000
:10469000686B46F20132C0F600028262686B46F235
:1046A0000D32C0F60002C262686B41F2F922C0F618
:1046B000000229680263686B01F14C0219466346E7
:1046C00002F0A4FE00287FF40CAF286847EA060138
:1046D0008164C1682143C160002001B0F0BD00BF0A
:1046E000406A816B8969002904BF012180F83D106F
:1046F000FFF758BA406A00F0C7BB00BFB0B50D461F
:10470000B1F5006F04460BDBB5F5005F14DAB5F5C3
:10471000006F18D0B5F5805F23D104F130001DE0A3
:10472000B5F5807F12D0B5F5007F15D0B5F5806F57
:1047300017D104F1280011E00BD0B5F5804F10D14E
:1047400004F138000AE004F12C0007E004F1200035
:1047500004E004F1340001E004F12400006802F0F8
:10476000C7FE2068C168A943C1600121002084F808
:104770004610B0BD80B582B0DDF810C04FF0010E1C
:104780000EEB1C2ECDE900CE00F002F802B080BD89
:10479000F0B581B0054690F84600022802D102200B
:1047A00001B0F0BD95F84600069F14460E4601285C
:1047B00007D11BB917B1012001B0F0BD022085F867
:1047C0004600DDF81CC0B4F5006F25DBB4F5005FD2
:1047D00048DAB4F5006F67D0B4F5805F40F0D78059
:1047E000286B42F6B542C0F600028262286B42F6A0
:1047F0002952C0F60002C262286B41F2F922C0F6CB
:10480000000229680263286B4C311A46634602F0A5
:10481000FDFD0028CFD1BAE0B4F5807F61D0B4F5BA
:10482000007F7BD0B4F5806F40F0B180A86A42F67B
:10483000B542C0F600028262A86A42F62952C0F66A
:104840000002C262A86A41F2F922C0F60002296899
:104850000263A86A4C311A46634602F0D7FD00286D
:10486000A9D194E077D0B4F5804F40F09080A86B48
:1048700044F2E162C0F600028262A86B44F2F56283
:10488000C0F60002C262A86B41F2F922C0F6000233
:1048900029680263A86B4C311A46634602F0B6FDE4
:1048A00000287FF488AF72E0E86A42F6B542C0F6AD
:1048B00000028262E86A42F62952C0F60002C26231
:1048C000E86A41F2F922C0F6000229680263E86A48
:1048D0004C311A46634602F099FD00287FF46BAF15
:1048E00055E0286A41F2DD22C0F600028262286AA1
:1048F00041F2F122C0F60002C262286A41F2F922B6
:10490000C0F6000229680263286A4C311A466346E1
:1049100002F07CFD00287FF44EAF38E0686A42F672
:10492000B542C0F600028262686A42F62952C0F6B9
:104930000002C262686A41F2F922C0F600022968E8
:104940000263686A4C311A46634602F05FFD002834
:104950007FF431AF1BE0686B46F20132C0F6000213
:104960008262686B46F20D32C0F60002C262686B6A
:1049700041F2F922C0F6000229680263686B4C31EB
:104980001A46634602F042FD00287FF414AF2868FF
:1049900047EA06018164C1682143C160002001B07B
:1049A000F0BD00BFB0B50D46B1F5006F04460BDB9E
:1049B000B5F5005F14DAB5F5006F18D0B5F5805F76
:1049C00023D104F130001DE0B5F5807F12D0B5F59C
:1049D000007F15D0B5F5806F17D104F1280011E0E4
:1049E0000BD0B5F5804F10D104F138000AE004F186
:1049F0002C0007E004F1200004E004F1340001E0A1
:104A000004F12400006802F073FD2068C168A94326
:104A1000C1600121002084F84610B0BD90F83C2010
:104A2000012A4FF0020209D080F83D20026851614E
:104A30000121002280F83D1080F83C20104670478C
:104A4000B0B590F83C304FF0020C012B4FD0012351
:104A500080F83C3080F83DC04B68012B1BD03BB93F
:104A6000D0F800C0DCF8083023F47F43CCF80830DD
:104A70004FEAB202032A32D8DFE802F002121D2701
:104A800002680B689169002B0CBF21F0800141F096
:104A90008001916123E0CB685BB34FF0010C20E013
:104AA00002680B689169002B0CBF21F4004141F4AE
:104AB0000041916113E002680B68D169002B0CBFC3
:104AC00021F0800141F0800108E002680B68D169A3
:104AD000002B0CBF21F4004141F40041D1614FF0A3
:104AE000000C012180F83D10002180F83C10604648
:104AF000B0BD0368D1F808C0D1F810E09C6824F478
:104B00007F454CEA0E2425439D604FEAB202032AFA
:104B1000B2D9E4E7D0F808C011432CF47F4C41EA45
:104B2000032141EA0C018160704700BF80B590F815
:104B30003C20012A4FF0020200F0C080012380F8DF
:104B40003C3080F83D20D0F800C04FF67772DCF89A
:104B5000083023EA0202CCF808200B683F2B1CDD4A
:104B60005F2B20DD602B4FD0B3F5005F6CD0702B36
:104B700040F09E80D1E901E3C968DCF8082043EAEF
:104B80000E0322F47F4243EA01211143CCF80810BE
:104B9000DCF8081041F0770188E01F2B28DC5BB3BC
:104BA000102B29D084E0402B61D0502B40F0808026
:104BB000D1F804E0C968DCF82030DCF8202022F0CD
:104BC0000102CCF82020DCF8182022F0F00242EAA2
:104BD000011123F00A0242EA0E02CCF81810CCF8B8
:104BE0002020DCF8081041F0570121F020015DE0A1
:104BF000202B01D0302B5BD1DCF8081021F07001A4
:104C0000194341F0070151E0D1F804E0C968DCF82C
:104C1000203023F01003CCF82030DCF81830DCF81A
:104C2000202023F4704322F0A00243EA013142EA3B
:104C30000E12CCF81810CCF82020DCF8081041F047
:104C4000670121F0100131E0D1E901E3C968DCF826
:104C5000082043EA0E0322F47F4243EA0121114374
:104C6000CCF80810DCF8081041F480411EE0D1F8BF
:104C700004E0C968DCF82030DCF8202022F00102D2
:104C8000CCF82020DCF8182022F0F00242EA0111D2
:104C900023F00A0242EA0E02CCF81810CCF82020C9
:104CA000DCF8081041F0470121F03001CCF8081081
:104CB0000121002280F83D1080F83C20104680BD84
:104CC0000268506820F08000014300205160704766
:104CD000B0B5044690F83C0001284FF0020008BF30
:104CE000B0BD012584F83C5084F83D00206800F0F8
:104CF0001BF800284FF0010005D0002184F83D503A
:104D000084F83C10B0BD2068C16821F04001C1604A
:104D1000C16821F48041C1600020002184F83D5029
:104D200084F83C10B0BD00BF80B5826822F0770ED9
:104D3000D1E900C222F0070343EA0E0343EA0C0E56
:104D40006FF0030303EB3213032BC0F808E015D810
:104D5000DFE803F002162B40BCF1050F04BF012071
:104D600080BD026A036A23F0010303628369096953
:104D700023F0F00343EA011181610262002080BD4B
:104D8000D1F808C00969036A026A22F001020262CE
:104D9000826922F0F00242EA011123F00A0242EA9B
:104DA0000C0281610262002080BDD1F808C009694F
:104DB000036A23F0100303628369026A23F47043D9
:104DC00022F0A00243EA013142EA0C128161026240
:104DD000002080BDD1E902C30969826843EA0C035F
:104DE00022F47F4243EA012111438160002080BD0B
:104DF000B0B5044690F83C0001284FF0020008BF0F
:104E0000B0BD012584F83C5084F83D002068FFF7D0
:104E10008BFF00284FF0010005D0002184F83D50A1
:104E200084F83C10B0BD2068C16841F04001C16009
:104E3000C16821F48041C1600020002184F83D5008
:104E400084F83C10B0BD00BF4FEAB101032984BF14
:104E500000207047DFE801F0020E060A00683430D7
:104E60000068704700683C30006870470068403058
:104E7000006870470068383000687047704700BFAE
:104E8000704700BF704700BF704700BF704700BF4A
:104E900090F83D00704700BF90F83D00704700BF9C
:104EA00090F83D00704700BF90F83D00704700BF8C
:104EB00090F83D00704700BF90F83D00704700BF7C
:104EC000007F7047082907D0042908D0002914BFA3
:104ED00041303E30007870474030007870473F30B6
:104EE0000078704790F846007047000070B588B0B1
:104EF00000285AD0044690F83D000D4628B90020FD
:104F000084F83C00204600F055F8022084F83D006B
:104F10002068211DFCF722F820682968AB6803226D
:104F2000FFF740F820680026816921F00C018161BB
:104F30006968826911438161416841F08001416083
:104F4000816821F070018160816841F040018160D9
:104F5000816821F007018160816841F0040181606E
:104F6000CDE9056670210191E96807960496CDE9BF
:104F7000021601A9FEF71AFF2068416821F07001AE
:104F80004160416841F050014160012084F84600D1
:104F900084F83E0084F83F0084F8420084F843001F
:104FA00084F83D00304608B070BD0126304608B098
:104FB00070BD00BF704700BF10B50446022084F8E2
:104FC0003D00206841F21112016A114208D1016AC4
:104FD00040F24442114203D1016821F00101016015
:104FE000204600F011F80021002084F8461084F8D3
:104FF0003E1084F83F1084F8421084F8431084F87F
:105000003D1084F83C1010BD704700BF10B5044639
:1050100090F83E0094F83F3094F8422094F8431002
:1050200001284FF0010008BF012B00D010BD012A5C
:10503000FCD1012918BF10BD022084F83E0084F87D
:105040003F0084F8420084F84300206800210122D8
:10505000FCF7E0FA206840F6FF31C4F20001884214
:105060000FDCB0F1804F1ED040F20041C4F20001CD
:10507000884218D040F60001C4F20001884212D0E4
:1050800018E040F60041C4F2000188420BD043F220
:105090000041C4F20101884205D042F60041C4F249
:1050A0000101884206D1816801F00701062904BF89
:1050B000002010BD016841F001010160002010BD19
:1050C00010B50446006800210022FCF7A3FA20680E
:1050D00041F21112016A114208D1016A40F24442C0
:1050E000114203D1016821F001010160012100207A
:1050F00084F83E1084F83F1084F8421084F843107E
:1051000010BD00BF10B5044690F83E0094F83F3043
:1051100094F8422094F8431001284FF0010008BF92
:10512000012B00D010BD012AFCD1012918BF10BDF0
:10513000022084F83E0084F83F0084F8420084F89E
:10514000430020680122C16841F00201C1600021D2
:10515000FCF760FA206840F6FF31C4F20001884293
:105160000FDCB0F1804F1ED040F20041C4F20001CC
:10517000884218D040F60001C4F20001884212D0E3
:1051800018E040F60041C4F2000188420BD043F21F
:105190000041C4F20101884205D042F60041C4F248
:1051A0000101884206D1816801F00701062904BF88
:1051B000002010BD016841F001010160002010BD18
:1051C00010B50446006800210022FCF723FA20688D
:1051D00041F21112C16821F00201C160016A11425D
:1051E00008D1016A40F24442114203D1016821F022
:1051F000010101600121002084F83E1084F83F1075
:1052000084F8421084F8431010BD00BFF0B581B09F
:105210000F4690F83E10044690F8420002294FF0E5
:10522000020518BF022802D1284601B0F0BD0129AD
:105230004FF0010508BF0128F6D1164627B91EB167
:105240000125284601B0F0BD022084F83E0084F814
:1052500042002068002101220125FCF7DBF9606A89
:1052600042F6B542C0F600028262606A42F62952F6
:10527000C0F60002C262606A41F2F922C0F6000282
:1052800021680263606A34313A46334602F0BEF860
:105290000028C9D1206840F6FF32C168C4F200027C
:1052A00041F400719042C1600DDCB0F1804F1CD020
:1052B00040F20041C4F20001884216D040F60001DD
:1052C000C4F200010FE040F60041C4F20001884240
:1052D0000BD043F20041C4F20101884205D042F6EE
:1052E0000041C4F20101884208D1816801F0070140
:1052F000062903D10025284601B0F0BD016800252C
:1053000041F001010160284601B0F0BD10B504462E
:10531000006800210022FCF77DF92168606ACA68F4
:1053200022F40072CA6002F0E3F8206841F2111220
:10533000016A114208D1016A40F24442114203D18C
:10534000016821F0010101600121002084F83E1074
:1053500084F8421010BD00BF41B1082909D00429CA
:1053600014BF00F1450200F1430204E000F14202E3
:1053700001E000F144021278012A1CBF01207047AD
:10538000022241B1082909D0042914BF80F8452020
:1053900080F8432004E080F8422001E080F84420B7
:1053A000006801F01F010422036A02FA01F123EAF6
:1053B00001020262026A11430162416C40F6FF324F
:1053C000C4F2000241F40041904241640FDCB0F1AC
:1053D000804F1ED040F20041C4F20001884218D034
:1053E00040F60001C4F20001884212D018E040F6F5
:1053F0000041C4F2000188420BD043F20041C4F2E4
:105400000101884205D042F60041C4F20101884200
:1054100006D1816801F00701062904BF002070470A
:10542000016841F0010101600020704710B5026879
:1054300001F01F0E4FF0040C146A0CFA0EF324EA6C
:1054400003031362136A1362146A41F211131C42BC
:1054500006D1D2F820C040F244441CEA040F0CD01C
:10546000146A1C4210D1136A40F2444423420BD107
:10547000136823F00103136006E0546C24F4004425
:105480005464146A1C42EED008290BD004290ED0B3
:1054900000294FF0010114BF80F8451080F8421038
:1054A000002010BD012180F84410002010BD012112
:1054B00080F84310002010BD41B1082909D004290B
:1054C00014BF00F1450200F1430204E000F1420282
:1054D00001E000F144021278012A1CBF012070474C
:1054E000022259B1082911D0042917D180F843208C
:1054F0000068C26842F00402C26012E080F84220F4
:105500000068C26842F00202C2600AE080F84420EB
:105510000068C26842F00802C26002E080F84520DC
:105520000068C26801F01F0142F08002C2600422DC
:10553000036A02FA01F123EA01020262026A1143DC
:105540000162416C40F6FF32C4F2000241F40041B6
:10555000904241640FDCB0F1804F1ED040F2004118
:10556000C4F20001884218D040F60001C4F20001E4
:10557000884212D018E040F60041C4F2000188428F
:105580000BD043F20041C4F20101884205D042F63B
:105590000041C4F20101884206D1816801F007018F
:1055A000062904BF00207047016841F00101016035
:1055B0000020704710B541B104290BD008290FD144
:1055C0000268D36823F0080308E00268D36823F078
:1055D000020303E00268D36823F00403D36000E011
:1055E000026801F01F0E4FF0040C146A0CFA0EF35F
:1055F00024EA03031362136A40F244441362136AF9
:10560000234205D0146A41F211131C4210D108E064
:10561000D36823F08003D360146A41F211131C4253
:1056200006D1D2F820C040F244441CEA040F0CD04A
:10563000146A1C4210D1136A40F2444423420BD135
:10564000136823F00103136006E0546C24F4004453
:105650005464146A1C42EED008290BD004290ED0E1
:1056600000294FF0010114BF80F8451080F8421066
:10567000002010BD012180F84410002010BD012140
:1056800080F84310002010BDB0B50C46054641B16E
:10569000082C09D0042C14BF05F1450005F1430086
:1056A00004E005F1420001E005F144000078022821
:1056B00004BF0220B0BD5CB1082C0FD0042C14BF75
:1056C00005F1450005F14300007801280DD10AE0FD
:1056D00005F142000078012807D104E005F14400FB
:1056E0000078012801D112B90BB10120B0BD022010
:1056F0004CB3082C4DD0042C72D185F84300A86A15
:1057000045F66D01C0F600018162A86A41F6C1311B
:10571000C0F60001C162A86A45F6D501D5F800C0FF
:10572000C0F600010163A86A0CF1380C114662460C
:1057300001F06CFE00281CBF0120B0BD2868C168C4
:1057400041F480614AE085F84200686A45F66D01DF
:10575000C0F600018162686A41F6C131C0F60001FD
:10576000C162686A45F6D501D5F800C0C0F60001EF
:105770000163686A0CF1340C1146624601F046FE82
:1057800000281CBF0120B0BD2868C16841F4007129
:1057900024E085F84400E86A45F66D01C0F6000192
:1057A0008162E86A41F6C131C0F60001C162E86A6F
:1057B00045F6D501D5F800C0C0F600010163E86ADE
:1057C0000CF13C0C1146624601F020FE00281CBF83
:1057D0000120B0BD2868C16841F40061C16002E0E9
:1057E00085F84500286804F01F010422036A02FAC4
:1057F00001F123EA01020262026A11430162416C73
:1058000040F6FF32C4F2000241F40041904241648C
:105810000DDCB0F1804F1CD040F20041C4F2000119
:10582000884216D040F60001C4F200010FE040F6B5
:105830000041C4F2000188420BD043F20041C4F29F
:105840000101884205D042F60041C4F201018842BC
:1058500006D1816801F00701062904BF0020B0BD10
:10586000016841F0010101600020B0BD10B5446A3B
:10587000616A814211D0A16A814216D0E16A8142F7
:105880001BD0216B81421FD180690821002821771C
:1058900004BF012084F8450016E081690120002939
:1058A000207708BF84F842000EE08069022121774A
:1058B00050B9012084F8430006E080690421217773
:1058C00010B9012084F84400204603F00FF80020AE
:1058D000207710BD10B5446A616A81420BD0A16A7D
:1058E00081420DD0E16A81420FD10420207701204E
:1058F00084F8440009E00120207784F8420004E0A5
:1059000002202077012084F843002046FFF7BEFAEA
:105910000020207710BD00BFB0B50D460829044611
:1059200009D0042D0ED0BDB9204650F8241BCA68FA
:1059300022F400720CE0204650F82C1BCA6822F4B6
:10594000006205E0204650F8281BCA6822F48062F5
:10595000CA60006801F0CCFD206805F01F01042238
:10596000036A02FA01F123EA01010162016A01629C
:10597000026A41F211110A4204D1026A40F2444320
:105980001A420CD0026A0A4210D1016A40F2444223
:1059900011420BD1016821F00101016006E0426C67
:1059A00022F400424264026A0A42EED00120082D2D
:1059B00009D0042D0BD0002D14BF84F8450084F8C5
:1059C00042000020B0BD84F844000020B0BD84F83F
:1059D00043000020B0BD00BF41B1082909D004290F
:1059E00014BF00F1450200F1430204E000F142025D
:1059F00001E000F144021278012A1CBF0120704727
:105A0000022241B1082909D0042914BF80F8452099
:105A100080F8432004E080F8422001E080F8442030
:105A2000006801F01F010422036A02FA01F123EA6F
:105A300001020262026A11430162416C40F6FF32C8
:105A4000C4F2000241F40041904241640FDCB0F125
:105A5000804F1ED040F20041C4F20001884218D0AD
:105A600040F60001C4F20001884212D018E040F66E
:105A70000041C4F2000188420BD043F20041C4F25D
:105A80000101884205D042F60041C4F2010188427A
:105A900006D1816801F00701062904BF0020704784
:105AA000016841F0010101600020704710B50268F3
:105AB00001F01F0E4FF0040C146A0CFA0EF324EAE6
:105AC00003031362136A1362146A41F211131C4236
:105AD00006D1D2F820C040F244441CEA040F0CD096
